{
  "contractName": "MainGame",
  "abi": [
    {
      "inputs": [],
      "stateMutability": "nonpayable",
      "type": "constructor"
    },
    {
      "anonymous": false,
      "inputs": [
        {
          "indexed": false,
          "internalType": "uint256",
          "name": "id",
          "type": "uint256"
        },
        {
          "indexed": false,
          "internalType": "address",
          "name": "contractid",
          "type": "address"
        },
        {
          "indexed": false,
          "internalType": "uint256",
          "name": "price",
          "type": "uint256"
        },
        {
          "indexed": false,
          "internalType": "string",
          "name": "name",
          "type": "string"
        },
        {
          "indexed": false,
          "internalType": "bool",
          "name": "typee",
          "type": "bool"
        },
        {
          "indexed": false,
          "internalType": "uint256",
          "name": "nftid",
          "type": "uint256"
        }
      ],
      "name": "addERC1155",
      "type": "event"
    },
    {
      "anonymous": false,
      "inputs": [
        {
          "indexed": false,
          "internalType": "uint256",
          "name": "id",
          "type": "uint256"
        },
        {
          "indexed": false,
          "internalType": "address",
          "name": "contractid",
          "type": "address"
        },
        {
          "indexed": false,
          "internalType": "uint256",
          "name": "price",
          "type": "uint256"
        },
        {
          "indexed": false,
          "internalType": "string",
          "name": "name",
          "type": "string"
        },
        {
          "indexed": false,
          "internalType": "bool",
          "name": "typee",
          "type": "bool"
        }
      ],
      "name": "addERC721",
      "type": "event"
    },
    {
      "anonymous": false,
      "inputs": [
        {
          "indexed": false,
          "internalType": "uint256",
          "name": "townhallid",
          "type": "uint256"
        },
        {
          "indexed": false,
          "internalType": "address",
          "name": "own",
          "type": "address"
        }
      ],
      "name": "startGamev",
      "type": "event"
    },
    {
      "inputs": [
        {
          "internalType": "uint256",
          "name": "",
          "type": "uint256"
        }
      ],
      "name": "assets",
      "outputs": [
        {
          "internalType": "string",
          "name": "Name",
          "type": "string"
        },
        {
          "internalType": "uint256",
          "name": "id",
          "type": "uint256"
        },
        {
          "internalType": "address",
          "name": "contractadd",
          "type": "address"
        },
        {
          "internalType": "uint256",
          "name": "price",
          "type": "uint256"
        },
        {
          "internalType": "bool",
          "name": "tokentype",
          "type": "bool"
        }
      ],
      "stateMutability": "view",
      "type": "function"
    },
    {
      "inputs": [],
      "name": "maincurrency",
      "outputs": [
        {
          "internalType": "address",
          "name": "",
          "type": "address"
        }
      ],
      "stateMutability": "view",
      "type": "function"
    },
    {
      "inputs": [],
      "name": "owner",
      "outputs": [
        {
          "internalType": "address",
          "name": "",
          "type": "address"
        }
      ],
      "stateMutability": "view",
      "type": "function"
    },
    {
      "inputs": [
        {
          "internalType": "address",
          "name": "",
          "type": "address"
        }
      ],
      "name": "townhalluser",
      "outputs": [
        {
          "internalType": "bool",
          "name": "gamestarted",
          "type": "bool"
        },
        {
          "internalType": "uint256",
          "name": "townhallid",
          "type": "uint256"
        }
      ],
      "stateMutability": "view",
      "type": "function"
    },
    {
      "inputs": [
        {
          "internalType": "uint256[]",
          "name": "amount",
          "type": "uint256[]"
        },
        {
          "internalType": "uint256",
          "name": "minerid",
          "type": "uint256"
        }
      ],
      "name": "lockBase",
      "outputs": [],
      "stateMutability": "nonpayable",
      "type": "function"
    },
    {
      "inputs": [
        {
          "internalType": "string",
          "name": "name",
          "type": "string"
        },
        {
          "internalType": "address",
          "name": "contractadd",
          "type": "address"
        },
        {
          "internalType": "uint256",
          "name": "price",
          "type": "uint256"
        }
      ],
      "name": "addAsset721",
      "outputs": [],
      "stateMutability": "nonpayable",
      "type": "function"
    },
    {
      "inputs": [
        {
          "internalType": "string",
          "name": "name",
          "type": "string"
        },
        {
          "internalType": "address",
          "name": "contractadd",
          "type": "address"
        },
        {
          "internalType": "uint256",
          "name": "price",
          "type": "uint256"
        }
      ],
      "name": "addAsset1155",
      "outputs": [],
      "stateMutability": "nonpayable",
      "type": "function"
    },
    {
      "inputs": [
        {
          "internalType": "uint256",
          "name": "id",
          "type": "uint256"
        }
      ],
      "name": "assetdetails",
      "outputs": [
        {
          "components": [
            {
              "internalType": "string",
              "name": "Name",
              "type": "string"
            },
            {
              "internalType": "uint256",
              "name": "id",
              "type": "uint256"
            },
            {
              "internalType": "address",
              "name": "contractadd",
              "type": "address"
            },
            {
              "internalType": "uint256",
              "name": "price",
              "type": "uint256"
            },
            {
              "internalType": "bool",
              "name": "tokentype",
              "type": "bool"
            }
          ],
          "internalType": "struct MainGame.Asset",
          "name": "",
          "type": "tuple"
        }
      ],
      "stateMutability": "view",
      "type": "function"
    },
    {
      "inputs": [],
      "name": "startgame",
      "outputs": [],
      "stateMutability": "nonpayable",
      "type": "function"
    },
    {
      "inputs": [
        {
          "internalType": "uint256",
          "name": "minerid",
          "type": "uint256"
        },
        {
          "internalType": "uint256",
          "name": "assetid",
          "type": "uint256"
        }
      ],
      "name": "lockERC721",
      "outputs": [],
      "stateMutability": "nonpayable",
      "type": "function"
    },
    {
      "inputs": [
        {
          "internalType": "uint256",
          "name": "assetid",
          "type": "uint256"
        },
        {
          "internalType": "uint256",
          "name": "amount",
          "type": "uint256"
        }
      ],
      "name": "lockERC1155",
      "outputs": [],
      "stateMutability": "nonpayable",
      "type": "function"
    },
    {
      "inputs": [
        {
          "internalType": "uint256",
          "name": "minerid",
          "type": "uint256"
        },
        {
          "internalType": "uint256",
          "name": "assetid",
          "type": "uint256"
        }
      ],
      "name": "unlockERC721",
      "outputs": [],
      "stateMutability": "nonpayable",
      "type": "function"
    },
    {
      "inputs": [
        {
          "internalType": "uint256",
          "name": "assetid",
          "type": "uint256"
        }
      ],
      "name": "mintERC721",
      "outputs": [],
      "stateMutability": "payable",
      "type": "function"
    },
    {
      "inputs": [
        {
          "internalType": "uint256",
          "name": "minerid",
          "type": "uint256"
        }
      ],
      "name": "collect",
      "outputs": [],
      "stateMutability": "nonpayable",
      "type": "function"
    },
    {
      "inputs": [
        {
          "internalType": "uint256",
          "name": "assetid",
          "type": "uint256"
        }
      ],
      "name": "mintERC1155",
      "outputs": [],
      "stateMutability": "nonpayable",
      "type": "function"
    },
    {
      "inputs": [
        {
          "internalType": "address",
          "name": "scadd",
          "type": "address"
        }
      ],
      "name": "setmaincurrency",
      "outputs": [],
      "stateMutability": "nonpayable",
      "type": "function"
    },
    {
      "inputs": [],
      "name": "withdraw",
      "outputs": [],
      "stateMutability": "payable",
      "type": "function"
    }
  ],
  "bytecode": "0x60806040526000600355600060045534801561001a57600080fd5b50326000806101000a81548173ffffffffffffffffffffffffffffffffffffffff021916908373ffffffffffffffffffffffffffffffffffffffff1602179055506120cb8061006a6000396000f3fe6080604052600436106100fd5760003560e01c80635e5cbc6b11610095578063ce3f865f11610064578063ce3f865f146102b4578063cf35bdd0146102dd578063d9f8deb81461031e578063ea4d6c461461035c578063ecc9a94714610399576100fd565b80635e5cbc6b1461021e5780636c8f29de146102475780638da5cb5b14610272578063aaaea0471461029d576100fd565b80633ccfd60b116100d15780633ccfd60b1461019957806344484e3b146101a357806345fd0272146101cc57806346294c70146101f5576100fd565b806228cdba146101025780630addf41d1461011e5780630ed2b397146101475780633c302c0614610170575b600080fd5b61011c60048036038101906101179190611609565b6103c2565b005b34801561012a57600080fd5b50610145600480360381019061014091906117da565b61048f565b005b34801561015357600080fd5b5061016e60048036038101906101699190611849565b610639565b005b34801561017c57600080fd5b5061019760048036038101906101929190611876565b6106d5565b005b6101a16107c7565b005b3480156101af57600080fd5b506101ca60048036038101906101c591906117da565b61088f565b005b3480156101d857600080fd5b506101f360048036038101906101ee9190611876565b610abd565b005b34801561020157600080fd5b5061021c60048036038101906102179190611876565b610b80565b005b34801561022a57600080fd5b506102456004803603810190610240919061197e565b610c72565b005b34801561025357600080fd5b5061025c610cfa565b60405161026991906119e9565b60405180910390f35b34801561027e57600080fd5b50610287610d20565b60405161029491906119e9565b60405180910390f35b3480156102a957600080fd5b506102b2610d44565b005b3480156102c057600080fd5b506102db60048036038101906102d69190611609565b610f0c565b005b3480156102e957600080fd5b5061030460048036038101906102ff9190611609565b611055565b604051610315959493929190611ab6565b60405180910390f35b34801561032a57600080fd5b5061034560048036038101906103409190611849565b611140565b604051610353929190611b10565b60405180910390f35b34801561036857600080fd5b50610383600480360381019061037e9190611609565b611171565b6040516103909190611c26565b60405180910390f35b3480156103a557600080fd5b506103c060048036038101906103bb9190611609565b6112b5565b005b60056000828152602001908152602001600020600301543410156103e557600080fd5b60006005600083815260200190815260200160002060020160009054906101000a900473ffffffffffffffffffffffffffffffffffffffff1690508073ffffffffffffffffffffffffffffffffffffffff16636a627842326040518263ffffffff1660e01b815260040161045991906119e9565b600060405180830381600087803b15801561047357600080fd5b505af1158015610487573d6000803e3d6000fd5b505050505050565b60008054906101000a900473ffffffffffffffffffffffffffffffffffffffff1673ffffffffffffffffffffffffffffffffffffffff163373ffffffffffffffffffffffffffffffffffffffff16146104e757600080fd5b60006040518060a00160405280858152602001600081526020018473ffffffffffffffffffffffffffffffffffffffff16815260200183815260200160001515815250905080600560006003548152602001908152602001600020600082015181600001908051906020019061055e9291906114d5565b506020820151816001015560408201518160020160006101000a81548173ffffffffffffffffffffffffffffffffffffffff021916908373ffffffffffffffffffffffffffffffffffffffff1602179055506060820151816003015560808201518160040160006101000a81548160ff0219169083151502179055509050507f1861ba944951dc48f847f76c96cc9c52af44b8575199793f659db17a5f3dc96e6003600081548092919061061190611c77565b91905055848487600060405161062b959493929190611cc0565b60405180910390a150505050565b60008054906101000a900473ffffffffffffffffffffffffffffffffffffffff1673ffffffffffffffffffffffffffffffffffffffff163373ffffffffffffffffffffffffffffffffffffffff161461069157600080fd5b80600160006101000a81548173ffffffffffffffffffffffffffffffffffffffff021916908373ffffffffffffffffffffffffffffffffffffffff16021790555050565b60006005600083815260200190815260200160002060020160009054906101000a900473ffffffffffffffffffffffffffffffffffffffff1690508073ffffffffffffffffffffffffffffffffffffffff1663c774f61984600260003273ffffffffffffffffffffffffffffffffffffffff1673ffffffffffffffffffffffffffffffffffffffff1681526020019081526020016000206001015460016040518463ffffffff1660e01b815260040161079093929190611d5f565b600060405180830381600087803b1580156107aa57600080fd5b505af11580156107be573d6000803e3d6000fd5b50505050505050565b60008054906101000a900473ffffffffffffffffffffffffffffffffffffffff1673ffffffffffffffffffffffffffffffffffffffff163373ffffffffffffffffffffffffffffffffffffffff161461081f57600080fd5b60008060009054906101000a900473ffffffffffffffffffffffffffffffffffffffff1690508073ffffffffffffffffffffffffffffffffffffffff166108fc479081150290604051600060405180830381858888f1935050505015801561088b573d6000803e3d6000fd5b5050565b60008054906101000a900473ffffffffffffffffffffffffffffffffffffffff1673ffffffffffffffffffffffffffffffffffffffff163373ffffffffffffffffffffffffffffffffffffffff16146108e757600080fd5b60008273ffffffffffffffffffffffffffffffffffffffff16631bc7ffe985846040518363ffffffff1660e01b8152600401610924929190611d96565b6020604051808303816000875af1158015610943573d6000803e3d6000fd5b505050506040513d601f19601f820116820180604052508101906109679190611ddb565b905060006040518060a001604052808681526020018381526020018573ffffffffffffffffffffffffffffffffffffffff1681526020018481526020016001151581525090508060056000600354815260200190815260200160002060008201518160000190805190602001906109df9291906114d5565b506020820151816001015560408201518160020160006101000a81548173ffffffffffffffffffffffffffffffffffffffff021916908373ffffffffffffffffffffffffffffffffffffffff1602179055506060820151816003015560808201518160040160006101000a81548160ff0219169083151502179055509050507ff307a583ac0d9d00d09164e18f56f4b662bd1e124097217e4b6089227fd6970d60036000815480929190610a9290611c77565b91905055858588600187604051610aae96959493929190611e08565b60405180910390a15050505050565b60006005600084815260200190815260200160002060020160009054906101000a900473ffffffffffffffffffffffffffffffffffffffff1690508073ffffffffffffffffffffffffffffffffffffffff1663f7cacf596005600086815260200190815260200160002060010154846040518363ffffffff1660e01b8152600401610b49929190611e70565b600060405180830381600087803b158015610b6357600080fd5b505af1158015610b77573d6000803e3d6000fd5b50505050505050565b60006005600083815260200190815260200160002060020160009054906101000a900473ffffffffffffffffffffffffffffffffffffffff1690508073ffffffffffffffffffffffffffffffffffffffff1663c774f61984600260003273ffffffffffffffffffffffffffffffffffffffff1673ffffffffffffffffffffffffffffffffffffffff1681526020019081526020016000206001015460006040518463ffffffff1660e01b8152600401610c3b93929190611ed4565b600060405180830381600087803b158015610c5557600080fd5b505af1158015610c69573d6000803e3d6000fd5b50505050505050565b60005b8251811015610cf557600015156005600083815260200190815260200160002060040160009054906101000a900460ff1615151415610cbd57610cb882826106d5565b610ce2565b610ce181848381518110610cd457610cd3611f0b565b5b6020026020010151610abd565b5b8080610ced90611c77565b915050610c75565b505050565b600160009054906101000a900473ffffffffffffffffffffffffffffffffffffffff1681565b60008054906101000a900473ffffffffffffffffffffffffffffffffffffffff1681565b60001515600260003273ffffffffffffffffffffffffffffffffffffffff1673ffffffffffffffffffffffffffffffffffffffff16815260200190815260200160002060000160009054906101000a900460ff16151514610da457600080fd5b6040518060400160405280600115158152602001600454815250600260003273ffffffffffffffffffffffffffffffffffffffff1673ffffffffffffffffffffffffffffffffffffffff16815260200190815260200160002060008201518160000160006101000a81548160ff02191690831515021790555060208201518160010155905050600160009054906101000a900473ffffffffffffffffffffffffffffffffffffffff1673ffffffffffffffffffffffffffffffffffffffff1663eb4a02236103e8326040518363ffffffff1660e01b8152600401610e89929190611f75565b600060405180830381600087803b158015610ea357600080fd5b505af1158015610eb7573d6000803e3d6000fd5b505050507f6c1687743138b86f06b6379a2fde1c50e1689ecf2851961848e798aaac7813fa60046000815480929190610eef90611c77565b9190505532604051610f02929190611f9e565b60405180910390a1565b60006005600080815260200190815260200160002060020160009054906101000a900473ffffffffffffffffffffffffffffffffffffffff1673ffffffffffffffffffffffffffffffffffffffff1663ce3f865f836040518263ffffffff1660e01b8152600401610f7d9190611fc7565b6020604051808303816000875af1158015610f9c573d6000803e3d6000fd5b505050506040513d601f19601f82011682018060405250810190610fc09190611ddb565b9050600160009054906101000a900473ffffffffffffffffffffffffffffffffffffffff1673ffffffffffffffffffffffffffffffffffffffff1663eb4a022382326040518363ffffffff1660e01b815260040161101f929190611f9e565b600060405180830381600087803b15801561103957600080fd5b505af115801561104d573d6000803e3d6000fd5b505050505050565b600560205280600052604060002060009150905080600001805461107890612011565b80601f01602080910402602001604051908101604052809291908181526020018280546110a490612011565b80156110f15780601f106110c6576101008083540402835291602001916110f1565b820191906000526020600020905b8154815290600101906020018083116110d457829003601f168201915b5050505050908060010154908060020160009054906101000a900473ffffffffffffffffffffffffffffffffffffffff16908060030154908060040160009054906101000a900460ff16905085565b60026020528060005260406000206000915090508060000160009054906101000a900460ff16908060010154905082565b61117961155b565b600560008381526020019081526020016000206040518060a00160405290816000820180546111a790612011565b80601f01602080910402602001604051908101604052809291908181526020018280546111d390612011565b80156112205780601f106111f557610100808354040283529160200191611220565b820191906000526020600020905b81548152906001019060200180831161120357829003601f168201915b50505050508152602001600182015481526020016002820160009054906101000a900473ffffffffffffffffffffffffffffffffffffffff1673ffffffffffffffffffffffffffffffffffffffff1673ffffffffffffffffffffffffffffffffffffffff168152602001600382015481526020016004820160009054906101000a900460ff1615151515815250509050919050565b6005600082815260200190815260200160002060030154600160009054906101000a900473ffffffffffffffffffffffffffffffffffffffff1673ffffffffffffffffffffffffffffffffffffffff166370a08231326040518263ffffffff1660e01b815260040161132791906119e9565b602060405180830381865afa158015611344573d6000803e3d6000fd5b505050506040513d601f19601f820116820180604052508101906113689190611ddb565b101561137357600080fd5b600160009054906101000a900473ffffffffffffffffffffffffffffffffffffffff1673ffffffffffffffffffffffffffffffffffffffff166368c6b11a3260056000858152602001908152602001600020600301546040518363ffffffff1660e01b81526004016113e6929190612043565b600060405180830381600087803b15801561140057600080fd5b505af1158015611414573d6000803e3d6000fd5b505050506005600082815260200190815260200160002060020160009054906101000a900473ffffffffffffffffffffffffffffffffffffffff1673ffffffffffffffffffffffffffffffffffffffff16631b2ef1ca600560008481526020019081526020016000206001015460016040518363ffffffff1660e01b81526004016114a092919061206c565b600060405180830381600087803b1580156114ba57600080fd5b505af11580156114ce573d6000803e3d6000fd5b5050505050565b8280546114e190612011565b90600052602060002090601f016020900481019282611503576000855561154a565b82601f1061151c57805160ff191683800117855561154a565b8280016001018555821561154a579182015b8281111561154957825182559160200191906001019061152e565b5b50905061155791906115a2565b5090565b6040518060a001604052806060815260200160008152602001600073ffffffffffffffffffffffffffffffffffffffff168152602001600081526020016000151581525090565b5b808211156115bb5760008160009055506001016115a3565b5090565b6000604051905090565b600080fd5b600080fd5b6000819050919050565b6115e6816115d3565b81146115f157600080fd5b50565b600081359050611603816115dd565b92915050565b60006020828403121561161f5761161e6115c9565b5b600061162d848285016115f4565b91505092915050565b600080fd5b600080fd5b6000601f19601f8301169050919050565b7f4e487b7100000000000000000000000000000000000000000000000000000000600052604160045260246000fd5b61168982611640565b810181811067ffffffffffffffff821117156116a8576116a7611651565b5b80604052505050565b60006116bb6115bf565b90506116c78282611680565b919050565b600067ffffffffffffffff8211156116e7576116e6611651565b5b6116f082611640565b9050602081019050919050565b82818337600083830152505050565b600061171f61171a846116cc565b6116b1565b90508281526020810184848401111561173b5761173a61163b565b5b6117468482856116fd565b509392505050565b600082601f83011261176357611762611636565b5b813561177384826020860161170c565b91505092915050565b600073ffffffffffffffffffffffffffffffffffffffff82169050919050565b60006117a78261177c565b9050919050565b6117b78161179c565b81146117c257600080fd5b50565b6000813590506117d4816117ae565b92915050565b6000806000606084860312156117f3576117f26115c9565b5b600084013567ffffffffffffffff811115611811576118106115ce565b5b61181d8682870161174e565b935050602061182e868287016117c5565b925050604061183f868287016115f4565b9150509250925092565b60006020828403121561185f5761185e6115c9565b5b600061186d848285016117c5565b91505092915050565b6000806040838503121561188d5761188c6115c9565b5b600061189b858286016115f4565b92505060206118ac858286016115f4565b9150509250929050565b600067ffffffffffffffff8211156118d1576118d0611651565b5b602082029050602081019050919050565b600080fd5b60006118fa6118f5846118b6565b6116b1565b9050808382526020820190506020840283018581111561191d5761191c6118e2565b5b835b81811015611946578061193288826115f4565b84526020840193505060208101905061191f565b5050509392505050565b600082601f83011261196557611964611636565b5b81356119758482602086016118e7565b91505092915050565b60008060408385031215611995576119946115c9565b5b600083013567ffffffffffffffff8111156119b3576119b26115ce565b5b6119bf85828601611950565b92505060206119d0858286016115f4565b9150509250929050565b6119e38161179c565b82525050565b60006020820190506119fe60008301846119da565b92915050565b600081519050919050565b600082825260208201905092915050565b60005b83811015611a3e578082015181840152602081019050611a23565b83811115611a4d576000848401525b50505050565b6000611a5e82611a04565b611a688185611a0f565b9350611a78818560208601611a20565b611a8181611640565b840191505092915050565b611a95816115d3565b82525050565b60008115159050919050565b611ab081611a9b565b82525050565b600060a0820190508181036000830152611ad08188611a53565b9050611adf6020830187611a8c565b611aec60408301866119da565b611af96060830185611a8c565b611b066080830184611aa7565b9695505050505050565b6000604082019050611b256000830185611aa7565b611b326020830184611a8c565b9392505050565b600082825260208201905092915050565b6000611b5582611a04565b611b5f8185611b39565b9350611b6f818560208601611a20565b611b7881611640565b840191505092915050565b611b8c816115d3565b82525050565b611b9b8161179c565b82525050565b611baa81611a9b565b82525050565b600060a0830160008301518482036000860152611bcd8282611b4a565b9150506020830151611be26020860182611b83565b506040830151611bf56040860182611b92565b506060830151611c086060860182611b83565b506080830151611c1b6080860182611ba1565b508091505092915050565b60006020820190508181036000830152611c408184611bb0565b905092915050565b7f4e487b7100000000000000000000000000000000000000000000000000000000600052601160045260246000fd5b6000611c82826115d3565b91507fffffffffffffffffffffffffffffffffffffffffffffffffffffffffffffffff821415611cb557611cb4611c48565b5b600182019050919050565b600060a082019050611cd56000830188611a8c565b611ce260208301876119da565b611cef6040830186611a8c565b8181036060830152611d018185611a53565b9050611d106080830184611aa7565b9695505050505050565b6000819050919050565b6000819050919050565b6000611d49611d44611d3f84611d1a565b611d24565b6115d3565b9050919050565b611d5981611d2e565b82525050565b6000606082019050611d746000830186611a8c565b611d816020830185611a8c565b611d8e6040830184611d50565b949350505050565b60006040820190508181036000830152611db08185611a53565b9050611dbf6020830184611a8c565b9392505050565b600081519050611dd5816115dd565b92915050565b600060208284031215611df157611df06115c9565b5b6000611dff84828501611dc6565b91505092915050565b600060c082019050611e1d6000830189611a8c565b611e2a60208301886119da565b611e376040830187611a8c565b8181036060830152611e498186611a53565b9050611e586080830185611aa7565b611e6560a0830184611a8c565b979650505050505050565b6000604082019050611e856000830185611a8c565b611e926020830184611a8c565b9392505050565b6000819050919050565b6000611ebe611eb9611eb484611e99565b611d24565b6115d3565b9050919050565b611ece81611ea3565b82525050565b6000606082019050611ee96000830186611a8c565b611ef66020830185611a8c565b611f036040830184611ec5565b949350505050565b7f4e487b7100000000000000000000000000000000000000000000000000000000600052603260045260246000fd5b6000819050919050565b6000611f5f611f5a611f5584611f3a565b611d24565b6115d3565b9050919050565b611f6f81611f44565b82525050565b6000604082019050611f8a6000830185611f66565b611f9760208301846119da565b9392505050565b6000604082019050611fb36000830185611a8c565b611fc060208301846119da565b9392505050565b6000602082019050611fdc6000830184611a8c565b92915050565b7f4e487b7100000000000000000000000000000000000000000000000000000000600052602260045260246000fd5b6000600282049050600182168061202957607f821691505b6020821081141561203d5761203c611fe2565b5b50919050565b600060408201905061205860008301856119da565b6120656020830184611a8c565b9392505050565b60006040820190506120816000830185611a8c565b61208e6020830184611d50565b939250505056fea2646970667358221220db04432f654aa136669b0ea633605225b575695e69d940c5dfd2236f092bad5664736f6c634300080c0033",
  "immutableReferences": {},
  "source": "pragma solidity ^0.8.0;\n\npragma experimental ABIEncoderV2;\n\ninterface IERC1155  {\n\n function addAsset(string memory assetname,uint256 price)  external returns (uint256);\n function mint(uint256 id,uint256 amount) external;\n function updatelock(uint256 assetid,uint256 amount) external;\n\n}   \n\n\ninterface IERC20 {\n  \n    function balanceOf(address account) external view returns (uint256);\n    function subtract(address owner,uint256 amount)  external;\n     function mintnew(uint256 amount,address to)  external;\n    }\n\n\ninterface ERC721 /* is ERC165 */ {\n    function mint(address starter) external;\n    function lock(uint256 minerid,uint256 townhallid)  external;\n    function unlock(uint256 minerid,uint256 townhallid)  external;\n    function updatelock(uint256 minerid,uint256 townhallid,uint256 amount)  external;\n    function collect(uint256 id) external returns(uint256);\n\n}\n\n\ncontract MainGame {\n\n    address public owner;\n    address public maincurrency;\n    struct Asset{\n        string Name;\n        uint256 id;\n        address contractadd;\n        uint256 price;\n        bool tokentype ;\n    }\n    struct User{\n        bool gamestarted;\n        uint256 townhallid;\n    }\n    mapping(address => User) public townhalluser;\n    uint256 currentcount = 0;\n    uint256 townhallcount = 0;\n    mapping(uint256 => Asset) public assets;\n  \n        modifier onlyOwner(){\n            require(msg.sender == owner);\n            _;\n    }\n    event addERC721(uint256 id,address contractid,uint256 price,string name,bool typee);\n    event addERC1155(uint256 id,address contractid,uint256 price,string name,bool typee,uint256 nftid);\n    event startGamev(uint256 townhallid,address own);\n\n    constructor(){\n        owner = tx.origin;\n    }\n\n    function lockBase(uint256[] memory amount,uint256 minerid) public {\n        for(uint i=0;i<amount.length;i++){\n            if(assets[i].tokentype == false){\n                lockERC721(minerid, i);\n            }else{\n                lockERC1155(i, amount[i]);\n            }\n        }\n    }\n\n    function addAsset721(string memory name,address contractadd,uint256 price) public onlyOwner {\n\n             Asset memory asset = Asset(name,0,contractadd,price,false);\n             assets[currentcount] = asset;\n            emit addERC721(currentcount++, contractadd, price, name,false);\n\n    }\n\n    function addAsset1155(string memory name,address contractadd,uint256 price) public onlyOwner{\n            \n             uint256 id = IERC1155(contractadd).addAsset(name,price);\n            Asset memory asset = Asset(name,id,contractadd,price,true);\n             assets[currentcount] = asset;\n           emit addERC1155(currentcount++, contractadd, price, name, true,id);\n    }\n\n    function assetdetails(uint256 id) public view returns (Asset memory) {\n        return assets[id];\n    }\n\n    function startgame() public {\n        require(townhalluser[tx.origin].gamestarted == false);\n        townhalluser[tx.origin] = User(true,townhallcount);\n        IERC20(maincurrency).mintnew(1000, tx.origin);\n        emit startGamev(townhallcount++,tx.origin);\n    }\n\n    function lockERC721(uint256 minerid,uint256 assetid) public {\n        address contractadd = assets[assetid].contractadd;\n     \n        ERC721(contractadd).updatelock(minerid,townhalluser[tx.origin].townhallid,1);\n\n    }\n\n\n    function lockERC1155(uint256 assetid,uint256 amount) public {\n        address contractadd = assets[assetid].contractadd;\n        IERC1155(contractadd).updatelock(assets[assetid].id,amount);\n    }\n    \n\n    function unlockERC721(uint256 minerid,uint256 assetid) public {\n        address contractadd = assets[assetid].contractadd;\n        ERC721(contractadd).updatelock(minerid,townhalluser[tx.origin].townhallid,0);\n\n    }\n    \n    function mintERC721(uint256 assetid) payable public {\n        require(msg.value>=assets[assetid].price);\n        \n        address contractadd = assets[assetid].contractadd;\n        ERC721(contractadd).mint(tx.origin);\n    }\n\n    function collect(uint256 minerid) public {\n        uint256 amount = ERC721(assets[0].contractadd).collect(minerid);\n        IERC20(maincurrency).mintnew(amount, tx.origin);\n\n    }\n\n    function mintERC1155(uint256 assetid) public{\n        \n        require(IERC20(maincurrency).balanceOf(tx.origin) >= assets[assetid].price);\n        IERC20(maincurrency).subtract(tx.origin, assets[assetid].price);\n        IERC1155(assets[assetid].contractadd).mint(assets[assetid].id,1);\n    }\n\n\n    function setmaincurrency(address scadd) public onlyOwner {\n        maincurrency = scadd;\n    }\n\n\n\n    function withdraw() public payable onlyOwner {\n         address payable  own = payable(owner);\n       own.transfer(address(this).balance); \n    }\n\n}",
  "sourcePath": "/home/kali/Documents/RTS_Contract/contracts/MainGame.sol",
  "compiler": {
    "name": "solc",
    "version": "0.8.12+commit.f00d7308.Emscripten.clang"
  },
  "schemaVersion": "3.4.5",
  "updatedAt": "2022-04-09T17:54:58.868Z",
  "devdoc": {
    "kind": "dev",
    "methods": {},
    "version": 1
  },
  "userdoc": {
    "kind": "user",
    "methods": {},
    "version": 1
  }
}