{
  "contractName": "Miner",
  "abi": [
    {
      "inputs": [],
      "stateMutability": "nonpayable",
      "type": "constructor"
    },
    {
      "anonymous": false,
      "inputs": [
        {
          "indexed": true,
          "internalType": "address",
          "name": "owner",
          "type": "address"
        },
        {
          "indexed": true,
          "internalType": "address",
          "name": "approved",
          "type": "address"
        },
        {
          "indexed": true,
          "internalType": "uint256",
          "name": "tokenId",
          "type": "uint256"
        }
      ],
      "name": "Approval",
      "type": "event"
    },
    {
      "anonymous": false,
      "inputs": [
        {
          "indexed": true,
          "internalType": "address",
          "name": "owner",
          "type": "address"
        },
        {
          "indexed": true,
          "internalType": "address",
          "name": "operator",
          "type": "address"
        },
        {
          "indexed": false,
          "internalType": "bool",
          "name": "approved",
          "type": "bool"
        }
      ],
      "name": "ApprovalForAll",
      "type": "event"
    },
    {
      "anonymous": false,
      "inputs": [
        {
          "indexed": true,
          "internalType": "address",
          "name": "from",
          "type": "address"
        },
        {
          "indexed": true,
          "internalType": "address",
          "name": "to",
          "type": "address"
        },
        {
          "indexed": true,
          "internalType": "uint256",
          "name": "tokenId",
          "type": "uint256"
        }
      ],
      "name": "Transfer",
      "type": "event"
    },
    {
      "inputs": [
        {
          "internalType": "uint256",
          "name": "",
          "type": "uint256"
        }
      ],
      "name": "TownhallMiner",
      "outputs": [
        {
          "internalType": "uint256",
          "name": "",
          "type": "uint256"
        }
      ],
      "stateMutability": "view",
      "type": "function"
    },
    {
      "inputs": [
        {
          "internalType": "address",
          "name": "to",
          "type": "address"
        },
        {
          "internalType": "uint256",
          "name": "tokenId",
          "type": "uint256"
        }
      ],
      "name": "approve",
      "outputs": [],
      "stateMutability": "nonpayable",
      "type": "function"
    },
    {
      "inputs": [
        {
          "internalType": "address",
          "name": "owner",
          "type": "address"
        }
      ],
      "name": "balanceOf",
      "outputs": [
        {
          "internalType": "uint256",
          "name": "",
          "type": "uint256"
        }
      ],
      "stateMutability": "view",
      "type": "function"
    },
    {
      "inputs": [
        {
          "internalType": "uint256",
          "name": "tokenId",
          "type": "uint256"
        }
      ],
      "name": "getApproved",
      "outputs": [
        {
          "internalType": "address",
          "name": "",
          "type": "address"
        }
      ],
      "stateMutability": "view",
      "type": "function"
    },
    {
      "inputs": [
        {
          "internalType": "address",
          "name": "owner",
          "type": "address"
        },
        {
          "internalType": "address",
          "name": "operator",
          "type": "address"
        }
      ],
      "name": "isApprovedForAll",
      "outputs": [
        {
          "internalType": "bool",
          "name": "",
          "type": "bool"
        }
      ],
      "stateMutability": "view",
      "type": "function"
    },
    {
      "inputs": [
        {
          "internalType": "uint256",
          "name": "",
          "type": "uint256"
        }
      ],
      "name": "lastcollected",
      "outputs": [
        {
          "internalType": "uint256",
          "name": "",
          "type": "uint256"
        }
      ],
      "stateMutability": "view",
      "type": "function"
    },
    {
      "inputs": [
        {
          "internalType": "uint256",
          "name": "",
          "type": "uint256"
        }
      ],
      "name": "lockedminers",
      "outputs": [
        {
          "internalType": "address",
          "name": "",
          "type": "address"
        }
      ],
      "stateMutability": "view",
      "type": "function"
    },
    {
      "inputs": [],
      "name": "maxblock",
      "outputs": [
        {
          "internalType": "uint256",
          "name": "",
          "type": "uint256"
        }
      ],
      "stateMutability": "view",
      "type": "function"
    },
    {
      "inputs": [
        {
          "internalType": "uint256",
          "name": "",
          "type": "uint256"
        }
      ],
      "name": "minerproducing",
      "outputs": [
        {
          "internalType": "bool",
          "name": "",
          "type": "bool"
        }
      ],
      "stateMutability": "view",
      "type": "function"
    },
    {
      "inputs": [],
      "name": "name",
      "outputs": [
        {
          "internalType": "string",
          "name": "",
          "type": "string"
        }
      ],
      "stateMutability": "view",
      "type": "function"
    },
    {
      "inputs": [],
      "name": "owner",
      "outputs": [
        {
          "internalType": "address",
          "name": "",
          "type": "address"
        }
      ],
      "stateMutability": "view",
      "type": "function"
    },
    {
      "inputs": [
        {
          "internalType": "uint256",
          "name": "tokenId",
          "type": "uint256"
        }
      ],
      "name": "ownerOf",
      "outputs": [
        {
          "internalType": "address",
          "name": "",
          "type": "address"
        }
      ],
      "stateMutability": "view",
      "type": "function"
    },
    {
      "inputs": [
        {
          "internalType": "address",
          "name": "from",
          "type": "address"
        },
        {
          "internalType": "address",
          "name": "to",
          "type": "address"
        },
        {
          "internalType": "uint256",
          "name": "tokenId",
          "type": "uint256"
        }
      ],
      "name": "safeTransferFrom",
      "outputs": [],
      "stateMutability": "nonpayable",
      "type": "function"
    },
    {
      "inputs": [
        {
          "internalType": "address",
          "name": "from",
          "type": "address"
        },
        {
          "internalType": "address",
          "name": "to",
          "type": "address"
        },
        {
          "internalType": "uint256",
          "name": "tokenId",
          "type": "uint256"
        },
        {
          "internalType": "bytes",
          "name": "_data",
          "type": "bytes"
        }
      ],
      "name": "safeTransferFrom",
      "outputs": [],
      "stateMutability": "nonpayable",
      "type": "function"
    },
    {
      "inputs": [
        {
          "internalType": "address",
          "name": "operator",
          "type": "address"
        },
        {
          "internalType": "bool",
          "name": "approved",
          "type": "bool"
        }
      ],
      "name": "setApprovalForAll",
      "outputs": [],
      "stateMutability": "nonpayable",
      "type": "function"
    },
    {
      "inputs": [
        {
          "internalType": "bytes4",
          "name": "interfaceId",
          "type": "bytes4"
        }
      ],
      "name": "supportsInterface",
      "outputs": [
        {
          "internalType": "bool",
          "name": "",
          "type": "bool"
        }
      ],
      "stateMutability": "view",
      "type": "function"
    },
    {
      "inputs": [],
      "name": "symbol",
      "outputs": [
        {
          "internalType": "string",
          "name": "",
          "type": "string"
        }
      ],
      "stateMutability": "view",
      "type": "function"
    },
    {
      "inputs": [
        {
          "internalType": "uint256",
          "name": "tokenId",
          "type": "uint256"
        }
      ],
      "name": "tokenURI",
      "outputs": [
        {
          "internalType": "string",
          "name": "",
          "type": "string"
        }
      ],
      "stateMutability": "view",
      "type": "function"
    },
    {
      "inputs": [
        {
          "internalType": "uint256",
          "name": "",
          "type": "uint256"
        }
      ],
      "name": "townhallconnected",
      "outputs": [
        {
          "internalType": "bool",
          "name": "",
          "type": "bool"
        }
      ],
      "stateMutability": "view",
      "type": "function"
    },
    {
      "inputs": [
        {
          "internalType": "address",
          "name": "from",
          "type": "address"
        },
        {
          "internalType": "address",
          "name": "to",
          "type": "address"
        },
        {
          "internalType": "uint256",
          "name": "tokenId",
          "type": "uint256"
        }
      ],
      "name": "transferFrom",
      "outputs": [],
      "stateMutability": "nonpayable",
      "type": "function"
    },
    {
      "inputs": [
        {
          "internalType": "address",
          "name": "starter",
          "type": "address"
        }
      ],
      "name": "mint",
      "outputs": [],
      "stateMutability": "nonpayable",
      "type": "function"
    },
    {
      "inputs": [
        {
          "internalType": "address",
          "name": "newowner",
          "type": "address"
        }
      ],
      "name": "changeowner",
      "outputs": [],
      "stateMutability": "nonpayable",
      "type": "function"
    },
    {
      "inputs": [
        {
          "internalType": "uint256",
          "name": "id",
          "type": "uint256"
        }
      ],
      "name": "collect",
      "outputs": [
        {
          "internalType": "uint256",
          "name": "",
          "type": "uint256"
        }
      ],
      "stateMutability": "nonpayable",
      "type": "function"
    },
    {
      "inputs": [
        {
          "internalType": "uint256",
          "name": "minerid",
          "type": "uint256"
        },
        {
          "internalType": "uint256",
          "name": "townhallid",
          "type": "uint256"
        },
        {
          "internalType": "uint256",
          "name": "amount",
          "type": "uint256"
        }
      ],
      "name": "updatelock",
      "outputs": [],
      "stateMutability": "nonpayable",
      "type": "function"
    }
  ],
  "bytecode": "0x60806040526040518060400160405280600381526020017f616263000000000000000000000000000000000000000000000000000000000081525060089080519060200190620000519291906200014d565b506104b0600f553480156200006557600080fd5b506040518060400160405280600581526020017f4d696e65720000000000000000000000000000000000000000000000000000008152506040518060400160405280600381526020017f4d4e5200000000000000000000000000000000000000000000000000000000008152508160009080519060200190620000ea9291906200014d565b508060019080519060200190620001039291906200014d565b50505032600960006101000a81548173ffffffffffffffffffffffffffffffffffffffff021916908373ffffffffffffffffffffffffffffffffffffffff16021790555062000262565b8280546200015b906200022c565b90600052602060002090601f0160209004810192826200017f5760008555620001cb565b82601f106200019a57805160ff1916838001178555620001cb565b82800160010185558215620001cb579182015b82811115620001ca578251825591602001919060010190620001ad565b5b509050620001da9190620001de565b5090565b5b80821115620001f9576000816000905550600101620001df565b5090565b7f4e487b7100000000000000000000000000000000000000000000000000000000600052602260045260246000fd5b600060028204905060018216806200024557607f821691505b602082108114156200025c576200025b620001fd565b5b50919050565b6136a480620002726000396000f3fe608060405234801561001057600080fd5b50600436106101585760003560e01c80638da5cb5b116100c3578063ce3f865f1161007c578063ce3f865f146103e7578063d65430bd14610417578063dc869c7914610447578063dfaaa2d514610477578063e985e9c514610495578063fff5d2d4146104c557610158565b80638da5cb5b1461032757806395d89b4114610345578063a22cb46514610363578063b88d4fde1461037f578063c774f6191461039b578063c87b56dd146103b757610158565b806342842e0e1161011557806342842e0e146102435780634a5629631461025f5780636352211e1461028f578063662e4ee4146102bf5780636a627842146102db57806370a08231146102f757610158565b806301ffc9a71461015d57806306fdde031461018d578063081812fc146101ab578063095ea7b3146101db57806323b872dd146101f75780633250a50014610213575b600080fd5b610177600480360381019061017291906123d8565b6104f5565b6040516101849190612420565b60405180910390f35b6101956105d7565b6040516101a291906124d4565b60405180910390f35b6101c560048036038101906101c0919061252c565b610669565b6040516101d2919061259a565b60405180910390f35b6101f560048036038101906101f091906125e1565b6106ee565b005b610211600480360381019061020c9190612621565b610806565b005b61022d6004803603810190610228919061252c565b610866565b60405161023a9190612683565b60405180910390f35b61025d60048036038101906102589190612621565b61087e565b005b6102796004803603810190610274919061252c565b61089e565b6040516102869190612420565b60405180910390f35b6102a960048036038101906102a4919061252c565b6108be565b6040516102b6919061259a565b60405180910390f35b6102d960048036038101906102d4919061269e565b610970565b005b6102f560048036038101906102f0919061269e565b610a0e565b005b610311600480360381019061030c919061269e565b610b22565b60405161031e9190612683565b60405180910390f35b61032f610bda565b60405161033c919061259a565b60405180910390f35b61034d610c00565b60405161035a91906124d4565b60405180910390f35b61037d600480360381019061037891906126f7565b610c92565b005b6103996004803603810190610394919061286c565b610ca8565b005b6103b560048036038101906103b091906128ef565b610d0a565b005b6103d160048036038101906103cc919061252c565b610e9f565b6040516103de91906124d4565b60405180910390f35b61040160048036038101906103fc919061252c565b610ff1565b60405161040e9190612683565b60405180910390f35b610431600480360381019061042c919061252c565b611109565b60405161043e9190612683565b60405180910390f35b610461600480360381019061045c919061252c565b611121565b60405161046e9190612420565b60405180910390f35b61047f611141565b60405161048c9190612683565b60405180910390f35b6104af60048036038101906104aa9190612942565b611147565b6040516104bc9190612420565b60405180910390f35b6104df60048036038101906104da919061252c565b6111db565b6040516104ec919061259a565b60405180910390f35b60007f80ac58cd000000000000000000000000000000000000000000000000000000007bffffffffffffffffffffffffffffffffffffffffffffffffffffffff1916827bffffffffffffffffffffffffffffffffffffffffffffffffffffffff191614806105c057507f5b5e139f000000000000000000000000000000000000000000000000000000007bffffffffffffffffffffffffffffffffffffffffffffffffffffffff1916827bffffffffffffffffffffffffffffffffffffffffffffffffffffffff1916145b806105d057506105cf8261120e565b5b9050919050565b6060600080546105e6906129b1565b80601f0160208091040260200160405190810160405280929190818152602001828054610612906129b1565b801561065f5780601f106106345761010080835404028352916020019161065f565b820191906000526020600020905b81548152906001019060200180831161064257829003601f168201915b5050505050905090565b600061067482611278565b6106b3576040517f08c379a00000000000000000000000000000000000000000000000000000000081526004016106aa90612a55565b60405180910390fd5b6004600083815260200190815260200160002060009054906101000a900473ffffffffffffffffffffffffffffffffffffffff169050919050565b60006106f9826108be565b90508073ffffffffffffffffffffffffffffffffffffffff168373ffffffffffffffffffffffffffffffffffffffff16141561076a576040517f08c379a000000000000000000000000000000000000000000000000000000000815260040161076190612ae7565b60405180910390fd5b8073ffffffffffffffffffffffffffffffffffffffff166107896112e4565b73ffffffffffffffffffffffffffffffffffffffff1614806107b857506107b7816107b26112e4565b611147565b5b6107f7576040517f08c379a00000000000000000000000000000000000000000000000000000000081526004016107ee90612b79565b60405180910390fd5b61080183836112ec565b505050565b6108176108116112e4565b826113a5565b610856576040517f08c379a000000000000000000000000000000000000000000000000000000000815260040161084d90612c0b565b60405180910390fd5b610861838383611483565b505050565b600c6020528060005260406000206000915090505481565b61089983838360405180602001604052806000815250610ca8565b505050565b600b6020528060005260406000206000915054906101000a900460ff1681565b6000806002600084815260200190815260200160002060009054906101000a900473ffffffffffffffffffffffffffffffffffffffff169050600073ffffffffffffffffffffffffffffffffffffffff168173ffffffffffffffffffffffffffffffffffffffff161415610967576040517f08c379a000000000000000000000000000000000000000000000000000000000815260040161095e90612c9d565b60405180910390fd5b80915050919050565b600960009054906101000a900473ffffffffffffffffffffffffffffffffffffffff1673ffffffffffffffffffffffffffffffffffffffff163373ffffffffffffffffffffffffffffffffffffffff16146109ca57600080fd5b80600960006101000a81548173ffffffffffffffffffffffffffffffffffffffff021916908373ffffffffffffffffffffffffffffffffffffffff16021790555050565b600960009054906101000a900473ffffffffffffffffffffffffffffffffffffffff1673ffffffffffffffffffffffffffffffffffffffff163373ffffffffffffffffffffffffffffffffffffffff1614610a6857600080fd5b610a7260076116ea565b6000610a7e6007611700565b9050610a8a828261170e565b610b1e8160088054610a9b906129b1565b80601f0160208091040260200160405190810160405280929190818152602001828054610ac7906129b1565b8015610b145780601f10610ae957610100808354040283529160200191610b14565b820191906000526020600020905b815481529060010190602001808311610af757829003601f168201915b50505050506118e8565b5050565b60008073ffffffffffffffffffffffffffffffffffffffff168273ffffffffffffffffffffffffffffffffffffffff161415610b93576040517f08c379a0000000000000000000000000000000000000000000000000000000008152600401610b8a90612d2f565b60405180910390fd5b600360008373ffffffffffffffffffffffffffffffffffffffff1673ffffffffffffffffffffffffffffffffffffffff168152602001908152602001600020549050919050565b600960009054906101000a900473ffffffffffffffffffffffffffffffffffffffff1681565b606060018054610c0f906129b1565b80601f0160208091040260200160405190810160405280929190818152602001828054610c3b906129b1565b8015610c885780601f10610c5d57610100808354040283529160200191610c88565b820191906000526020600020905b815481529060010190602001808311610c6b57829003601f168201915b5050505050905090565b610ca4610c9d6112e4565b838361195c565b5050565b610cb9610cb36112e4565b836113a5565b610cf8576040517f08c379a0000000000000000000000000000000000000000000000000000000008152600401610cef90612c0b565b60405180910390fd5b610d0484848484611ac9565b50505050565b600960009054906101000a900473ffffffffffffffffffffffffffffffffffffffff1673ffffffffffffffffffffffffffffffffffffffff163373ffffffffffffffffffffffffffffffffffffffff1614610d6457600080fd5b600081118015610da75750610d78836108be565b73ffffffffffffffffffffffffffffffffffffffff163273ffffffffffffffffffffffffffffffffffffffff16145b8015610dd7575060001515600e600084815260200190815260200160002060009054906101000a900460ff161515145b15610deb57610de68383611b25565b610e9a565b600081148015610e1f575060011515600e600084815260200190815260200160002060009054906101000a900460ff161515145b8015610e8957503273ffffffffffffffffffffffffffffffffffffffff16600a600085815260200190815260200160002060009054906101000a900473ffffffffffffffffffffffffffffffffffffffff1673ffffffffffffffffffffffffffffffffffffffff16145b15610e9957610e988383611d45565b5b5b505050565b6060610eaa82611278565b610ee9576040517f08c379a0000000000000000000000000000000000000000000000000000000008152600401610ee090612dc1565b60405180910390fd5b6000600660008481526020019081526020016000208054610f09906129b1565b80601f0160208091040260200160405190810160405280929190818152602001828054610f35906129b1565b8015610f825780601f10610f5757610100808354040283529160200191610f82565b820191906000526020600020905b815481529060010190602001808311610f6557829003601f168201915b505050505090506000610f93611ef5565b9050600081511415610fa9578192505050610fec565b600082511115610fde578082604051602001610fc6929190612e1d565b60405160208183030381529060405292505050610fec565b610fe784611f0c565b925050505b919050565b6000600960009054906101000a900473ffffffffffffffffffffffffffffffffffffffff1673ffffffffffffffffffffffffffffffffffffffff163373ffffffffffffffffffffffffffffffffffffffff161461104d57600080fd5b60011515600b600084815260200190815260200160002060009054906101000a900460ff1615151461107e57600080fd5b3273ffffffffffffffffffffffffffffffffffffffff1661109e836108be565b73ffffffffffffffffffffffffffffffffffffffff16146110be57600080fd5b43600c600084815260200190815260200160002081905550600f54600c600084815260200190815260200160002054436110f89190612e70565b6111029190612ed3565b9050919050565b600d6020528060005260406000206000915090505481565b600e6020528060005260406000206000915054906101000a900460ff1681565b600f5481565b6000600560008473ffffffffffffffffffffffffffffffffffffffff1673ffffffffffffffffffffffffffffffffffffffff16815260200190815260200160002060008373ffffffffffffffffffffffffffffffffffffffff1673ffffffffffffffffffffffffffffffffffffffff16815260200190815260200160002060009054906101000a900460ff16905092915050565b600a6020528060005260406000206000915054906101000a900473ffffffffffffffffffffffffffffffffffffffff1681565b60007f01ffc9a7000000000000000000000000000000000000000000000000000000007bffffffffffffffffffffffffffffffffffffffffffffffffffffffff1916827bffffffffffffffffffffffffffffffffffffffffffffffffffffffff1916149050919050565b60008073ffffffffffffffffffffffffffffffffffffffff166002600084815260200190815260200160002060009054906101000a900473ffffffffffffffffffffffffffffffffffffffff1673ffffffffffffffffffffffffffffffffffffffff1614159050919050565b600033905090565b816004600083815260200190815260200160002060006101000a81548173ffffffffffffffffffffffffffffffffffffffff021916908373ffffffffffffffffffffffffffffffffffffffff160217905550808273ffffffffffffffffffffffffffffffffffffffff1661135f836108be565b73ffffffffffffffffffffffffffffffffffffffff167f8c5be1e5ebec7d5bd14f71427d1e84f3dd0314c0f7b2291e5b200ac8c7c3b92560405160405180910390a45050565b60006113b082611278565b6113ef576040517f08c379a00000000000000000000000000000000000000000000000000000000081526004016113e690612f76565b60405180910390fd5b60006113fa836108be565b90508073ffffffffffffffffffffffffffffffffffffffff168473ffffffffffffffffffffffffffffffffffffffff16148061146957508373ffffffffffffffffffffffffffffffffffffffff1661145184610669565b73ffffffffffffffffffffffffffffffffffffffff16145b8061147a57506114798185611147565b5b91505092915050565b8273ffffffffffffffffffffffffffffffffffffffff166114a3826108be565b73ffffffffffffffffffffffffffffffffffffffff16146114f9576040517f08c379a00000000000000000000000000000000000000000000000000000000081526004016114f090613008565b60405180910390fd5b600073ffffffffffffffffffffffffffffffffffffffff168273ffffffffffffffffffffffffffffffffffffffff161415611569576040517f08c379a00000000000000000000000000000000000000000000000000000000081526004016115609061309a565b60405180910390fd5b611574838383611fb3565b61157f6000826112ec565b6001600360008573ffffffffffffffffffffffffffffffffffffffff1673ffffffffffffffffffffffffffffffffffffffff16815260200190815260200160002060008282546115cf9190612e70565b925050819055506001600360008473ffffffffffffffffffffffffffffffffffffffff1673ffffffffffffffffffffffffffffffffffffffff168152602001908152602001600020600082825461162691906130ba565b92505081905550816002600083815260200190815260200160002060006101000a81548173ffffffffffffffffffffffffffffffffffffffff021916908373ffffffffffffffffffffffffffffffffffffffff160217905550808273ffffffffffffffffffffffffffffffffffffffff168473ffffffffffffffffffffffffffffffffffffffff167fddf252ad1be2c89b69c2b068fc378daa952ba7f163c4a11628f55a4df523b3ef60405160405180910390a46116e5838383611fb8565b505050565b6001816000016000828254019250508190555050565b600081600001549050919050565b600073ffffffffffffffffffffffffffffffffffffffff168273ffffffffffffffffffffffffffffffffffffffff16141561177e576040517f08c379a00000000000000000000000000000000000000000000000000000000081526004016117759061315c565b60405180910390fd5b61178781611278565b156117c7576040517f08c379a00000000000000000000000000000000000000000000000000000000081526004016117be906131c8565b60405180910390fd5b6117d360008383611fb3565b6001600360008473ffffffffffffffffffffffffffffffffffffffff1673ffffffffffffffffffffffffffffffffffffffff168152602001908152602001600020600082825461182391906130ba565b92505081905550816002600083815260200190815260200160002060006101000a81548173ffffffffffffffffffffffffffffffffffffffff021916908373ffffffffffffffffffffffffffffffffffffffff160217905550808273ffffffffffffffffffffffffffffffffffffffff16600073ffffffffffffffffffffffffffffffffffffffff167fddf252ad1be2c89b69c2b068fc378daa952ba7f163c4a11628f55a4df523b3ef60405160405180910390a46118e460008383611fb8565b5050565b6118f182611278565b611930576040517f08c379a00000000000000000000000000000000000000000000000000000000081526004016119279061325a565b60405180910390fd5b806006600084815260200190815260200160002090805190602001906119579291906122c9565b505050565b8173ffffffffffffffffffffffffffffffffffffffff168373ffffffffffffffffffffffffffffffffffffffff1614156119cb576040517f08c379a00000000000000000000000000000000000000000000000000000000081526004016119c2906132c6565b60405180910390fd5b80600560008573ffffffffffffffffffffffffffffffffffffffff1673ffffffffffffffffffffffffffffffffffffffff16815260200190815260200160002060008473ffffffffffffffffffffffffffffffffffffffff1673ffffffffffffffffffffffffffffffffffffffff16815260200190815260200160002060006101000a81548160ff0219169083151502179055508173ffffffffffffffffffffffffffffffffffffffff168373ffffffffffffffffffffffffffffffffffffffff167f17307eab39ab6107e8899845ad3d59bd9653f200f220920489ca2b5937696c3183604051611abc9190612420565b60405180910390a3505050565b611ad4848484611483565b611ae084848484611fbd565b611b1f576040517f08c379a0000000000000000000000000000000000000000000000000000000008152600401611b1690613358565b60405180910390fd5b50505050565b600960009054906101000a900473ffffffffffffffffffffffffffffffffffffffff1673ffffffffffffffffffffffffffffffffffffffff163373ffffffffffffffffffffffffffffffffffffffff1614611b7f57600080fd5b611b88826108be565b73ffffffffffffffffffffffffffffffffffffffff163273ffffffffffffffffffffffffffffffffffffffff1614611bf5576040517f08c379a0000000000000000000000000000000000000000000000000000000008152600401611bec906133c4565b60405180910390fd5b60001515600e600083815260200190815260200160002060009054906101000a900460ff16151514611c5c576040517f08c379a0000000000000000000000000000000000000000000000000000000008152600401611c5390613430565b60405180910390fd5b611c67323084611483565b43600c60008481526020019081526020016000208190555080600d6000848152602001908152602001600020819055506001600e600083815260200190815260200160002060006101000a81548160ff02191690831515021790555032600a600084815260200190815260200160002060006101000a81548173ffffffffffffffffffffffffffffffffffffffff021916908373ffffffffffffffffffffffffffffffffffffffff1602179055506001600b600084815260200190815260200160002060006101000a81548160ff0219169083151502179055505050565b600960009054906101000a900473ffffffffffffffffffffffffffffffffffffffff1673ffffffffffffffffffffffffffffffffffffffff163373ffffffffffffffffffffffffffffffffffffffff1614611d9f57600080fd5b3273ffffffffffffffffffffffffffffffffffffffff16600a600084815260200190815260200160002060009054906101000a900473ffffffffffffffffffffffffffffffffffffffff1673ffffffffffffffffffffffffffffffffffffffff1614611e0a57600080fd5b60011515600e600083815260200190815260200160002060009054906101000a900460ff16151514611e3b57600080fd5b6000600e600084815260200190815260200160002060006101000a81548160ff0219169083151502179055506000600a600084815260200190815260200160002060006101000a81548173ffffffffffffffffffffffffffffffffffffffff021916908373ffffffffffffffffffffffffffffffffffffffff160217905550611ec5303284611483565b6000600b600084815260200190815260200160002060006101000a81548160ff0219169083151502179055505050565b606060405180602001604052806000815250905090565b6060611f1782611278565b611f56576040517f08c379a0000000000000000000000000000000000000000000000000000000008152600401611f4d906134c2565b60405180910390fd5b6000611f60611ef5565b90506000815111611f805760405180602001604052806000815250611fab565b80611f8a84612145565b604051602001611f9b929190612e1d565b6040516020818303038152906040525b915050919050565b505050565b505050565b6000611fde8473ffffffffffffffffffffffffffffffffffffffff166122a6565b15612138578373ffffffffffffffffffffffffffffffffffffffff1663150b7a026120076112e4565b8786866040518563ffffffff1660e01b81526004016120299493929190613537565b6020604051808303816000875af192505050801561206557506040513d601f19601f820116820180604052508101906120629190613598565b60015b6120e8573d8060008114612095576040519150601f19603f3d011682016040523d82523d6000602084013e61209a565b606091505b506000815114156120e0576040517f08c379a00000000000000000000000000000000000000000000000000000000081526004016120d790613358565b60405180910390fd5b805181602001fd5b63150b7a0260e01b7bffffffffffffffffffffffffffffffffffffffffffffffffffffffff1916817bffffffffffffffffffffffffffffffffffffffffffffffffffffffff19161491505061213d565b600190505b949350505050565b6060600082141561218d576040518060400160405280600181526020017f300000000000000000000000000000000000000000000000000000000000000081525090506122a1565b600082905060005b600082146121bf5780806121a8906135c5565b915050600a826121b8919061360e565b9150612195565b60008167ffffffffffffffff8111156121db576121da612741565b5b6040519080825280601f01601f19166020018201604052801561220d5781602001600182028036833780820191505090505b5090505b6000851461229a576001826122269190612e70565b9150600a856122359190612ed3565b603061224191906130ba565b60f81b8183815181106122575761225661363f565b5b60200101907effffffffffffffffffffffffffffffffffffffffffffffffffffffffffffff1916908160001a905350600a85612293919061360e565b9450612211565b8093505050505b919050565b6000808273ffffffffffffffffffffffffffffffffffffffff163b119050919050565b8280546122d5906129b1565b90600052602060002090601f0160209004810192826122f7576000855561233e565b82601f1061231057805160ff191683800117855561233e565b8280016001018555821561233e579182015b8281111561233d578251825591602001919060010190612322565b5b50905061234b919061234f565b5090565b5b80821115612368576000816000905550600101612350565b5090565b6000604051905090565b600080fd5b600080fd5b60007fffffffff0000000000000000000000000000000000000000000000000000000082169050919050565b6123b581612380565b81146123c057600080fd5b50565b6000813590506123d2816123ac565b92915050565b6000602082840312156123ee576123ed612376565b5b60006123fc848285016123c3565b91505092915050565b60008115159050919050565b61241a81612405565b82525050565b60006020820190506124356000830184612411565b92915050565b600081519050919050565b600082825260208201905092915050565b60005b8381101561247557808201518184015260208101905061245a565b83811115612484576000848401525b50505050565b6000601f19601f8301169050919050565b60006124a68261243b565b6124b08185612446565b93506124c0818560208601612457565b6124c98161248a565b840191505092915050565b600060208201905081810360008301526124ee818461249b565b905092915050565b6000819050919050565b612509816124f6565b811461251457600080fd5b50565b60008135905061252681612500565b92915050565b60006020828403121561254257612541612376565b5b600061255084828501612517565b91505092915050565b600073ffffffffffffffffffffffffffffffffffffffff82169050919050565b600061258482612559565b9050919050565b61259481612579565b82525050565b60006020820190506125af600083018461258b565b92915050565b6125be81612579565b81146125c957600080fd5b50565b6000813590506125db816125b5565b92915050565b600080604083850312156125f8576125f7612376565b5b6000612606858286016125cc565b925050602061261785828601612517565b9150509250929050565b60008060006060848603121561263a57612639612376565b5b6000612648868287016125cc565b9350506020612659868287016125cc565b925050604061266a86828701612517565b9150509250925092565b61267d816124f6565b82525050565b60006020820190506126986000830184612674565b92915050565b6000602082840312156126b4576126b3612376565b5b60006126c2848285016125cc565b91505092915050565b6126d481612405565b81146126df57600080fd5b50565b6000813590506126f1816126cb565b92915050565b6000806040838503121561270e5761270d612376565b5b600061271c858286016125cc565b925050602061272d858286016126e2565b9150509250929050565b600080fd5b600080fd5b7f4e487b7100000000000000000000000000000000000000000000000000000000600052604160045260246000fd5b6127798261248a565b810181811067ffffffffffffffff8211171561279857612797612741565b5b80604052505050565b60006127ab61236c565b90506127b78282612770565b919050565b600067ffffffffffffffff8211156127d7576127d6612741565b5b6127e08261248a565b9050602081019050919050565b82818337600083830152505050565b600061280f61280a846127bc565b6127a1565b90508281526020810184848401111561282b5761282a61273c565b5b6128368482856127ed565b509392505050565b600082601f83011261285357612852612737565b5b81356128638482602086016127fc565b91505092915050565b6000806000806080858703121561288657612885612376565b5b6000612894878288016125cc565b94505060206128a5878288016125cc565b93505060406128b687828801612517565b925050606085013567ffffffffffffffff8111156128d7576128d661237b565b5b6128e38782880161283e565b91505092959194509250565b60008060006060848603121561290857612907612376565b5b600061291686828701612517565b935050602061292786828701612517565b925050604061293886828701612517565b9150509250925092565b6000806040838503121561295957612958612376565b5b6000612967858286016125cc565b9250506020612978858286016125cc565b9150509250929050565b7f4e487b7100000000000000000000000000000000000000000000000000000000600052602260045260246000fd5b600060028204905060018216806129c957607f821691505b602082108114156129dd576129dc612982565b5b50919050565b7f4552433732313a20617070726f76656420717565727920666f72206e6f6e657860008201527f697374656e7420746f6b656e0000000000000000000000000000000000000000602082015250565b6000612a3f602c83612446565b9150612a4a826129e3565b604082019050919050565b60006020820190508181036000830152612a6e81612a32565b9050919050565b7f4552433732313a20617070726f76616c20746f2063757272656e74206f776e6560008201527f7200000000000000000000000000000000000000000000000000000000000000602082015250565b6000612ad1602183612446565b9150612adc82612a75565b604082019050919050565b60006020820190508181036000830152612b0081612ac4565b9050919050565b7f4552433732313a20617070726f76652063616c6c6572206973206e6f74206f7760008201527f6e6572206e6f7220617070726f76656420666f7220616c6c0000000000000000602082015250565b6000612b63603883612446565b9150612b6e82612b07565b604082019050919050565b60006020820190508181036000830152612b9281612b56565b9050919050565b7f4552433732313a207472616e736665722063616c6c6572206973206e6f74206f60008201527f776e6572206e6f7220617070726f766564000000000000000000000000000000602082015250565b6000612bf5603183612446565b9150612c0082612b99565b604082019050919050565b60006020820190508181036000830152612c2481612be8565b9050919050565b7f4552433732313a206f776e657220717565727920666f72206e6f6e657869737460008201527f656e7420746f6b656e0000000000000000000000000000000000000000000000602082015250565b6000612c87602983612446565b9150612c9282612c2b565b604082019050919050565b60006020820190508181036000830152612cb681612c7a565b9050919050565b7f4552433732313a2062616c616e636520717565727920666f7220746865207a6560008201527f726f206164647265737300000000000000000000000000000000000000000000602082015250565b6000612d19602a83612446565b9150612d2482612cbd565b604082019050919050565b60006020820190508181036000830152612d4881612d0c565b9050919050565b7f45524337323155524953746f726167653a2055524920717565727920666f722060008201527f6e6f6e6578697374656e7420746f6b656e000000000000000000000000000000602082015250565b6000612dab603183612446565b9150612db682612d4f565b604082019050919050565b60006020820190508181036000830152612dda81612d9e565b9050919050565b600081905092915050565b6000612df78261243b565b612e018185612de1565b9350612e11818560208601612457565b80840191505092915050565b6000612e298285612dec565b9150612e358284612dec565b91508190509392505050565b7f4e487b7100000000000000000000000000000000000000000000000000000000600052601160045260246000fd5b6000612e7b826124f6565b9150612e86836124f6565b925082821015612e9957612e98612e41565b5b828203905092915050565b7f4e487b7100000000000000000000000000000000000000000000000000000000600052601260045260246000fd5b6000612ede826124f6565b9150612ee9836124f6565b925082612ef957612ef8612ea4565b5b828206905092915050565b7f4552433732313a206f70657261746f7220717565727920666f72206e6f6e657860008201527f697374656e7420746f6b656e0000000000000000000000000000000000000000602082015250565b6000612f60602c83612446565b9150612f6b82612f04565b604082019050919050565b60006020820190508181036000830152612f8f81612f53565b9050919050565b7f4552433732313a207472616e736665722066726f6d20696e636f72726563742060008201527f6f776e6572000000000000000000000000000000000000000000000000000000602082015250565b6000612ff2602583612446565b9150612ffd82612f96565b604082019050919050565b6000602082019050818103600083015261302181612fe5565b9050919050565b7f4552433732313a207472616e7366657220746f20746865207a65726f2061646460008201527f7265737300000000000000000000000000000000000000000000000000000000602082015250565b6000613084602483612446565b915061308f82613028565b604082019050919050565b600060208201905081810360008301526130b381613077565b9050919050565b60006130c5826124f6565b91506130d0836124f6565b9250827fffffffffffffffffffffffffffffffffffffffffffffffffffffffffffffffff0382111561310557613104612e41565b5b828201905092915050565b7f4552433732313a206d696e7420746f20746865207a65726f2061646472657373600082015250565b6000613146602083612446565b915061315182613110565b602082019050919050565b6000602082019050818103600083015261317581613139565b9050919050565b7f4552433732313a20746f6b656e20616c7265616479206d696e74656400000000600082015250565b60006131b2601c83612446565b91506131bd8261317c565b602082019050919050565b600060208201905081810360008301526131e1816131a5565b9050919050565b7f45524337323155524953746f726167653a2055524920736574206f66206e6f6e60008201527f6578697374656e7420746f6b656e000000000000000000000000000000000000602082015250565b6000613244602e83612446565b915061324f826131e8565b604082019050919050565b6000602082019050818103600083015261327381613237565b9050919050565b7f4552433732313a20617070726f766520746f2063616c6c657200000000000000600082015250565b60006132b0601983612446565b91506132bb8261327a565b602082019050919050565b600060208201905081810360008301526132df816132a3565b9050919050565b7f4552433732313a207472616e7366657220746f206e6f6e20455243373231526560008201527f63656976657220696d706c656d656e7465720000000000000000000000000000602082015250565b6000613342603283612446565b915061334d826132e6565b604082019050919050565b6000602082019050818103600083015261337181613335565b9050919050565b7f596f7520617265206e6f7420746865206f776e65720000000000000000000000600082015250565b60006133ae601583612446565b91506133b982613378565b602082019050919050565b600060208201905081810360008301526133dd816133a1565b9050919050565b7f546f776e68616c6c20697320616c726561647920636f6e6e6563746564000000600082015250565b600061341a601d83612446565b9150613425826133e4565b602082019050919050565b600060208201905081810360008301526134498161340d565b9050919050565b7f4552433732314d657461646174613a2055524920717565727920666f72206e6f60008201527f6e6578697374656e7420746f6b656e0000000000000000000000000000000000602082015250565b60006134ac602f83612446565b91506134b782613450565b604082019050919050565b600060208201905081810360008301526134db8161349f565b9050919050565b600081519050919050565b600082825260208201905092915050565b6000613509826134e2565b61351381856134ed565b9350613523818560208601612457565b61352c8161248a565b840191505092915050565b600060808201905061354c600083018761258b565b613559602083018661258b565b6135666040830185612674565b818103606083015261357881846134fe565b905095945050505050565b600081519050613592816123ac565b92915050565b6000602082840312156135ae576135ad612376565b5b60006135bc84828501613583565b91505092915050565b60006135d0826124f6565b91507fffffffffffffffffffffffffffffffffffffffffffffffffffffffffffffffff82141561360357613602612e41565b5b600182019050919050565b6000613619826124f6565b9150613624836124f6565b92508261363457613633612ea4565b5b828204905092915050565b7f4e487b7100000000000000000000000000000000000000000000000000000000600052603260045260246000fdfea26469706673582212202e2b5dff3c6b9b740f19171a5d25e18e2960bf78f7ea284ed4217160ffdc239e64736f6c634300080c0033",
  "immutableReferences": {},
  "source": "pragma solidity ^0.8.0;\n\nimport \"@openzeppelin/contracts/token/ERC721/extensions/ERC721URIStorage.sol\";\n\nimport \"@openzeppelin/contracts/utils/Counters.sol\";\n\ncontract Miner is ERC721URIStorage {\n    using Counters for Counters.Counter;\n    Counters.Counter private _tokenIds;\n    string tokenuri = \"abc\";\n    address public owner;\n    mapping(uint256=>address) public lockedminers;\n    mapping(uint256=>bool) public minerproducing;\n    mapping(uint256=>uint256) public lastcollected;\n    mapping(uint256=>uint256) public TownhallMiner;\n    mapping(uint256=>bool) public townhallconnected;\n    uint256 public maxblock = 1200;\n    constructor() ERC721(\"Miner\", \"MNR\") public {\n        owner = tx.origin;\n    }\n    modifier onlyOwner(){\n            require(msg.sender == owner);\n            _;\n    }\n\n    function mint(address starter) onlyOwner external {\n         _tokenIds.increment();\n\n        uint256 newItemId = _tokenIds.current();\n        _mint(starter, newItemId);\n        _setTokenURI(newItemId, tokenuri);\n\n    }\n\n     function changeowner(address newowner) onlyOwner public{\n        owner = newowner;\n    }\n\n    function lock(uint256 minerid,uint256 townhallid) onlyOwner internal{\n        require(tx.origin == ownerOf(minerid),\"You are not the owner\");\n        require(townhallconnected[townhallid] == false,\"Townhall is already connected\");\n        _transfer(tx.origin,address(this),minerid);\n        lastcollected[minerid] = block.number;\n        TownhallMiner[minerid] = townhallid;\n        townhallconnected[townhallid] = true;\n        lockedminers[minerid] = tx.origin;\n        minerproducing[minerid] = true;\n    }\n\n    function unlock(uint256 minerid,uint256 townhallid) onlyOwner internal{\n        require(lockedminers[minerid] == tx.origin);\n        require(townhallconnected[townhallid] == true);\n        townhallconnected[minerid] = false;\n        lockedminers[minerid]= address(0);\n        _transfer(address(this),tx.origin,minerid);\n        minerproducing[minerid] = false;\n        \n\n    }\n\n    function collect(uint256 id) onlyOwner public returns(uint256){\n        require(minerproducing[id] == true);\n        require(ownerOf(id) == tx.origin);\n        lastcollected[id] = block.number;\n        return (block.number - lastcollected[id]) % maxblock;\n\n    }\n\n    function updatelock(uint256 minerid,uint256 townhallid,uint256 amount) onlyOwner external{\n        if(amount>0 && tx.origin == ownerOf(minerid) && townhallconnected[townhallid] == false){\n            lock(minerid,townhallid);\n\n            \n        }\n        else if(amount == 0 && townhallconnected[townhallid] == true && lockedminers[minerid] == tx.origin ){\n            unlock(minerid, townhallid);\n        }\n    }\n}\n",
  "sourcePath": "/home/kali/Documents/RTS_Contract/contracts/Miner.sol",
  "compiler": {
    "name": "solc",
    "version": "0.8.12+commit.f00d7308.Emscripten.clang"
  },
  "schemaVersion": "3.4.5",
  "updatedAt": "2022-03-31T18:07:10.398Z",
  "devdoc": {
    "kind": "dev",
    "methods": {
      "approve(address,uint256)": {
        "details": "See {IERC721-approve}."
      },
      "balanceOf(address)": {
        "details": "See {IERC721-balanceOf}."
      },
      "getApproved(uint256)": {
        "details": "See {IERC721-getApproved}."
      },
      "isApprovedForAll(address,address)": {
        "details": "See {IERC721-isApprovedForAll}."
      },
      "name()": {
        "details": "See {IERC721Metadata-name}."
      },
      "ownerOf(uint256)": {
        "details": "See {IERC721-ownerOf}."
      },
      "safeTransferFrom(address,address,uint256)": {
        "details": "See {IERC721-safeTransferFrom}."
      },
      "safeTransferFrom(address,address,uint256,bytes)": {
        "details": "See {IERC721-safeTransferFrom}."
      },
      "setApprovalForAll(address,bool)": {
        "details": "See {IERC721-setApprovalForAll}."
      },
      "supportsInterface(bytes4)": {
        "details": "See {IERC165-supportsInterface}."
      },
      "symbol()": {
        "details": "See {IERC721Metadata-symbol}."
      },
      "tokenURI(uint256)": {
        "details": "See {IERC721Metadata-tokenURI}."
      },
      "transferFrom(address,address,uint256)": {
        "details": "See {IERC721-transferFrom}."
      }
    },
    "version": 1
  },
  "userdoc": {
    "kind": "user",
    "methods": {},
    "version": 1
  }
}