{
  "contractName": "Townhall",
  "abi": [
    {
      "inputs": [],
      "stateMutability": "nonpayable",
      "type": "constructor"
    },
    {
      "anonymous": false,
      "inputs": [
        {
          "indexed": true,
          "internalType": "address",
          "name": "owner",
          "type": "address"
        },
        {
          "indexed": true,
          "internalType": "address",
          "name": "approved",
          "type": "address"
        },
        {
          "indexed": true,
          "internalType": "uint256",
          "name": "tokenId",
          "type": "uint256"
        }
      ],
      "name": "Approval",
      "type": "event"
    },
    {
      "anonymous": false,
      "inputs": [
        {
          "indexed": true,
          "internalType": "address",
          "name": "owner",
          "type": "address"
        },
        {
          "indexed": true,
          "internalType": "address",
          "name": "operator",
          "type": "address"
        },
        {
          "indexed": false,
          "internalType": "bool",
          "name": "approved",
          "type": "bool"
        }
      ],
      "name": "ApprovalForAll",
      "type": "event"
    },
    {
      "anonymous": false,
      "inputs": [
        {
          "indexed": true,
          "internalType": "address",
          "name": "from",
          "type": "address"
        },
        {
          "indexed": true,
          "internalType": "address",
          "name": "to",
          "type": "address"
        },
        {
          "indexed": true,
          "internalType": "uint256",
          "name": "tokenId",
          "type": "uint256"
        }
      ],
      "name": "Transfer",
      "type": "event"
    },
    {
      "inputs": [
        {
          "internalType": "address",
          "name": "to",
          "type": "address"
        },
        {
          "internalType": "uint256",
          "name": "tokenId",
          "type": "uint256"
        }
      ],
      "name": "approve",
      "outputs": [],
      "stateMutability": "nonpayable",
      "type": "function"
    },
    {
      "inputs": [
        {
          "internalType": "address",
          "name": "owner",
          "type": "address"
        }
      ],
      "name": "balanceOf",
      "outputs": [
        {
          "internalType": "uint256",
          "name": "",
          "type": "uint256"
        }
      ],
      "stateMutability": "view",
      "type": "function"
    },
    {
      "inputs": [
        {
          "internalType": "uint256",
          "name": "tokenId",
          "type": "uint256"
        }
      ],
      "name": "getApproved",
      "outputs": [
        {
          "internalType": "address",
          "name": "",
          "type": "address"
        }
      ],
      "stateMutability": "view",
      "type": "function"
    },
    {
      "inputs": [
        {
          "internalType": "address",
          "name": "owner",
          "type": "address"
        },
        {
          "internalType": "address",
          "name": "operator",
          "type": "address"
        }
      ],
      "name": "isApprovedForAll",
      "outputs": [
        {
          "internalType": "bool",
          "name": "",
          "type": "bool"
        }
      ],
      "stateMutability": "view",
      "type": "function"
    },
    {
      "inputs": [],
      "name": "name",
      "outputs": [
        {
          "internalType": "string",
          "name": "",
          "type": "string"
        }
      ],
      "stateMutability": "view",
      "type": "function"
    },
    {
      "inputs": [],
      "name": "owner",
      "outputs": [
        {
          "internalType": "address",
          "name": "",
          "type": "address"
        }
      ],
      "stateMutability": "view",
      "type": "function"
    },
    {
      "inputs": [
        {
          "internalType": "uint256",
          "name": "tokenId",
          "type": "uint256"
        }
      ],
      "name": "ownerOf",
      "outputs": [
        {
          "internalType": "address",
          "name": "",
          "type": "address"
        }
      ],
      "stateMutability": "view",
      "type": "function"
    },
    {
      "inputs": [
        {
          "internalType": "address",
          "name": "from",
          "type": "address"
        },
        {
          "internalType": "address",
          "name": "to",
          "type": "address"
        },
        {
          "internalType": "uint256",
          "name": "tokenId",
          "type": "uint256"
        }
      ],
      "name": "safeTransferFrom",
      "outputs": [],
      "stateMutability": "nonpayable",
      "type": "function"
    },
    {
      "inputs": [
        {
          "internalType": "address",
          "name": "from",
          "type": "address"
        },
        {
          "internalType": "address",
          "name": "to",
          "type": "address"
        },
        {
          "internalType": "uint256",
          "name": "tokenId",
          "type": "uint256"
        },
        {
          "internalType": "bytes",
          "name": "_data",
          "type": "bytes"
        }
      ],
      "name": "safeTransferFrom",
      "outputs": [],
      "stateMutability": "nonpayable",
      "type": "function"
    },
    {
      "inputs": [
        {
          "internalType": "address",
          "name": "operator",
          "type": "address"
        },
        {
          "internalType": "bool",
          "name": "approved",
          "type": "bool"
        }
      ],
      "name": "setApprovalForAll",
      "outputs": [],
      "stateMutability": "nonpayable",
      "type": "function"
    },
    {
      "inputs": [
        {
          "internalType": "bytes4",
          "name": "interfaceId",
          "type": "bytes4"
        }
      ],
      "name": "supportsInterface",
      "outputs": [
        {
          "internalType": "bool",
          "name": "",
          "type": "bool"
        }
      ],
      "stateMutability": "view",
      "type": "function"
    },
    {
      "inputs": [],
      "name": "symbol",
      "outputs": [
        {
          "internalType": "string",
          "name": "",
          "type": "string"
        }
      ],
      "stateMutability": "view",
      "type": "function"
    },
    {
      "inputs": [
        {
          "internalType": "uint256",
          "name": "tokenId",
          "type": "uint256"
        }
      ],
      "name": "tokenURI",
      "outputs": [
        {
          "internalType": "string",
          "name": "",
          "type": "string"
        }
      ],
      "stateMutability": "view",
      "type": "function"
    },
    {
      "inputs": [
        {
          "internalType": "address",
          "name": "from",
          "type": "address"
        },
        {
          "internalType": "address",
          "name": "to",
          "type": "address"
        },
        {
          "internalType": "uint256",
          "name": "tokenId",
          "type": "uint256"
        }
      ],
      "name": "transferFrom",
      "outputs": [],
      "stateMutability": "nonpayable",
      "type": "function"
    },
    {
      "inputs": [
        {
          "internalType": "address",
          "name": "starter",
          "type": "address"
        }
      ],
      "name": "startgame",
      "outputs": [],
      "stateMutability": "nonpayable",
      "type": "function"
    },
    {
      "inputs": [
        {
          "internalType": "address",
          "name": "newowner",
          "type": "address"
        }
      ],
      "name": "changeowner",
      "outputs": [],
      "stateMutability": "nonpayable",
      "type": "function"
    }
  ],
  "bytecode": "0x60806040526040518060400160405280600381526020017f6162630000000000000000000000000000000000000000000000000000000000815250600890805190602001906200005192919062000147565b503480156200005f57600080fd5b506040518060400160405280600881526020017f546f776e48616c6c0000000000000000000000000000000000000000000000008152506040518060400160405280600381526020017f54574800000000000000000000000000000000000000000000000000000000008152508160009080519060200190620000e492919062000147565b508060019080519060200190620000fd92919062000147565b50505032600960006101000a81548173ffffffffffffffffffffffffffffffffffffffff021916908373ffffffffffffffffffffffffffffffffffffffff1602179055506200025c565b828054620001559062000226565b90600052602060002090601f016020900481019282620001795760008555620001c5565b82601f106200019457805160ff1916838001178555620001c5565b82800160010185558215620001c5579182015b82811115620001c4578251825591602001919060010190620001a7565b5b509050620001d49190620001d8565b5090565b5b80821115620001f3576000816000905550600101620001d9565b5090565b7f4e487b7100000000000000000000000000000000000000000000000000000000600052602260045260246000fd5b600060028204905060018216806200023f57607f821691505b60208210811415620002565762000255620001f7565b5b50919050565b612ca1806200026c6000396000f3fe608060405234801561001057600080fd5b50600436106101005760003560e01c806367ed5ad211610097578063a22cb46511610066578063a22cb465146102ab578063b88d4fde146102c7578063c87b56dd146102e3578063e985e9c51461031357610100565b806367ed5ad21461022357806370a082311461023f5780638da5cb5b1461026f57806395d89b411461028d57610100565b806323b872dd116100d357806323b872dd1461019f57806342842e0e146101bb5780636352211e146101d7578063662e4ee41461020757610100565b806301ffc9a71461010557806306fdde0314610135578063081812fc14610153578063095ea7b314610183575b600080fd5b61011f600480360381019061011a9190611b00565b610343565b60405161012c9190611b48565b60405180910390f35b61013d610425565b60405161014a9190611bfc565b60405180910390f35b61016d60048036038101906101689190611c54565b6104b7565b60405161017a9190611cc2565b60405180910390f35b61019d60048036038101906101989190611d09565b61053c565b005b6101b960048036038101906101b49190611d49565b610654565b005b6101d560048036038101906101d09190611d49565b6106b4565b005b6101f160048036038101906101ec9190611c54565b6106d4565b6040516101fe9190611cc2565b60405180910390f35b610221600480360381019061021c9190611d9c565b610786565b005b61023d60048036038101906102389190611d9c565b610824565b005b61025960048036038101906102549190611d9c565b610938565b6040516102669190611dd8565b60405180910390f35b6102776109f0565b6040516102849190611cc2565b60405180910390f35b610295610a16565b6040516102a29190611bfc565b60405180910390f35b6102c560048036038101906102c09190611e1f565b610aa8565b005b6102e160048036038101906102dc9190611f94565b610abe565b005b6102fd60048036038101906102f89190611c54565b610b20565b60405161030a9190611bfc565b60405180910390f35b61032d60048036038101906103289190612017565b610c72565b60405161033a9190611b48565b60405180910390f35b60007f80ac58cd000000000000000000000000000000000000000000000000000000007bffffffffffffffffffffffffffffffffffffffffffffffffffffffff1916827bffffffffffffffffffffffffffffffffffffffffffffffffffffffff1916148061040e57507f5b5e139f000000000000000000000000000000000000000000000000000000007bffffffffffffffffffffffffffffffffffffffffffffffffffffffff1916827bffffffffffffffffffffffffffffffffffffffffffffffffffffffff1916145b8061041e575061041d82610d06565b5b9050919050565b60606000805461043490612086565b80601f016020809104026020016040519081016040528092919081815260200182805461046090612086565b80156104ad5780601f10610482576101008083540402835291602001916104ad565b820191906000526020600020905b81548152906001019060200180831161049057829003601f168201915b5050505050905090565b60006104c282610d70565b610501576040517f08c379a00000000000000000000000000000000000000000000000000000000081526004016104f89061212a565b60405180910390fd5b6004600083815260200190815260200160002060009054906101000a900473ffffffffffffffffffffffffffffffffffffffff169050919050565b6000610547826106d4565b90508073ffffffffffffffffffffffffffffffffffffffff168373ffffffffffffffffffffffffffffffffffffffff1614156105b8576040517f08c379a00000000000000000000000000000000000000000000000000000000081526004016105af906121bc565b60405180910390fd5b8073ffffffffffffffffffffffffffffffffffffffff166105d7610ddc565b73ffffffffffffffffffffffffffffffffffffffff161480610606575061060581610600610ddc565b610c72565b5b610645576040517f08c379a000000000000000000000000000000000000000000000000000000000815260040161063c9061224e565b60405180910390fd5b61064f8383610de4565b505050565b61066561065f610ddc565b82610e9d565b6106a4576040517f08c379a000000000000000000000000000000000000000000000000000000000815260040161069b906122e0565b60405180910390fd5b6106af838383610f7b565b505050565b6106cf83838360405180602001604052806000815250610abe565b505050565b6000806002600084815260200190815260200160002060009054906101000a900473ffffffffffffffffffffffffffffffffffffffff169050600073ffffffffffffffffffffffffffffffffffffffff168173ffffffffffffffffffffffffffffffffffffffff16141561077d576040517f08c379a000000000000000000000000000000000000000000000000000000000815260040161077490612372565b60405180910390fd5b80915050919050565b600960009054906101000a900473ffffffffffffffffffffffffffffffffffffffff1673ffffffffffffffffffffffffffffffffffffffff163373ffffffffffffffffffffffffffffffffffffffff16146107e057600080fd5b80600960006101000a81548173ffffffffffffffffffffffffffffffffffffffff021916908373ffffffffffffffffffffffffffffffffffffffff16021790555050565b600960009054906101000a900473ffffffffffffffffffffffffffffffffffffffff1673ffffffffffffffffffffffffffffffffffffffff163373ffffffffffffffffffffffffffffffffffffffff161461087e57600080fd5b61088860076111e2565b600061089460076111f8565b90506108a08282611206565b61093481600880546108b190612086565b80601f01602080910402602001604051908101604052809291908181526020018280546108dd90612086565b801561092a5780601f106108ff5761010080835404028352916020019161092a565b820191906000526020600020905b81548152906001019060200180831161090d57829003601f168201915b50505050506113e0565b5050565b60008073ffffffffffffffffffffffffffffffffffffffff168273ffffffffffffffffffffffffffffffffffffffff1614156109a9576040517f08c379a00000000000000000000000000000000000000000000000000000000081526004016109a090612404565b60405180910390fd5b600360008373ffffffffffffffffffffffffffffffffffffffff1673ffffffffffffffffffffffffffffffffffffffff168152602001908152602001600020549050919050565b600960009054906101000a900473ffffffffffffffffffffffffffffffffffffffff1681565b606060018054610a2590612086565b80601f0160208091040260200160405190810160405280929190818152602001828054610a5190612086565b8015610a9e5780601f10610a7357610100808354040283529160200191610a9e565b820191906000526020600020905b815481529060010190602001808311610a8157829003601f168201915b5050505050905090565b610aba610ab3610ddc565b8383611454565b5050565b610acf610ac9610ddc565b83610e9d565b610b0e576040517f08c379a0000000000000000000000000000000000000000000000000000000008152600401610b05906122e0565b60405180910390fd5b610b1a848484846115c1565b50505050565b6060610b2b82610d70565b610b6a576040517f08c379a0000000000000000000000000000000000000000000000000000000008152600401610b6190612496565b60405180910390fd5b6000600660008481526020019081526020016000208054610b8a90612086565b80601f0160208091040260200160405190810160405280929190818152602001828054610bb690612086565b8015610c035780601f10610bd857610100808354040283529160200191610c03565b820191906000526020600020905b815481529060010190602001808311610be657829003601f168201915b505050505090506000610c1461161d565b9050600081511415610c2a578192505050610c6d565b600082511115610c5f578082604051602001610c479291906124f2565b60405160208183030381529060405292505050610c6d565b610c6884611634565b925050505b919050565b6000600560008473ffffffffffffffffffffffffffffffffffffffff1673ffffffffffffffffffffffffffffffffffffffff16815260200190815260200160002060008373ffffffffffffffffffffffffffffffffffffffff1673ffffffffffffffffffffffffffffffffffffffff16815260200190815260200160002060009054906101000a900460ff16905092915050565b60007f01ffc9a7000000000000000000000000000000000000000000000000000000007bffffffffffffffffffffffffffffffffffffffffffffffffffffffff1916827bffffffffffffffffffffffffffffffffffffffffffffffffffffffff1916149050919050565b60008073ffffffffffffffffffffffffffffffffffffffff166002600084815260200190815260200160002060009054906101000a900473ffffffffffffffffffffffffffffffffffffffff1673ffffffffffffffffffffffffffffffffffffffff1614159050919050565b600033905090565b816004600083815260200190815260200160002060006101000a81548173ffffffffffffffffffffffffffffffffffffffff021916908373ffffffffffffffffffffffffffffffffffffffff160217905550808273ffffffffffffffffffffffffffffffffffffffff16610e57836106d4565b73ffffffffffffffffffffffffffffffffffffffff167f8c5be1e5ebec7d5bd14f71427d1e84f3dd0314c0f7b2291e5b200ac8c7c3b92560405160405180910390a45050565b6000610ea882610d70565b610ee7576040517f08c379a0000000000000000000000000000000000000000000000000000000008152600401610ede90612588565b60405180910390fd5b6000610ef2836106d4565b90508073ffffffffffffffffffffffffffffffffffffffff168473ffffffffffffffffffffffffffffffffffffffff161480610f6157508373ffffffffffffffffffffffffffffffffffffffff16610f49846104b7565b73ffffffffffffffffffffffffffffffffffffffff16145b80610f725750610f718185610c72565b5b91505092915050565b8273ffffffffffffffffffffffffffffffffffffffff16610f9b826106d4565b73ffffffffffffffffffffffffffffffffffffffff1614610ff1576040517f08c379a0000000000000000000000000000000000000000000000000000000008152600401610fe89061261a565b60405180910390fd5b600073ffffffffffffffffffffffffffffffffffffffff168273ffffffffffffffffffffffffffffffffffffffff161415611061576040517f08c379a0000000000000000000000000000000000000000000000000000000008152600401611058906126ac565b60405180910390fd5b61106c8383836116db565b611077600082610de4565b6001600360008573ffffffffffffffffffffffffffffffffffffffff1673ffffffffffffffffffffffffffffffffffffffff16815260200190815260200160002060008282546110c791906126fb565b925050819055506001600360008473ffffffffffffffffffffffffffffffffffffffff1673ffffffffffffffffffffffffffffffffffffffff168152602001908152602001600020600082825461111e919061272f565b92505081905550816002600083815260200190815260200160002060006101000a81548173ffffffffffffffffffffffffffffffffffffffff021916908373ffffffffffffffffffffffffffffffffffffffff160217905550808273ffffffffffffffffffffffffffffffffffffffff168473ffffffffffffffffffffffffffffffffffffffff167fddf252ad1be2c89b69c2b068fc378daa952ba7f163c4a11628f55a4df523b3ef60405160405180910390a46111dd8383836116e0565b505050565b6001816000016000828254019250508190555050565b600081600001549050919050565b600073ffffffffffffffffffffffffffffffffffffffff168273ffffffffffffffffffffffffffffffffffffffff161415611276576040517f08c379a000000000000000000000000000000000000000000000000000000000815260040161126d906127d1565b60405180910390fd5b61127f81610d70565b156112bf576040517f08c379a00000000000000000000000000000000000000000000000000000000081526004016112b69061283d565b60405180910390fd5b6112cb600083836116db565b6001600360008473ffffffffffffffffffffffffffffffffffffffff1673ffffffffffffffffffffffffffffffffffffffff168152602001908152602001600020600082825461131b919061272f565b92505081905550816002600083815260200190815260200160002060006101000a81548173ffffffffffffffffffffffffffffffffffffffff021916908373ffffffffffffffffffffffffffffffffffffffff160217905550808273ffffffffffffffffffffffffffffffffffffffff16600073ffffffffffffffffffffffffffffffffffffffff167fddf252ad1be2c89b69c2b068fc378daa952ba7f163c4a11628f55a4df523b3ef60405160405180910390a46113dc600083836116e0565b5050565b6113e982610d70565b611428576040517f08c379a000000000000000000000000000000000000000000000000000000000815260040161141f906128cf565b60405180910390fd5b8060066000848152602001908152602001600020908051906020019061144f9291906119f1565b505050565b8173ffffffffffffffffffffffffffffffffffffffff168373ffffffffffffffffffffffffffffffffffffffff1614156114c3576040517f08c379a00000000000000000000000000000000000000000000000000000000081526004016114ba9061293b565b60405180910390fd5b80600560008573ffffffffffffffffffffffffffffffffffffffff1673ffffffffffffffffffffffffffffffffffffffff16815260200190815260200160002060008473ffffffffffffffffffffffffffffffffffffffff1673ffffffffffffffffffffffffffffffffffffffff16815260200190815260200160002060006101000a81548160ff0219169083151502179055508173ffffffffffffffffffffffffffffffffffffffff168373ffffffffffffffffffffffffffffffffffffffff167f17307eab39ab6107e8899845ad3d59bd9653f200f220920489ca2b5937696c31836040516115b49190611b48565b60405180910390a3505050565b6115cc848484610f7b565b6115d8848484846116e5565b611617576040517f08c379a000000000000000000000000000000000000000000000000000000000815260040161160e906129cd565b60405180910390fd5b50505050565b606060405180602001604052806000815250905090565b606061163f82610d70565b61167e576040517f08c379a000000000000000000000000000000000000000000000000000000000815260040161167590612a5f565b60405180910390fd5b600061168861161d565b905060008151116116a857604051806020016040528060008152506116d3565b806116b28461186d565b6040516020016116c39291906124f2565b6040516020818303038152906040525b915050919050565b505050565b505050565b60006117068473ffffffffffffffffffffffffffffffffffffffff166119ce565b15611860578373ffffffffffffffffffffffffffffffffffffffff1663150b7a0261172f610ddc565b8786866040518563ffffffff1660e01b81526004016117519493929190612ad4565b6020604051808303816000875af192505050801561178d57506040513d601f19601f8201168201806040525081019061178a9190612b35565b60015b611810573d80600081146117bd576040519150601f19603f3d011682016040523d82523d6000602084013e6117c2565b606091505b50600081511415611808576040517f08c379a00000000000000000000000000000000000000000000000000000000081526004016117ff906129cd565b60405180910390fd5b805181602001fd5b63150b7a0260e01b7bffffffffffffffffffffffffffffffffffffffffffffffffffffffff1916817bffffffffffffffffffffffffffffffffffffffffffffffffffffffff191614915050611865565b600190505b949350505050565b606060008214156118b5576040518060400160405280600181526020017f300000000000000000000000000000000000000000000000000000000000000081525090506119c9565b600082905060005b600082146118e75780806118d090612b62565b915050600a826118e09190612bda565b91506118bd565b60008167ffffffffffffffff81111561190357611902611e69565b5b6040519080825280601f01601f1916602001820160405280156119355781602001600182028036833780820191505090505b5090505b600085146119c25760018261194e91906126fb565b9150600a8561195d9190612c0b565b6030611969919061272f565b60f81b81838151811061197f5761197e612c3c565b5b60200101907effffffffffffffffffffffffffffffffffffffffffffffffffffffffffffff1916908160001a905350600a856119bb9190612bda565b9450611939565b8093505050505b919050565b6000808273ffffffffffffffffffffffffffffffffffffffff163b119050919050565b8280546119fd90612086565b90600052602060002090601f016020900481019282611a1f5760008555611a66565b82601f10611a3857805160ff1916838001178555611a66565b82800160010185558215611a66579182015b82811115611a65578251825591602001919060010190611a4a565b5b509050611a739190611a77565b5090565b5b80821115611a90576000816000905550600101611a78565b5090565b6000604051905090565b600080fd5b600080fd5b60007fffffffff0000000000000000000000000000000000000000000000000000000082169050919050565b611add81611aa8565b8114611ae857600080fd5b50565b600081359050611afa81611ad4565b92915050565b600060208284031215611b1657611b15611a9e565b5b6000611b2484828501611aeb565b91505092915050565b60008115159050919050565b611b4281611b2d565b82525050565b6000602082019050611b5d6000830184611b39565b92915050565b600081519050919050565b600082825260208201905092915050565b60005b83811015611b9d578082015181840152602081019050611b82565b83811115611bac576000848401525b50505050565b6000601f19601f8301169050919050565b6000611bce82611b63565b611bd88185611b6e565b9350611be8818560208601611b7f565b611bf181611bb2565b840191505092915050565b60006020820190508181036000830152611c168184611bc3565b905092915050565b6000819050919050565b611c3181611c1e565b8114611c3c57600080fd5b50565b600081359050611c4e81611c28565b92915050565b600060208284031215611c6a57611c69611a9e565b5b6000611c7884828501611c3f565b91505092915050565b600073ffffffffffffffffffffffffffffffffffffffff82169050919050565b6000611cac82611c81565b9050919050565b611cbc81611ca1565b82525050565b6000602082019050611cd76000830184611cb3565b92915050565b611ce681611ca1565b8114611cf157600080fd5b50565b600081359050611d0381611cdd565b92915050565b60008060408385031215611d2057611d1f611a9e565b5b6000611d2e85828601611cf4565b9250506020611d3f85828601611c3f565b9150509250929050565b600080600060608486031215611d6257611d61611a9e565b5b6000611d7086828701611cf4565b9350506020611d8186828701611cf4565b9250506040611d9286828701611c3f565b9150509250925092565b600060208284031215611db257611db1611a9e565b5b6000611dc084828501611cf4565b91505092915050565b611dd281611c1e565b82525050565b6000602082019050611ded6000830184611dc9565b92915050565b611dfc81611b2d565b8114611e0757600080fd5b50565b600081359050611e1981611df3565b92915050565b60008060408385031215611e3657611e35611a9e565b5b6000611e4485828601611cf4565b9250506020611e5585828601611e0a565b9150509250929050565b600080fd5b600080fd5b7f4e487b7100000000000000000000000000000000000000000000000000000000600052604160045260246000fd5b611ea182611bb2565b810181811067ffffffffffffffff82111715611ec057611ebf611e69565b5b80604052505050565b6000611ed3611a94565b9050611edf8282611e98565b919050565b600067ffffffffffffffff821115611eff57611efe611e69565b5b611f0882611bb2565b9050602081019050919050565b82818337600083830152505050565b6000611f37611f3284611ee4565b611ec9565b905082815260208101848484011115611f5357611f52611e64565b5b611f5e848285611f15565b509392505050565b600082601f830112611f7b57611f7a611e5f565b5b8135611f8b848260208601611f24565b91505092915050565b60008060008060808587031215611fae57611fad611a9e565b5b6000611fbc87828801611cf4565b9450506020611fcd87828801611cf4565b9350506040611fde87828801611c3f565b925050606085013567ffffffffffffffff811115611fff57611ffe611aa3565b5b61200b87828801611f66565b91505092959194509250565b6000806040838503121561202e5761202d611a9e565b5b600061203c85828601611cf4565b925050602061204d85828601611cf4565b9150509250929050565b7f4e487b7100000000000000000000000000000000000000000000000000000000600052602260045260246000fd5b6000600282049050600182168061209e57607f821691505b602082108114156120b2576120b1612057565b5b50919050565b7f4552433732313a20617070726f76656420717565727920666f72206e6f6e657860008201527f697374656e7420746f6b656e0000000000000000000000000000000000000000602082015250565b6000612114602c83611b6e565b915061211f826120b8565b604082019050919050565b6000602082019050818103600083015261214381612107565b9050919050565b7f4552433732313a20617070726f76616c20746f2063757272656e74206f776e6560008201527f7200000000000000000000000000000000000000000000000000000000000000602082015250565b60006121a6602183611b6e565b91506121b18261214a565b604082019050919050565b600060208201905081810360008301526121d581612199565b9050919050565b7f4552433732313a20617070726f76652063616c6c6572206973206e6f74206f7760008201527f6e6572206e6f7220617070726f76656420666f7220616c6c0000000000000000602082015250565b6000612238603883611b6e565b9150612243826121dc565b604082019050919050565b600060208201905081810360008301526122678161222b565b9050919050565b7f4552433732313a207472616e736665722063616c6c6572206973206e6f74206f60008201527f776e6572206e6f7220617070726f766564000000000000000000000000000000602082015250565b60006122ca603183611b6e565b91506122d58261226e565b604082019050919050565b600060208201905081810360008301526122f9816122bd565b9050919050565b7f4552433732313a206f776e657220717565727920666f72206e6f6e657869737460008201527f656e7420746f6b656e0000000000000000000000000000000000000000000000602082015250565b600061235c602983611b6e565b915061236782612300565b604082019050919050565b6000602082019050818103600083015261238b8161234f565b9050919050565b7f4552433732313a2062616c616e636520717565727920666f7220746865207a6560008201527f726f206164647265737300000000000000000000000000000000000000000000602082015250565b60006123ee602a83611b6e565b91506123f982612392565b604082019050919050565b6000602082019050818103600083015261241d816123e1565b9050919050565b7f45524337323155524953746f726167653a2055524920717565727920666f722060008201527f6e6f6e6578697374656e7420746f6b656e000000000000000000000000000000602082015250565b6000612480603183611b6e565b915061248b82612424565b604082019050919050565b600060208201905081810360008301526124af81612473565b9050919050565b600081905092915050565b60006124cc82611b63565b6124d681856124b6565b93506124e6818560208601611b7f565b80840191505092915050565b60006124fe82856124c1565b915061250a82846124c1565b91508190509392505050565b7f4552433732313a206f70657261746f7220717565727920666f72206e6f6e657860008201527f697374656e7420746f6b656e0000000000000000000000000000000000000000602082015250565b6000612572602c83611b6e565b915061257d82612516565b604082019050919050565b600060208201905081810360008301526125a181612565565b9050919050565b7f4552433732313a207472616e736665722066726f6d20696e636f72726563742060008201527f6f776e6572000000000000000000000000000000000000000000000000000000602082015250565b6000612604602583611b6e565b915061260f826125a8565b604082019050919050565b60006020820190508181036000830152612633816125f7565b9050919050565b7f4552433732313a207472616e7366657220746f20746865207a65726f2061646460008201527f7265737300000000000000000000000000000000000000000000000000000000602082015250565b6000612696602483611b6e565b91506126a18261263a565b604082019050919050565b600060208201905081810360008301526126c581612689565b9050919050565b7f4e487b7100000000000000000000000000000000000000000000000000000000600052601160045260246000fd5b600061270682611c1e565b915061271183611c1e565b925082821015612724576127236126cc565b5b828203905092915050565b600061273a82611c1e565b915061274583611c1e565b9250827fffffffffffffffffffffffffffffffffffffffffffffffffffffffffffffffff0382111561277a576127796126cc565b5b828201905092915050565b7f4552433732313a206d696e7420746f20746865207a65726f2061646472657373600082015250565b60006127bb602083611b6e565b91506127c682612785565b602082019050919050565b600060208201905081810360008301526127ea816127ae565b9050919050565b7f4552433732313a20746f6b656e20616c7265616479206d696e74656400000000600082015250565b6000612827601c83611b6e565b9150612832826127f1565b602082019050919050565b600060208201905081810360008301526128568161281a565b9050919050565b7f45524337323155524953746f726167653a2055524920736574206f66206e6f6e60008201527f6578697374656e7420746f6b656e000000000000000000000000000000000000602082015250565b60006128b9602e83611b6e565b91506128c48261285d565b604082019050919050565b600060208201905081810360008301526128e8816128ac565b9050919050565b7f4552433732313a20617070726f766520746f2063616c6c657200000000000000600082015250565b6000612925601983611b6e565b9150612930826128ef565b602082019050919050565b6000602082019050818103600083015261295481612918565b9050919050565b7f4552433732313a207472616e7366657220746f206e6f6e20455243373231526560008201527f63656976657220696d706c656d656e7465720000000000000000000000000000602082015250565b60006129b7603283611b6e565b91506129c28261295b565b604082019050919050565b600060208201905081810360008301526129e6816129aa565b9050919050565b7f4552433732314d657461646174613a2055524920717565727920666f72206e6f60008201527f6e6578697374656e7420746f6b656e0000000000000000000000000000000000602082015250565b6000612a49602f83611b6e565b9150612a54826129ed565b604082019050919050565b60006020820190508181036000830152612a7881612a3c565b9050919050565b600081519050919050565b600082825260208201905092915050565b6000612aa682612a7f565b612ab08185612a8a565b9350612ac0818560208601611b7f565b612ac981611bb2565b840191505092915050565b6000608082019050612ae96000830187611cb3565b612af66020830186611cb3565b612b036040830185611dc9565b8181036060830152612b158184612a9b565b905095945050505050565b600081519050612b2f81611ad4565b92915050565b600060208284031215612b4b57612b4a611a9e565b5b6000612b5984828501612b20565b91505092915050565b6000612b6d82611c1e565b91507fffffffffffffffffffffffffffffffffffffffffffffffffffffffffffffffff821415612ba057612b9f6126cc565b5b600182019050919050565b7f4e487b7100000000000000000000000000000000000000000000000000000000600052601260045260246000fd5b6000612be582611c1e565b9150612bf083611c1e565b925082612c0057612bff612bab565b5b828204905092915050565b6000612c1682611c1e565b9150612c2183611c1e565b925082612c3157612c30612bab565b5b828206905092915050565b7f4e487b7100000000000000000000000000000000000000000000000000000000600052603260045260246000fdfea2646970667358221220f586122d1eed89d3fd46bdabd0cc054126aaeb33df6defc342784494aee95d3e64736f6c634300080c0033",
  "immutableReferences": {},
  "source": "pragma solidity ^0.8.0;\n\nimport \"@openzeppelin/contracts/token/ERC721/extensions/ERC721URIStorage.sol\";\nimport \"@openzeppelin/contracts/utils/Counters.sol\";\n\ncontract Townhall is ERC721URIStorage {\n    using Counters for Counters.Counter;\n    Counters.Counter private _tokenIds;\n    string tokenuri = \"abc\";\n    address public owner;\n    constructor() ERC721(\"TownHall\", \"TWH\") public {\n        owner = tx.origin;\n    }\n    modifier onlyOwner(){\n            require(msg.sender == owner);\n            _;\n    }\n    function startgame(address starter) onlyOwner public  {\n        _tokenIds.increment();\n\n        uint256 newItemId = _tokenIds.current();\n        _mint(starter, newItemId);\n        _setTokenURI(newItemId, tokenuri);\n\n        \n    }\n     function changeowner(address newowner) onlyOwner public{\n        owner = newowner;\n    }\n}\n",
  "sourcePath": "/home/kali/Documents/RTS_Contract/contracts/Townhall.sol",
  "compiler": {
    "name": "solc",
    "version": "0.8.12+commit.f00d7308.Emscripten.clang"
  },
  "schemaVersion": "3.4.5",
  "updatedAt": "2022-03-26T12:07:46.046Z",
  "devdoc": {
    "kind": "dev",
    "methods": {
      "approve(address,uint256)": {
        "details": "See {IERC721-approve}."
      },
      "balanceOf(address)": {
        "details": "See {IERC721-balanceOf}."
      },
      "getApproved(uint256)": {
        "details": "See {IERC721-getApproved}."
      },
      "isApprovedForAll(address,address)": {
        "details": "See {IERC721-isApprovedForAll}."
      },
      "name()": {
        "details": "See {IERC721Metadata-name}."
      },
      "ownerOf(uint256)": {
        "details": "See {IERC721-ownerOf}."
      },
      "safeTransferFrom(address,address,uint256)": {
        "details": "See {IERC721-safeTransferFrom}."
      },
      "safeTransferFrom(address,address,uint256,bytes)": {
        "details": "See {IERC721-safeTransferFrom}."
      },
      "setApprovalForAll(address,bool)": {
        "details": "See {IERC721-setApprovalForAll}."
      },
      "supportsInterface(bytes4)": {
        "details": "See {IERC165-supportsInterface}."
      },
      "symbol()": {
        "details": "See {IERC721Metadata-symbol}."
      },
      "tokenURI(uint256)": {
        "details": "See {IERC721Metadata-tokenURI}."
      },
      "transferFrom(address,address,uint256)": {
        "details": "See {IERC721-transferFrom}."
      }
    },
    "version": 1
  },
  "userdoc": {
    "kind": "user",
    "methods": {},
    "version": 1
  }
}