{
  "contractName": "Aureus",
  "abi": [
    {
      "inputs": [],
      "stateMutability": "nonpayable",
      "type": "constructor"
    },
    {
      "anonymous": false,
      "inputs": [
        {
          "indexed": true,
          "internalType": "address",
          "name": "owner",
          "type": "address"
        },
        {
          "indexed": true,
          "internalType": "address",
          "name": "spender",
          "type": "address"
        },
        {
          "indexed": false,
          "internalType": "uint256",
          "name": "value",
          "type": "uint256"
        }
      ],
      "name": "Approval",
      "type": "event"
    },
    {
      "anonymous": false,
      "inputs": [
        {
          "indexed": true,
          "internalType": "address",
          "name": "from",
          "type": "address"
        },
        {
          "indexed": true,
          "internalType": "address",
          "name": "to",
          "type": "address"
        },
        {
          "indexed": false,
          "internalType": "uint256",
          "name": "value",
          "type": "uint256"
        }
      ],
      "name": "Transfer",
      "type": "event"
    },
    {
      "inputs": [
        {
          "internalType": "address",
          "name": "owner",
          "type": "address"
        },
        {
          "internalType": "address",
          "name": "spender",
          "type": "address"
        }
      ],
      "name": "allowance",
      "outputs": [
        {
          "internalType": "uint256",
          "name": "",
          "type": "uint256"
        }
      ],
      "stateMutability": "view",
      "type": "function",
      "constant": true
    },
    {
      "inputs": [
        {
          "internalType": "address",
          "name": "spender",
          "type": "address"
        },
        {
          "internalType": "uint256",
          "name": "amount",
          "type": "uint256"
        }
      ],
      "name": "approve",
      "outputs": [
        {
          "internalType": "bool",
          "name": "",
          "type": "bool"
        }
      ],
      "stateMutability": "nonpayable",
      "type": "function"
    },
    {
      "inputs": [
        {
          "internalType": "address",
          "name": "account",
          "type": "address"
        }
      ],
      "name": "balanceOf",
      "outputs": [
        {
          "internalType": "uint256",
          "name": "",
          "type": "uint256"
        }
      ],
      "stateMutability": "view",
      "type": "function",
      "constant": true
    },
    {
      "inputs": [],
      "name": "decimals",
      "outputs": [
        {
          "internalType": "uint8",
          "name": "",
          "type": "uint8"
        }
      ],
      "stateMutability": "view",
      "type": "function",
      "constant": true
    },
    {
      "inputs": [
        {
          "internalType": "address",
          "name": "spender",
          "type": "address"
        },
        {
          "internalType": "uint256",
          "name": "subtractedValue",
          "type": "uint256"
        }
      ],
      "name": "decreaseAllowance",
      "outputs": [
        {
          "internalType": "bool",
          "name": "",
          "type": "bool"
        }
      ],
      "stateMutability": "nonpayable",
      "type": "function"
    },
    {
      "inputs": [
        {
          "internalType": "address",
          "name": "spender",
          "type": "address"
        },
        {
          "internalType": "uint256",
          "name": "addedValue",
          "type": "uint256"
        }
      ],
      "name": "increaseAllowance",
      "outputs": [
        {
          "internalType": "bool",
          "name": "",
          "type": "bool"
        }
      ],
      "stateMutability": "nonpayable",
      "type": "function"
    },
    {
      "inputs": [],
      "name": "name",
      "outputs": [
        {
          "internalType": "string",
          "name": "",
          "type": "string"
        }
      ],
      "stateMutability": "view",
      "type": "function",
      "constant": true
    },
    {
      "inputs": [],
      "name": "owner",
      "outputs": [
        {
          "internalType": "address",
          "name": "",
          "type": "address"
        }
      ],
      "stateMutability": "view",
      "type": "function",
      "constant": true
    },
    {
      "inputs": [],
      "name": "symbol",
      "outputs": [
        {
          "internalType": "string",
          "name": "",
          "type": "string"
        }
      ],
      "stateMutability": "view",
      "type": "function",
      "constant": true
    },
    {
      "inputs": [],
      "name": "totalSupply",
      "outputs": [
        {
          "internalType": "uint256",
          "name": "",
          "type": "uint256"
        }
      ],
      "stateMutability": "view",
      "type": "function",
      "constant": true
    },
    {
      "inputs": [
        {
          "internalType": "address",
          "name": "to",
          "type": "address"
        },
        {
          "internalType": "uint256",
          "name": "amount",
          "type": "uint256"
        }
      ],
      "name": "transfer",
      "outputs": [
        {
          "internalType": "bool",
          "name": "",
          "type": "bool"
        }
      ],
      "stateMutability": "nonpayable",
      "type": "function"
    },
    {
      "inputs": [
        {
          "internalType": "address",
          "name": "from",
          "type": "address"
        },
        {
          "internalType": "address",
          "name": "to",
          "type": "address"
        },
        {
          "internalType": "uint256",
          "name": "amount",
          "type": "uint256"
        }
      ],
      "name": "transferFrom",
      "outputs": [
        {
          "internalType": "bool",
          "name": "",
          "type": "bool"
        }
      ],
      "stateMutability": "nonpayable",
      "type": "function"
    },
    {
      "inputs": [
        {
          "internalType": "uint256",
          "name": "amount",
          "type": "uint256"
        },
        {
          "internalType": "address",
          "name": "to",
          "type": "address"
        }
      ],
      "name": "mintnew",
      "outputs": [],
      "stateMutability": "nonpayable",
      "type": "function"
    },
    {
      "inputs": [
        {
          "internalType": "address",
          "name": "newowner",
          "type": "address"
        }
      ],
      "name": "changeowner",
      "outputs": [],
      "stateMutability": "nonpayable",
      "type": "function"
    },
    {
      "inputs": [
        {
          "internalType": "address",
          "name": "owner",
          "type": "address"
        },
        {
          "internalType": "uint256",
          "name": "amount",
          "type": "uint256"
        }
      ],
      "name": "subtract",
      "outputs": [],
      "stateMutability": "nonpayable",
      "type": "function"
    }
  ],
  "bytecode": "0x60806040523480156200001157600080fd5b506040518060400160405280600681526020017f41757265757300000000000000000000000000000000000000000000000000008152506040518060400160405280600381526020017f4152530000000000000000000000000000000000000000000000000000000000815250816003908051906020019062000096929190620000f9565b508060049080519060200190620000af929190620000f9565b50505032600560006101000a81548173ffffffffffffffffffffffffffffffffffffffff021916908373ffffffffffffffffffffffffffffffffffffffff1602179055506200020e565b8280546200010790620001d8565b90600052602060002090601f0160209004810192826200012b576000855562000177565b82601f106200014657805160ff191683800117855562000177565b8280016001018555821562000177579182015b828111156200017657825182559160200191906001019062000159565b5b5090506200018691906200018a565b5090565b5b80821115620001a55760008160009055506001016200018b565b5090565b7f4e487b7100000000000000000000000000000000000000000000000000000000600052602260045260246000fd5b60006002820490506001821680620001f157607f821691505b60208210811415620002085762000207620001a9565b5b50919050565b611b05806200021e6000396000f3fe608060405234801561001057600080fd5b50600436106100f55760003560e01c806368c6b11a11610097578063a457c2d711610066578063a457c2d714610288578063a9059cbb146102b8578063dd62ed3e146102e8578063eb4a022314610318576100f5565b806368c6b11a1461020057806370a082311461021c5780638da5cb5b1461024c57806395d89b411461026a576100f5565b806323b872dd116100d357806323b872dd14610166578063313ce5671461019657806339509351146101b4578063662e4ee4146101e4576100f5565b806306fdde03146100fa578063095ea7b31461011857806318160ddd14610148575b600080fd5b610102610334565b60405161010f9190611191565b60405180910390f35b610132600480360381019061012d919061124c565b6103c6565b60405161013f91906112a7565b60405180910390f35b6101506103e9565b60405161015d91906112d1565b60405180910390f35b610180600480360381019061017b91906112ec565b6103f3565b60405161018d91906112a7565b60405180910390f35b61019e610422565b6040516101ab919061135b565b60405180910390f35b6101ce60048036038101906101c9919061124c565b61042b565b6040516101db91906112a7565b60405180910390f35b6101fe60048036038101906101f99190611376565b6104d5565b005b61021a6004803603810190610215919061124c565b610573565b005b61023660048036038101906102319190611376565b6105db565b60405161024391906112d1565b60405180910390f35b610254610623565b60405161026191906113b2565b60405180910390f35b610272610649565b60405161027f9190611191565b60405180910390f35b6102a2600480360381019061029d919061124c565b6106db565b6040516102af91906112a7565b60405180910390f35b6102d260048036038101906102cd919061124c565b6107c5565b6040516102df91906112a7565b60405180910390f35b61030260048036038101906102fd91906113cd565b6107e8565b60405161030f91906112d1565b60405180910390f35b610332600480360381019061032d919061140d565b61086f565b005b6060600380546103439061147c565b80601f016020809104026020016040519081016040528092919081815260200182805461036f9061147c565b80156103bc5780601f10610391576101008083540402835291602001916103bc565b820191906000526020600020905b81548152906001019060200180831161039f57829003601f168201915b5050505050905090565b6000806103d16108d7565b90506103de8185856108df565b600191505092915050565b6000600254905090565b6000806103fe6108d7565b905061040b858285610aaa565b610416858585610b36565b60019150509392505050565b60006012905090565b6000806104366108d7565b90506104ca818585600160008673ffffffffffffffffffffffffffffffffffffffff1673ffffffffffffffffffffffffffffffffffffffff16815260200190815260200160002060008973ffffffffffffffffffffffffffffffffffffffff1673ffffffffffffffffffffffffffffffffffffffff168152602001908152602001600020546104c591906114dd565b6108df565b600191505092915050565b600560009054906101000a900473ffffffffffffffffffffffffffffffffffffffff1673ffffffffffffffffffffffffffffffffffffffff163373ffffffffffffffffffffffffffffffffffffffff161461052f57600080fd5b80600560006101000a81548173ffffffffffffffffffffffffffffffffffffffff021916908373ffffffffffffffffffffffffffffffffffffffff16021790555050565b600560009054906101000a900473ffffffffffffffffffffffffffffffffffffffff1673ffffffffffffffffffffffffffffffffffffffff163373ffffffffffffffffffffffffffffffffffffffff16146105cd57600080fd5b6105d78282610db7565b5050565b60008060008373ffffffffffffffffffffffffffffffffffffffff1673ffffffffffffffffffffffffffffffffffffffff168152602001908152602001600020549050919050565b600560009054906101000a900473ffffffffffffffffffffffffffffffffffffffff1681565b6060600480546106589061147c565b80601f01602080910402602001604051908101604052809291908181526020018280546106849061147c565b80156106d15780601f106106a6576101008083540402835291602001916106d1565b820191906000526020600020905b8154815290600101906020018083116106b457829003601f168201915b5050505050905090565b6000806106e66108d7565b90506000600160008373ffffffffffffffffffffffffffffffffffffffff1673ffffffffffffffffffffffffffffffffffffffff16815260200190815260200160002060008673ffffffffffffffffffffffffffffffffffffffff1673ffffffffffffffffffffffffffffffffffffffff168152602001908152602001600020549050838110156107ac576040517f08c379a00000000000000000000000000000000000000000000000000000000081526004016107a3906115a5565b60405180910390fd5b6107b982868684036108df565b60019250505092915050565b6000806107d06108d7565b90506107dd818585610b36565b600191505092915050565b6000600160008473ffffffffffffffffffffffffffffffffffffffff1673ffffffffffffffffffffffffffffffffffffffff16815260200190815260200160002060008373ffffffffffffffffffffffffffffffffffffffff1673ffffffffffffffffffffffffffffffffffffffff16815260200190815260200160002054905092915050565b600560009054906101000a900473ffffffffffffffffffffffffffffffffffffffff1673ffffffffffffffffffffffffffffffffffffffff163373ffffffffffffffffffffffffffffffffffffffff16146108c957600080fd5b6108d38183610f8e565b5050565b600033905090565b600073ffffffffffffffffffffffffffffffffffffffff168373ffffffffffffffffffffffffffffffffffffffff16141561094f576040517f08c379a000000000000000000000000000000000000000000000000000000000815260040161094690611637565b60405180910390fd5b600073ffffffffffffffffffffffffffffffffffffffff168273ffffffffffffffffffffffffffffffffffffffff1614156109bf576040517f08c379a00000000000000000000000000000000000000000000000000000000081526004016109b6906116c9565b60405180910390fd5b80600160008573ffffffffffffffffffffffffffffffffffffffff1673ffffffffffffffffffffffffffffffffffffffff16815260200190815260200160002060008473ffffffffffffffffffffffffffffffffffffffff1673ffffffffffffffffffffffffffffffffffffffff168152602001908152602001600020819055508173ffffffffffffffffffffffffffffffffffffffff168373ffffffffffffffffffffffffffffffffffffffff167f8c5be1e5ebec7d5bd14f71427d1e84f3dd0314c0f7b2291e5b200ac8c7c3b92583604051610a9d91906112d1565b60405180910390a3505050565b6000610ab684846107e8565b90507fffffffffffffffffffffffffffffffffffffffffffffffffffffffffffffffff8114610b305781811015610b22576040517f08c379a0000000000000000000000000000000000000000000000000000000008152600401610b1990611735565b60405180910390fd5b610b2f84848484036108df565b5b50505050565b600073ffffffffffffffffffffffffffffffffffffffff168373ffffffffffffffffffffffffffffffffffffffff161415610ba6576040517f08c379a0000000000000000000000000000000000000000000000000000000008152600401610b9d906117c7565b60405180910390fd5b600073ffffffffffffffffffffffffffffffffffffffff168273ffffffffffffffffffffffffffffffffffffffff161415610c16576040517f08c379a0000000000000000000000000000000000000000000000000000000008152600401610c0d90611859565b60405180910390fd5b610c218383836110ee565b60008060008573ffffffffffffffffffffffffffffffffffffffff1673ffffffffffffffffffffffffffffffffffffffff16815260200190815260200160002054905081811015610ca7576040517f08c379a0000000000000000000000000000000000000000000000000000000008152600401610c9e906118eb565b60405180910390fd5b8181036000808673ffffffffffffffffffffffffffffffffffffffff1673ffffffffffffffffffffffffffffffffffffffff16815260200190815260200160002081905550816000808573ffffffffffffffffffffffffffffffffffffffff1673ffffffffffffffffffffffffffffffffffffffff1681526020019081526020016000206000828254610d3a91906114dd565b925050819055508273ffffffffffffffffffffffffffffffffffffffff168473ffffffffffffffffffffffffffffffffffffffff167fddf252ad1be2c89b69c2b068fc378daa952ba7f163c4a11628f55a4df523b3ef84604051610d9e91906112d1565b60405180910390a3610db18484846110f3565b50505050565b600073ffffffffffffffffffffffffffffffffffffffff168273ffffffffffffffffffffffffffffffffffffffff161415610e27576040517f08c379a0000000000000000000000000000000000000000000000000000000008152600401610e1e9061197d565b60405180910390fd5b610e33826000836110ee565b60008060008473ffffffffffffffffffffffffffffffffffffffff1673ffffffffffffffffffffffffffffffffffffffff16815260200190815260200160002054905081811015610eb9576040517f08c379a0000000000000000000000000000000000000000000000000000000008152600401610eb090611a0f565b60405180910390fd5b8181036000808573ffffffffffffffffffffffffffffffffffffffff1673ffffffffffffffffffffffffffffffffffffffff168152602001908152602001600020819055508160026000828254610f109190611a2f565b92505081905550600073ffffffffffffffffffffffffffffffffffffffff168373ffffffffffffffffffffffffffffffffffffffff167fddf252ad1be2c89b69c2b068fc378daa952ba7f163c4a11628f55a4df523b3ef84604051610f7591906112d1565b60405180910390a3610f89836000846110f3565b505050565b600073ffffffffffffffffffffffffffffffffffffffff168273ffffffffffffffffffffffffffffffffffffffff161415610ffe576040517f08c379a0000000000000000000000000000000000000000000000000000000008152600401610ff590611aaf565b60405180910390fd5b61100a600083836110ee565b806002600082825461101c91906114dd565b92505081905550806000808473ffffffffffffffffffffffffffffffffffffffff1673ffffffffffffffffffffffffffffffffffffffff168152602001908152602001600020600082825461107191906114dd565b925050819055508173ffffffffffffffffffffffffffffffffffffffff16600073ffffffffffffffffffffffffffffffffffffffff167fddf252ad1be2c89b69c2b068fc378daa952ba7f163c4a11628f55a4df523b3ef836040516110d691906112d1565b60405180910390a36110ea600083836110f3565b5050565b505050565b505050565b600081519050919050565b600082825260208201905092915050565b60005b83811015611132578082015181840152602081019050611117565b83811115611141576000848401525b50505050565b6000601f19601f8301169050919050565b6000611163826110f8565b61116d8185611103565b935061117d818560208601611114565b61118681611147565b840191505092915050565b600060208201905081810360008301526111ab8184611158565b905092915050565b600080fd5b600073ffffffffffffffffffffffffffffffffffffffff82169050919050565b60006111e3826111b8565b9050919050565b6111f3816111d8565b81146111fe57600080fd5b50565b600081359050611210816111ea565b92915050565b6000819050919050565b61122981611216565b811461123457600080fd5b50565b60008135905061124681611220565b92915050565b60008060408385031215611263576112626111b3565b5b600061127185828601611201565b925050602061128285828601611237565b9150509250929050565b60008115159050919050565b6112a18161128c565b82525050565b60006020820190506112bc6000830184611298565b92915050565b6112cb81611216565b82525050565b60006020820190506112e660008301846112c2565b92915050565b600080600060608486031215611305576113046111b3565b5b600061131386828701611201565b935050602061132486828701611201565b925050604061133586828701611237565b9150509250925092565b600060ff82169050919050565b6113558161133f565b82525050565b6000602082019050611370600083018461134c565b92915050565b60006020828403121561138c5761138b6111b3565b5b600061139a84828501611201565b91505092915050565b6113ac816111d8565b82525050565b60006020820190506113c760008301846113a3565b92915050565b600080604083850312156113e4576113e36111b3565b5b60006113f285828601611201565b925050602061140385828601611201565b9150509250929050565b60008060408385031215611424576114236111b3565b5b600061143285828601611237565b925050602061144385828601611201565b9150509250929050565b7f4e487b7100000000000000000000000000000000000000000000000000000000600052602260045260246000fd5b6000600282049050600182168061149457607f821691505b602082108114156114a8576114a761144d565b5b50919050565b7f4e487b7100000000000000000000000000000000000000000000000000000000600052601160045260246000fd5b60006114e882611216565b91506114f383611216565b9250827fffffffffffffffffffffffffffffffffffffffffffffffffffffffffffffffff03821115611528576115276114ae565b5b828201905092915050565b7f45524332303a2064656372656173656420616c6c6f77616e63652062656c6f7760008201527f207a65726f000000000000000000000000000000000000000000000000000000602082015250565b600061158f602583611103565b915061159a82611533565b604082019050919050565b600060208201905081810360008301526115be81611582565b9050919050565b7f45524332303a20617070726f76652066726f6d20746865207a65726f2061646460008201527f7265737300000000000000000000000000000000000000000000000000000000602082015250565b6000611621602483611103565b915061162c826115c5565b604082019050919050565b6000602082019050818103600083015261165081611614565b9050919050565b7f45524332303a20617070726f766520746f20746865207a65726f20616464726560008201527f7373000000000000000000000000000000000000000000000000000000000000602082015250565b60006116b3602283611103565b91506116be82611657565b604082019050919050565b600060208201905081810360008301526116e2816116a6565b9050919050565b7f45524332303a20696e73756666696369656e7420616c6c6f77616e6365000000600082015250565b600061171f601d83611103565b915061172a826116e9565b602082019050919050565b6000602082019050818103600083015261174e81611712565b9050919050565b7f45524332303a207472616e736665722066726f6d20746865207a65726f20616460008201527f6472657373000000000000000000000000000000000000000000000000000000602082015250565b60006117b1602583611103565b91506117bc82611755565b604082019050919050565b600060208201905081810360008301526117e0816117a4565b9050919050565b7f45524332303a207472616e7366657220746f20746865207a65726f206164647260008201527f6573730000000000000000000000000000000000000000000000000000000000602082015250565b6000611843602383611103565b915061184e826117e7565b604082019050919050565b6000602082019050818103600083015261187281611836565b9050919050565b7f45524332303a207472616e7366657220616d6f756e742065786365656473206260008201527f616c616e63650000000000000000000000000000000000000000000000000000602082015250565b60006118d5602683611103565b91506118e082611879565b604082019050919050565b60006020820190508181036000830152611904816118c8565b9050919050565b7f45524332303a206275726e2066726f6d20746865207a65726f2061646472657360008201527f7300000000000000000000000000000000000000000000000000000000000000602082015250565b6000611967602183611103565b91506119728261190b565b604082019050919050565b600060208201905081810360008301526119968161195a565b9050919050565b7f45524332303a206275726e20616d6f756e7420657863656564732062616c616e60008201527f6365000000000000000000000000000000000000000000000000000000000000602082015250565b60006119f9602283611103565b9150611a048261199d565b604082019050919050565b60006020820190508181036000830152611a28816119ec565b9050919050565b6000611a3a82611216565b9150611a4583611216565b925082821015611a5857611a576114ae565b5b828203905092915050565b7f45524332303a206d696e7420746f20746865207a65726f206164647265737300600082015250565b6000611a99601f83611103565b9150611aa482611a63565b602082019050919050565b60006020820190508181036000830152611ac881611a8c565b905091905056fea264697066735822122057cab97da2d855dc6df8901a01248bc48caf1e74549c435a889604d501209a7464736f6c634300080c0033",
  "immutableReferences": {},
  "source": "pragma solidity ^0.8.0;\n\nimport \"@openzeppelin/contracts/token/ERC20/ERC20.sol\";\n\ncontract Aureus is ERC20 {\n       address public  owner;\n      modifier onlyOwner(){\n            require(msg.sender == owner);\n            _;\n    }\n\n    constructor() ERC20(\"Aureus\", \"ARS\") {\n        owner=tx.origin;\n    }\n    \n    function mintnew(uint256 amount,address to) onlyOwner external{\n          _mint(to, amount);\n    }\n\n    function changeowner(address newowner) onlyOwner public{\n        owner = newowner;\n    }\n\n    function subtract(address owner,uint256 amount) onlyOwner external{\n        _burn(owner,amount);\n    }\n\n}\n",
  "sourcePath": "/home/kali/Documents/RTS_Contract/contracts/Aureus.sol",
  "compiler": {
    "name": "solc",
    "version": "0.8.12+commit.f00d7308.Emscripten.clang"
  },
  "schemaVersion": "3.4.5",
  "updatedAt": "2022-04-21T04:16:28.085Z",
  "networkType": "ethereum",
  "devdoc": {
    "kind": "dev",
    "methods": {
      "allowance(address,address)": {
        "details": "See {IERC20-allowance}."
      },
      "approve(address,uint256)": {
        "details": "See {IERC20-approve}. NOTE: If `amount` is the maximum `uint256`, the allowance is not updated on `transferFrom`. This is semantically equivalent to an infinite approval. Requirements: - `spender` cannot be the zero address."
      },
      "balanceOf(address)": {
        "details": "See {IERC20-balanceOf}."
      },
      "decimals()": {
        "details": "Returns the number of decimals used to get its user representation. For example, if `decimals` equals `2`, a balance of `505` tokens should be displayed to a user as `5.05` (`505 / 10 ** 2`). Tokens usually opt for a value of 18, imitating the relationship between Ether and Wei. This is the value {ERC20} uses, unless this function is overridden; NOTE: This information is only used for _display_ purposes: it in no way affects any of the arithmetic of the contract, including {IERC20-balanceOf} and {IERC20-transfer}."
      },
      "decreaseAllowance(address,uint256)": {
        "details": "Atomically decreases the allowance granted to `spender` by the caller. This is an alternative to {approve} that can be used as a mitigation for problems described in {IERC20-approve}. Emits an {Approval} event indicating the updated allowance. Requirements: - `spender` cannot be the zero address. - `spender` must have allowance for the caller of at least `subtractedValue`."
      },
      "increaseAllowance(address,uint256)": {
        "details": "Atomically increases the allowance granted to `spender` by the caller. This is an alternative to {approve} that can be used as a mitigation for problems described in {IERC20-approve}. Emits an {Approval} event indicating the updated allowance. Requirements: - `spender` cannot be the zero address."
      },
      "name()": {
        "details": "Returns the name of the token."
      },
      "symbol()": {
        "details": "Returns the symbol of the token, usually a shorter version of the name."
      },
      "totalSupply()": {
        "details": "See {IERC20-totalSupply}."
      },
      "transfer(address,uint256)": {
        "details": "See {IERC20-transfer}. Requirements: - `to` cannot be the zero address. - the caller must have a balance of at least `amount`."
      },
      "transferFrom(address,address,uint256)": {
        "details": "See {IERC20-transferFrom}. Emits an {Approval} event indicating the updated allowance. This is not required by the EIP. See the note at the beginning of {ERC20}. NOTE: Does not update the allowance if the current allowance is the maximum `uint256`. Requirements: - `from` and `to` cannot be the zero address. - `from` must have a balance of at least `amount`. - the caller must have allowance for ``from``'s tokens of at least `amount`."
      }
    },
    "version": 1
  },
  "userdoc": {
    "kind": "user",
    "methods": {},
    "version": 1
  }
}