{
  "contractName": "GameItems",
  "abi": [
    {
      "inputs": [],
      "stateMutability": "nonpayable",
      "type": "constructor"
    },
    {
      "anonymous": false,
      "inputs": [
        {
          "indexed": true,
          "internalType": "address",
          "name": "account",
          "type": "address"
        },
        {
          "indexed": true,
          "internalType": "address",
          "name": "operator",
          "type": "address"
        },
        {
          "indexed": false,
          "internalType": "bool",
          "name": "approved",
          "type": "bool"
        }
      ],
      "name": "ApprovalForAll",
      "type": "event"
    },
    {
      "anonymous": false,
      "inputs": [
        {
          "indexed": true,
          "internalType": "address",
          "name": "operator",
          "type": "address"
        },
        {
          "indexed": true,
          "internalType": "address",
          "name": "from",
          "type": "address"
        },
        {
          "indexed": true,
          "internalType": "address",
          "name": "to",
          "type": "address"
        },
        {
          "indexed": false,
          "internalType": "uint256[]",
          "name": "ids",
          "type": "uint256[]"
        },
        {
          "indexed": false,
          "internalType": "uint256[]",
          "name": "values",
          "type": "uint256[]"
        }
      ],
      "name": "TransferBatch",
      "type": "event"
    },
    {
      "anonymous": false,
      "inputs": [
        {
          "indexed": true,
          "internalType": "address",
          "name": "operator",
          "type": "address"
        },
        {
          "indexed": true,
          "internalType": "address",
          "name": "from",
          "type": "address"
        },
        {
          "indexed": true,
          "internalType": "address",
          "name": "to",
          "type": "address"
        },
        {
          "indexed": false,
          "internalType": "uint256",
          "name": "id",
          "type": "uint256"
        },
        {
          "indexed": false,
          "internalType": "uint256",
          "name": "value",
          "type": "uint256"
        }
      ],
      "name": "TransferSingle",
      "type": "event"
    },
    {
      "anonymous": false,
      "inputs": [
        {
          "indexed": false,
          "internalType": "string",
          "name": "value",
          "type": "string"
        },
        {
          "indexed": true,
          "internalType": "uint256",
          "name": "id",
          "type": "uint256"
        }
      ],
      "name": "URI",
      "type": "event"
    },
    {
      "inputs": [
        {
          "internalType": "address",
          "name": "account",
          "type": "address"
        },
        {
          "internalType": "uint256",
          "name": "id",
          "type": "uint256"
        }
      ],
      "name": "balanceOf",
      "outputs": [
        {
          "internalType": "uint256",
          "name": "",
          "type": "uint256"
        }
      ],
      "stateMutability": "view",
      "type": "function"
    },
    {
      "inputs": [
        {
          "internalType": "address[]",
          "name": "accounts",
          "type": "address[]"
        },
        {
          "internalType": "uint256[]",
          "name": "ids",
          "type": "uint256[]"
        }
      ],
      "name": "balanceOfBatch",
      "outputs": [
        {
          "internalType": "uint256[]",
          "name": "",
          "type": "uint256[]"
        }
      ],
      "stateMutability": "view",
      "type": "function"
    },
    {
      "inputs": [],
      "name": "currentcount",
      "outputs": [
        {
          "internalType": "uint256",
          "name": "",
          "type": "uint256"
        }
      ],
      "stateMutability": "view",
      "type": "function"
    },
    {
      "inputs": [
        {
          "internalType": "address",
          "name": "account",
          "type": "address"
        },
        {
          "internalType": "address",
          "name": "operator",
          "type": "address"
        }
      ],
      "name": "isApprovedForAll",
      "outputs": [
        {
          "internalType": "bool",
          "name": "",
          "type": "bool"
        }
      ],
      "stateMutability": "view",
      "type": "function"
    },
    {
      "inputs": [],
      "name": "owner",
      "outputs": [
        {
          "internalType": "address",
          "name": "",
          "type": "address"
        }
      ],
      "stateMutability": "view",
      "type": "function"
    },
    {
      "inputs": [
        {
          "internalType": "address",
          "name": "from",
          "type": "address"
        },
        {
          "internalType": "address",
          "name": "to",
          "type": "address"
        },
        {
          "internalType": "uint256[]",
          "name": "ids",
          "type": "uint256[]"
        },
        {
          "internalType": "uint256[]",
          "name": "amounts",
          "type": "uint256[]"
        },
        {
          "internalType": "bytes",
          "name": "data",
          "type": "bytes"
        }
      ],
      "name": "safeBatchTransferFrom",
      "outputs": [],
      "stateMutability": "nonpayable",
      "type": "function"
    },
    {
      "inputs": [
        {
          "internalType": "address",
          "name": "from",
          "type": "address"
        },
        {
          "internalType": "address",
          "name": "to",
          "type": "address"
        },
        {
          "internalType": "uint256",
          "name": "id",
          "type": "uint256"
        },
        {
          "internalType": "uint256",
          "name": "amount",
          "type": "uint256"
        },
        {
          "internalType": "bytes",
          "name": "data",
          "type": "bytes"
        }
      ],
      "name": "safeTransferFrom",
      "outputs": [],
      "stateMutability": "nonpayable",
      "type": "function"
    },
    {
      "inputs": [
        {
          "internalType": "address",
          "name": "operator",
          "type": "address"
        },
        {
          "internalType": "bool",
          "name": "approved",
          "type": "bool"
        }
      ],
      "name": "setApprovalForAll",
      "outputs": [],
      "stateMutability": "nonpayable",
      "type": "function"
    },
    {
      "inputs": [
        {
          "internalType": "bytes4",
          "name": "interfaceId",
          "type": "bytes4"
        }
      ],
      "name": "supportsInterface",
      "outputs": [
        {
          "internalType": "bool",
          "name": "",
          "type": "bool"
        }
      ],
      "stateMutability": "view",
      "type": "function"
    },
    {
      "inputs": [
        {
          "internalType": "uint256",
          "name": "",
          "type": "uint256"
        }
      ],
      "name": "uri",
      "outputs": [
        {
          "internalType": "string",
          "name": "",
          "type": "string"
        }
      ],
      "stateMutability": "view",
      "type": "function"
    },
    {
      "inputs": [
        {
          "internalType": "string",
          "name": "assetname",
          "type": "string"
        },
        {
          "internalType": "uint256",
          "name": "price",
          "type": "uint256"
        }
      ],
      "name": "addAsset",
      "outputs": [],
      "stateMutability": "nonpayable",
      "type": "function"
    },
    {
      "inputs": [
        {
          "internalType": "uint256",
          "name": "id",
          "type": "uint256"
        },
        {
          "internalType": "uint256",
          "name": "amount",
          "type": "uint256"
        }
      ],
      "name": "mintAsset",
      "outputs": [],
      "stateMutability": "payable",
      "type": "function"
    },
    {
      "inputs": [],
      "name": "withdraw",
      "outputs": [],
      "stateMutability": "payable",
      "type": "function"
    }
  ],
  "bytecode": "0x608060405260006003553480156200001657600080fd5b5060405180606001604052806027815260200162002f436027913962000042816200008a60201b60201c565b5032600560006101000a81548173ffffffffffffffffffffffffffffffffffffffff021916908373ffffffffffffffffffffffffffffffffffffffff160217905550620001bb565b8060029080519060200190620000a2929190620000a6565b5050565b828054620000b49062000185565b90600052602060002090601f016020900481019282620000d8576000855562000124565b82601f10620000f357805160ff191683800117855562000124565b8280016001018555821562000124579182015b828111156200012357825182559160200191906001019062000106565b5b50905062000133919062000137565b5090565b5b808211156200015257600081600090555060010162000138565b5090565b7f4e487b7100000000000000000000000000000000000000000000000000000000600052602260045260246000fd5b600060028204905060018216806200019e57607f821691505b60208210811415620001b557620001b462000156565b5b50919050565b612d7880620001cb6000396000f3fe6080604052600436106100c15760003560e01c80634e1273f41161007f578063b88dab3211610059578063b88dab321461026a578063e985e9c514610286578063f242432a146102c3578063fc09b233146102ec576100c1565b80634e1273f4146101d95780638da5cb5b14610216578063a22cb46514610241576100c1565b8062fdd58e146100c657806301ffc9a7146101035780630e89341c146101405780631bc7ffe91461017d5780632eb2c2d6146101a65780633ccfd60b146101cf575b600080fd5b3480156100d257600080fd5b506100ed60048036038101906100e89190611928565b610317565b6040516100fa9190611977565b60405180910390f35b34801561010f57600080fd5b5061012a600480360381019061012591906119ea565b6103e0565b6040516101379190611a32565b60405180910390f35b34801561014c57600080fd5b5061016760048036038101906101629190611a4d565b6104c2565b6040516101749190611b13565b60405180910390f35b34801561018957600080fd5b506101a4600480360381019061019f9190611c6a565b610556565b005b3480156101b257600080fd5b506101cd60048036038101906101c89190611e2f565b610634565b005b6101d76106d5565b005b3480156101e557600080fd5b5061020060048036038101906101fb9190611fc1565b6107a0565b60405161020d91906120f7565b60405180910390f35b34801561022257600080fd5b5061022b6108b9565b6040516102389190612128565b60405180910390f35b34801561024d57600080fd5b506102686004803603810190610263919061216f565b6108df565b005b610284600480360381019061027f91906121af565b6108f5565b005b34801561029257600080fd5b506102ad60048036038101906102a891906121ef565b610942565b6040516102ba9190611a32565b60405180910390f35b3480156102cf57600080fd5b506102ea60048036038101906102e5919061222f565b6109d6565b005b3480156102f857600080fd5b50610301610a77565b60405161030e9190611977565b60405180910390f35b60008073ffffffffffffffffffffffffffffffffffffffff168373ffffffffffffffffffffffffffffffffffffffff161415610388576040517f08c379a000000000000000000000000000000000000000000000000000000000815260040161037f90612338565b60405180910390fd5b60008083815260200190815260200160002060008473ffffffffffffffffffffffffffffffffffffffff1673ffffffffffffffffffffffffffffffffffffffff16815260200190815260200160002054905092915050565b60007fd9b67a26000000000000000000000000000000000000000000000000000000007bffffffffffffffffffffffffffffffffffffffffffffffffffffffff1916827bffffffffffffffffffffffffffffffffffffffffffffffffffffffff191614806104ab57507f0e89341c000000000000000000000000000000000000000000000000000000007bffffffffffffffffffffffffffffffffffffffffffffffffffffffff1916827bffffffffffffffffffffffffffffffffffffffffffffffffffffffff1916145b806104bb57506104ba82610a7d565b5b9050919050565b6060600280546104d190612387565b80601f01602080910402602001604051908101604052809291908181526020018280546104fd90612387565b801561054a5780601f1061051f5761010080835404028352916020019161054a565b820191906000526020600020905b81548152906001019060200180831161052d57829003601f168201915b50505050509050919050565b600560009054906101000a900473ffffffffffffffffffffffffffffffffffffffff1673ffffffffffffffffffffffffffffffffffffffff163373ffffffffffffffffffffffffffffffffffffffff16146105b057600080fd5b6000604051806060016040528084815260200183815260200160035481525090508060046000600360008154809291906105e9906123e8565b91905055815260200190815260200160002060008201518160000190805190602001906106179291906117dd565b506020820151816001015560408201518160020155905050505050565b61063c610ae7565b73ffffffffffffffffffffffffffffffffffffffff168573ffffffffffffffffffffffffffffffffffffffff16148061068257506106818561067c610ae7565b610942565b5b6106c1576040517f08c379a00000000000000000000000000000000000000000000000000000000081526004016106b8906124a3565b60405180910390fd5b6106ce8585858585610aef565b5050505050565b600560009054906101000a900473ffffffffffffffffffffffffffffffffffffffff1673ffffffffffffffffffffffffffffffffffffffff163373ffffffffffffffffffffffffffffffffffffffff161461072f57600080fd5b6000600560009054906101000a900473ffffffffffffffffffffffffffffffffffffffff1690508073ffffffffffffffffffffffffffffffffffffffff166108fc479081150290604051600060405180830381858888f1935050505015801561079c573d6000803e3d6000fd5b5050565b606081518351146107e6576040517f08c379a00000000000000000000000000000000000000000000000000000000081526004016107dd90612535565b60405180910390fd5b6000835167ffffffffffffffff81111561080357610802611b3f565b5b6040519080825280602002602001820160405280156108315781602001602082028036833780820191505090505b50905060005b84518110156108ae5761087e85828151811061085657610855612555565b5b602002602001015185838151811061087157610870612555565b5b6020026020010151610317565b82828151811061089157610890612555565b5b602002602001018181525050806108a7906123e8565b9050610837565b508091505092915050565b600560009054906101000a900473ffffffffffffffffffffffffffffffffffffffff1681565b6108f16108ea610ae7565b8383610e03565b5050565b8060046000848152602001908152602001600020600101546109179190612584565b34101561092357600080fd5b61093e33838360405180602001604052806000815250610f70565b5050565b6000600160008473ffffffffffffffffffffffffffffffffffffffff1673ffffffffffffffffffffffffffffffffffffffff16815260200190815260200160002060008373ffffffffffffffffffffffffffffffffffffffff1673ffffffffffffffffffffffffffffffffffffffff16815260200190815260200160002060009054906101000a900460ff16905092915050565b6109de610ae7565b73ffffffffffffffffffffffffffffffffffffffff168573ffffffffffffffffffffffffffffffffffffffff161480610a245750610a2385610a1e610ae7565b610942565b5b610a63576040517f08c379a0000000000000000000000000000000000000000000000000000000008152600401610a5a90612650565b60405180910390fd5b610a708585858585611106565b5050505050565b60035481565b60007f01ffc9a7000000000000000000000000000000000000000000000000000000007bffffffffffffffffffffffffffffffffffffffffffffffffffffffff1916827bffffffffffffffffffffffffffffffffffffffffffffffffffffffff1916149050919050565b600033905090565b8151835114610b33576040517f08c379a0000000000000000000000000000000000000000000000000000000008152600401610b2a906126e2565b60405180910390fd5b600073ffffffffffffffffffffffffffffffffffffffff168473ffffffffffffffffffffffffffffffffffffffff161415610ba3576040517f08c379a0000000000000000000000000000000000000000000000000000000008152600401610b9a90612774565b60405180910390fd5b6000610bad610ae7565b9050610bbd818787878787611388565b60005b8451811015610d6e576000858281518110610bde57610bdd612555565b5b602002602001015190506000858381518110610bfd57610bfc612555565b5b60200260200101519050600080600084815260200190815260200160002060008b73ffffffffffffffffffffffffffffffffffffffff1673ffffffffffffffffffffffffffffffffffffffff16815260200190815260200160002054905081811015610c9e576040517f08c379a0000000000000000000000000000000000000000000000000000000008152600401610c9590612806565b60405180910390fd5b81810360008085815260200190815260200160002060008c73ffffffffffffffffffffffffffffffffffffffff1673ffffffffffffffffffffffffffffffffffffffff168152602001908152602001600020819055508160008085815260200190815260200160002060008b73ffffffffffffffffffffffffffffffffffffffff1673ffffffffffffffffffffffffffffffffffffffff1681526020019081526020016000206000828254610d539190612826565b9250508190555050505080610d67906123e8565b9050610bc0565b508473ffffffffffffffffffffffffffffffffffffffff168673ffffffffffffffffffffffffffffffffffffffff168273ffffffffffffffffffffffffffffffffffffffff167f4a39dc06d4c0dbc64b70af90fd698a233a518aa5d07e595d983b8c0526c8f7fb8787604051610de592919061287c565b60405180910390a4610dfb818787878787611390565b505050505050565b8173ffffffffffffffffffffffffffffffffffffffff168373ffffffffffffffffffffffffffffffffffffffff161415610e72576040517f08c379a0000000000000000000000000000000000000000000000000000000008152600401610e6990612925565b60405180910390fd5b80600160008573ffffffffffffffffffffffffffffffffffffffff1673ffffffffffffffffffffffffffffffffffffffff16815260200190815260200160002060008473ffffffffffffffffffffffffffffffffffffffff1673ffffffffffffffffffffffffffffffffffffffff16815260200190815260200160002060006101000a81548160ff0219169083151502179055508173ffffffffffffffffffffffffffffffffffffffff168373ffffffffffffffffffffffffffffffffffffffff167f17307eab39ab6107e8899845ad3d59bd9653f200f220920489ca2b5937696c3183604051610f639190611a32565b60405180910390a3505050565b600073ffffffffffffffffffffffffffffffffffffffff168473ffffffffffffffffffffffffffffffffffffffff161415610fe0576040517f08c379a0000000000000000000000000000000000000000000000000000000008152600401610fd7906129b7565b60405180910390fd5b6000610fea610ae7565b905061100b81600087610ffc88611568565b61100588611568565b87611388565b8260008086815260200190815260200160002060008773ffffffffffffffffffffffffffffffffffffffff1673ffffffffffffffffffffffffffffffffffffffff168152602001908152602001600020600082825461106a9190612826565b925050819055508473ffffffffffffffffffffffffffffffffffffffff16600073ffffffffffffffffffffffffffffffffffffffff168273ffffffffffffffffffffffffffffffffffffffff167fc3d58168c5ae7397731d063d5bbf3d657854427343f4c083240f7aacaa2d0f6287876040516110e89291906129d7565b60405180910390a46110ff816000878787876115e2565b5050505050565b600073ffffffffffffffffffffffffffffffffffffffff168473ffffffffffffffffffffffffffffffffffffffff161415611176576040517f08c379a000000000000000000000000000000000000000000000000000000000815260040161116d90612774565b60405180910390fd5b6000611180610ae7565b90506111a081878761119188611568565b61119a88611568565b87611388565b600080600086815260200190815260200160002060008873ffffffffffffffffffffffffffffffffffffffff1673ffffffffffffffffffffffffffffffffffffffff16815260200190815260200160002054905083811015611237576040517f08c379a000000000000000000000000000000000000000000000000000000000815260040161122e90612806565b60405180910390fd5b83810360008087815260200190815260200160002060008973ffffffffffffffffffffffffffffffffffffffff1673ffffffffffffffffffffffffffffffffffffffff168152602001908152602001600020819055508360008087815260200190815260200160002060008873ffffffffffffffffffffffffffffffffffffffff1673ffffffffffffffffffffffffffffffffffffffff16815260200190815260200160002060008282546112ec9190612826565b925050819055508573ffffffffffffffffffffffffffffffffffffffff168773ffffffffffffffffffffffffffffffffffffffff168373ffffffffffffffffffffffffffffffffffffffff167fc3d58168c5ae7397731d063d5bbf3d657854427343f4c083240f7aacaa2d0f6288886040516113699291906129d7565b60405180910390a461137f8288888888886115e2565b50505050505050565b505050505050565b6113af8473ffffffffffffffffffffffffffffffffffffffff166117ba565b15611560578373ffffffffffffffffffffffffffffffffffffffff1663bc197c8187878686866040518663ffffffff1660e01b81526004016113f5959493929190612a55565b6020604051808303816000875af192505050801561143157506040513d601f19601f8201168201806040525081019061142e9190612ad2565b60015b6114d75761143d612b0c565b806308c379a0141561149a5750611452612b2e565b8061145d575061149c565b806040517f08c379a00000000000000000000000000000000000000000000000000000000081526004016114919190611b13565b60405180910390fd5b505b6040517f08c379a00000000000000000000000000000000000000000000000000000000081526004016114ce90612c36565b60405180910390fd5b63bc197c8160e01b7bffffffffffffffffffffffffffffffffffffffffffffffffffffffff1916817bffffffffffffffffffffffffffffffffffffffffffffffffffffffff19161461155e576040517f08c379a000000000000000000000000000000000000000000000000000000000815260040161155590612cc8565b60405180910390fd5b505b505050505050565b60606000600167ffffffffffffffff81111561158757611586611b3f565b5b6040519080825280602002602001820160405280156115b55781602001602082028036833780820191505090505b50905082816000815181106115cd576115cc612555565b5b60200260200101818152505080915050919050565b6116018473ffffffffffffffffffffffffffffffffffffffff166117ba565b156117b2578373ffffffffffffffffffffffffffffffffffffffff1663f23a6e6187878686866040518663ffffffff1660e01b8152600401611647959493929190612ce8565b6020604051808303816000875af192505050801561168357506040513d601f19601f820116820180604052508101906116809190612ad2565b60015b6117295761168f612b0c565b806308c379a014156116ec57506116a4612b2e565b806116af57506116ee565b806040517f08c379a00000000000000000000000000000000000000000000000000000000081526004016116e39190611b13565b60405180910390fd5b505b6040517f08c379a000000000000000000000000000000000000000000000000000000000815260040161172090612c36565b60405180910390fd5b63f23a6e6160e01b7bffffffffffffffffffffffffffffffffffffffffffffffffffffffff1916817bffffffffffffffffffffffffffffffffffffffffffffffffffffffff1916146117b0576040517f08c379a00000000000000000000000000000000000000000000000000000000081526004016117a790612cc8565b60405180910390fd5b505b505050505050565b6000808273ffffffffffffffffffffffffffffffffffffffff163b119050919050565b8280546117e990612387565b90600052602060002090601f01602090048101928261180b5760008555611852565b82601f1061182457805160ff1916838001178555611852565b82800160010185558215611852579182015b82811115611851578251825591602001919060010190611836565b5b50905061185f9190611863565b5090565b5b8082111561187c576000816000905550600101611864565b5090565b6000604051905090565b600080fd5b600080fd5b600073ffffffffffffffffffffffffffffffffffffffff82169050919050565b60006118bf82611894565b9050919050565b6118cf816118b4565b81146118da57600080fd5b50565b6000813590506118ec816118c6565b92915050565b6000819050919050565b611905816118f2565b811461191057600080fd5b50565b600081359050611922816118fc565b92915050565b6000806040838503121561193f5761193e61188a565b5b600061194d858286016118dd565b925050602061195e85828601611913565b9150509250929050565b611971816118f2565b82525050565b600060208201905061198c6000830184611968565b92915050565b60007fffffffff0000000000000000000000000000000000000000000000000000000082169050919050565b6119c781611992565b81146119d257600080fd5b50565b6000813590506119e4816119be565b92915050565b600060208284031215611a00576119ff61188a565b5b6000611a0e848285016119d5565b91505092915050565b60008115159050919050565b611a2c81611a17565b82525050565b6000602082019050611a476000830184611a23565b92915050565b600060208284031215611a6357611a6261188a565b5b6000611a7184828501611913565b91505092915050565b600081519050919050565b600082825260208201905092915050565b60005b83811015611ab4578082015181840152602081019050611a99565b83811115611ac3576000848401525b50505050565b6000601f19601f8301169050919050565b6000611ae582611a7a565b611aef8185611a85565b9350611aff818560208601611a96565b611b0881611ac9565b840191505092915050565b60006020820190508181036000830152611b2d8184611ada565b905092915050565b600080fd5b600080fd5b7f4e487b7100000000000000000000000000000000000000000000000000000000600052604160045260246000fd5b611b7782611ac9565b810181811067ffffffffffffffff82111715611b9657611b95611b3f565b5b80604052505050565b6000611ba9611880565b9050611bb58282611b6e565b919050565b600067ffffffffffffffff821115611bd557611bd4611b3f565b5b611bde82611ac9565b9050602081019050919050565b82818337600083830152505050565b6000611c0d611c0884611bba565b611b9f565b905082815260208101848484011115611c2957611c28611b3a565b5b611c34848285611beb565b509392505050565b600082601f830112611c5157611c50611b35565b5b8135611c61848260208601611bfa565b91505092915050565b60008060408385031215611c8157611c8061188a565b5b600083013567ffffffffffffffff811115611c9f57611c9e61188f565b5b611cab85828601611c3c565b9250506020611cbc85828601611913565b9150509250929050565b600067ffffffffffffffff821115611ce157611ce0611b3f565b5b602082029050602081019050919050565b600080fd5b6000611d0a611d0584611cc6565b611b9f565b90508083825260208201905060208402830185811115611d2d57611d2c611cf2565b5b835b81811015611d565780611d428882611913565b845260208401935050602081019050611d2f565b5050509392505050565b600082601f830112611d7557611d74611b35565b5b8135611d85848260208601611cf7565b91505092915050565b600067ffffffffffffffff821115611da957611da8611b3f565b5b611db282611ac9565b9050602081019050919050565b6000611dd2611dcd84611d8e565b611b9f565b905082815260208101848484011115611dee57611ded611b3a565b5b611df9848285611beb565b509392505050565b600082601f830112611e1657611e15611b35565b5b8135611e26848260208601611dbf565b91505092915050565b600080600080600060a08688031215611e4b57611e4a61188a565b5b6000611e59888289016118dd565b9550506020611e6a888289016118dd565b945050604086013567ffffffffffffffff811115611e8b57611e8a61188f565b5b611e9788828901611d60565b935050606086013567ffffffffffffffff811115611eb857611eb761188f565b5b611ec488828901611d60565b925050608086013567ffffffffffffffff811115611ee557611ee461188f565b5b611ef188828901611e01565b9150509295509295909350565b600067ffffffffffffffff821115611f1957611f18611b3f565b5b602082029050602081019050919050565b6000611f3d611f3884611efe565b611b9f565b90508083825260208201905060208402830185811115611f6057611f5f611cf2565b5b835b81811015611f895780611f7588826118dd565b845260208401935050602081019050611f62565b5050509392505050565b600082601f830112611fa857611fa7611b35565b5b8135611fb8848260208601611f2a565b91505092915050565b60008060408385031215611fd857611fd761188a565b5b600083013567ffffffffffffffff811115611ff657611ff561188f565b5b61200285828601611f93565b925050602083013567ffffffffffffffff8111156120235761202261188f565b5b61202f85828601611d60565b9150509250929050565b600081519050919050565b600082825260208201905092915050565b6000819050602082019050919050565b61206e816118f2565b82525050565b60006120808383612065565b60208301905092915050565b6000602082019050919050565b60006120a482612039565b6120ae8185612044565b93506120b983612055565b8060005b838110156120ea5781516120d18882612074565b97506120dc8361208c565b9250506001810190506120bd565b5085935050505092915050565b600060208201905081810360008301526121118184612099565b905092915050565b612122816118b4565b82525050565b600060208201905061213d6000830184612119565b92915050565b61214c81611a17565b811461215757600080fd5b50565b60008135905061216981612143565b92915050565b600080604083850312156121865761218561188a565b5b6000612194858286016118dd565b92505060206121a58582860161215a565b9150509250929050565b600080604083850312156121c6576121c561188a565b5b60006121d485828601611913565b92505060206121e585828601611913565b9150509250929050565b600080604083850312156122065761220561188a565b5b6000612214858286016118dd565b9250506020612225858286016118dd565b9150509250929050565b600080600080600060a0868803121561224b5761224a61188a565b5b6000612259888289016118dd565b955050602061226a888289016118dd565b945050604061227b88828901611913565b935050606061228c88828901611913565b925050608086013567ffffffffffffffff8111156122ad576122ac61188f565b5b6122b988828901611e01565b9150509295509295909350565b7f455243313135353a2062616c616e636520717565727920666f7220746865207a60008201527f65726f2061646472657373000000000000000000000000000000000000000000602082015250565b6000612322602b83611a85565b915061232d826122c6565b604082019050919050565b6000602082019050818103600083015261235181612315565b9050919050565b7f4e487b7100000000000000000000000000000000000000000000000000000000600052602260045260246000fd5b6000600282049050600182168061239f57607f821691505b602082108114156123b3576123b2612358565b5b50919050565b7f4e487b7100000000000000000000000000000000000000000000000000000000600052601160045260246000fd5b60006123f3826118f2565b91507fffffffffffffffffffffffffffffffffffffffffffffffffffffffffffffffff821415612426576124256123b9565b5b600182019050919050565b7f455243313135353a207472616e736665722063616c6c6572206973206e6f742060008201527f6f776e6572206e6f7220617070726f7665640000000000000000000000000000602082015250565b600061248d603283611a85565b915061249882612431565b604082019050919050565b600060208201905081810360008301526124bc81612480565b9050919050565b7f455243313135353a206163636f756e747320616e6420696473206c656e67746860008201527f206d69736d617463680000000000000000000000000000000000000000000000602082015250565b600061251f602983611a85565b915061252a826124c3565b604082019050919050565b6000602082019050818103600083015261254e81612512565b9050919050565b7f4e487b7100000000000000000000000000000000000000000000000000000000600052603260045260246000fd5b600061258f826118f2565b915061259a836118f2565b9250817fffffffffffffffffffffffffffffffffffffffffffffffffffffffffffffffff04831182151516156125d3576125d26123b9565b5b828202905092915050565b7f455243313135353a2063616c6c6572206973206e6f74206f776e6572206e6f7260008201527f20617070726f7665640000000000000000000000000000000000000000000000602082015250565b600061263a602983611a85565b9150612645826125de565b604082019050919050565b600060208201905081810360008301526126698161262d565b9050919050565b7f455243313135353a2069647320616e6420616d6f756e7473206c656e6774682060008201527f6d69736d61746368000000000000000000000000000000000000000000000000602082015250565b60006126cc602883611a85565b91506126d782612670565b604082019050919050565b600060208201905081810360008301526126fb816126bf565b9050919050565b7f455243313135353a207472616e7366657220746f20746865207a65726f20616460008201527f6472657373000000000000000000000000000000000000000000000000000000602082015250565b600061275e602583611a85565b915061276982612702565b604082019050919050565b6000602082019050818103600083015261278d81612751565b9050919050565b7f455243313135353a20696e73756666696369656e742062616c616e636520666f60008201527f72207472616e7366657200000000000000000000000000000000000000000000602082015250565b60006127f0602a83611a85565b91506127fb82612794565b604082019050919050565b6000602082019050818103600083015261281f816127e3565b9050919050565b6000612831826118f2565b915061283c836118f2565b9250827fffffffffffffffffffffffffffffffffffffffffffffffffffffffffffffffff03821115612871576128706123b9565b5b828201905092915050565b600060408201905081810360008301526128968185612099565b905081810360208301526128aa8184612099565b90509392505050565b7f455243313135353a2073657474696e6720617070726f76616c2073746174757360008201527f20666f722073656c660000000000000000000000000000000000000000000000602082015250565b600061290f602983611a85565b915061291a826128b3565b604082019050919050565b6000602082019050818103600083015261293e81612902565b9050919050565b7f455243313135353a206d696e7420746f20746865207a65726f2061646472657360008201527f7300000000000000000000000000000000000000000000000000000000000000602082015250565b60006129a1602183611a85565b91506129ac82612945565b604082019050919050565b600060208201905081810360008301526129d081612994565b9050919050565b60006040820190506129ec6000830185611968565b6129f96020830184611968565b9392505050565b600081519050919050565b600082825260208201905092915050565b6000612a2782612a00565b612a318185612a0b565b9350612a41818560208601611a96565b612a4a81611ac9565b840191505092915050565b600060a082019050612a6a6000830188612119565b612a776020830187612119565b8181036040830152612a898186612099565b90508181036060830152612a9d8185612099565b90508181036080830152612ab18184612a1c565b90509695505050505050565b600081519050612acc816119be565b92915050565b600060208284031215612ae857612ae761188a565b5b6000612af684828501612abd565b91505092915050565b60008160e01c9050919050565b600060033d1115612b2b5760046000803e612b28600051612aff565b90505b90565b600060443d1015612b3e57612bc1565b612b46611880565b60043d036004823e80513d602482011167ffffffffffffffff82111715612b6e575050612bc1565b808201805167ffffffffffffffff811115612b8c5750505050612bc1565b80602083010160043d038501811115612ba9575050505050612bc1565b612bb882602001850186611b6e565b82955050505050505b90565b7f455243313135353a207472616e7366657220746f206e6f6e204552433131353560008201527f526563656976657220696d706c656d656e746572000000000000000000000000602082015250565b6000612c20603483611a85565b9150612c2b82612bc4565b604082019050919050565b60006020820190508181036000830152612c4f81612c13565b9050919050565b7f455243313135353a204552433131353552656365697665722072656a6563746560008201527f6420746f6b656e73000000000000000000000000000000000000000000000000602082015250565b6000612cb2602883611a85565b9150612cbd82612c56565b604082019050919050565b60006020820190508181036000830152612ce181612ca5565b9050919050565b600060a082019050612cfd6000830188612119565b612d0a6020830187612119565b612d176040830186611968565b612d246060830185611968565b8181036080830152612d368184612a1c565b9050969550505050505056fea264697066735822122088439640ecad67e9bbdf4ac9c96956516501995db04e47cd821d107fb4490cbd64736f6c634300080c003368747470733a2f2f67616d652e6578616d706c652f6170692f6974656d2f7b69647d2e6a736f6e",
  "immutableReferences": {},
  "source": "pragma solidity >=0.4.22 <0.9.0;\n\n\nimport \"@openzeppelin/contracts/token/ERC1155/ERC1155.sol\";\n\n\ncontract GameItems is ERC1155 {\n    uint256 public currentcount = 0;\n    struct Asset{\n        string Name;\n        uint256 price;\n        uint256 id;\n    }\n    mapping (uint256 => Asset) Assets;\n    \n    address public owner;\n   \n\n    modifier onlyOwner(){\n            require(msg.sender == owner);\n            _;\n    }\n    constructor() public ERC1155(\"https://game.example/api/item/{id}.json\") {\n             owner = tx.origin;\n    }\n\n    function addAsset(string memory assetname,uint256 price) onlyOwner public  {\n        Asset memory asset = Asset(assetname,price,currentcount);\n        Assets[currentcount++] = asset;\n    }\n\n    function mintAsset(uint256 id,uint256 amount) public payable {\n        require(msg.value >= Assets[id].price*amount);\n        _mint(msg.sender,id,amount,\"\");\n\n    }\n\n    function withdraw() public payable onlyOwner {\n         address payable  own = payable(owner);\n       own.transfer(address(this).balance); \n    }\n}",
  "sourcePath": "/home/kali/Documents/RTS_Contract/contracts/Assets.sol",
  "compiler": {
    "name": "solc",
    "version": "0.8.12+commit.f00d7308.Emscripten.clang"
  },
  "schemaVersion": "3.4.5",
  "updatedAt": "2022-03-24T12:59:11.151Z",
  "devdoc": {
    "kind": "dev",
    "methods": {
      "balanceOf(address,uint256)": {
        "details": "See {IERC1155-balanceOf}. Requirements: - `account` cannot be the zero address."
      },
      "balanceOfBatch(address[],uint256[])": {
        "details": "See {IERC1155-balanceOfBatch}. Requirements: - `accounts` and `ids` must have the same length."
      },
      "isApprovedForAll(address,address)": {
        "details": "See {IERC1155-isApprovedForAll}."
      },
      "safeBatchTransferFrom(address,address,uint256[],uint256[],bytes)": {
        "details": "See {IERC1155-safeBatchTransferFrom}."
      },
      "safeTransferFrom(address,address,uint256,uint256,bytes)": {
        "details": "See {IERC1155-safeTransferFrom}."
      },
      "setApprovalForAll(address,bool)": {
        "details": "See {IERC1155-setApprovalForAll}."
      },
      "supportsInterface(bytes4)": {
        "details": "See {IERC165-supportsInterface}."
      },
      "uri(uint256)": {
        "details": "See {IERC1155MetadataURI-uri}. This implementation returns the same URI for *all* token types. It relies on the token type ID substitution mechanism https://eips.ethereum.org/EIPS/eip-1155#metadata[defined in the EIP]. Clients calling this function must replace the `\\{id\\}` substring with the actual token type ID."
      }
    },
    "version": 1
  },
  "userdoc": {
    "kind": "user",
    "methods": {},
    "version": 1
  }
}