{
  "contractName": "Miner",
  "abi": [
    {
      "inputs": [],
      "stateMutability": "nonpayable",
      "type": "constructor"
    },
    {
      "anonymous": false,
      "inputs": [
        {
          "indexed": false,
          "internalType": "uint256",
          "name": "amount",
          "type": "uint256"
        }
      ],
      "name": "Amm",
      "type": "event"
    },
    {
      "anonymous": false,
      "inputs": [
        {
          "indexed": true,
          "internalType": "address",
          "name": "owner",
          "type": "address"
        },
        {
          "indexed": true,
          "internalType": "address",
          "name": "approved",
          "type": "address"
        },
        {
          "indexed": true,
          "internalType": "uint256",
          "name": "tokenId",
          "type": "uint256"
        }
      ],
      "name": "Approval",
      "type": "event"
    },
    {
      "anonymous": false,
      "inputs": [
        {
          "indexed": true,
          "internalType": "address",
          "name": "owner",
          "type": "address"
        },
        {
          "indexed": true,
          "internalType": "address",
          "name": "operator",
          "type": "address"
        },
        {
          "indexed": false,
          "internalType": "bool",
          "name": "approved",
          "type": "bool"
        }
      ],
      "name": "ApprovalForAll",
      "type": "event"
    },
    {
      "anonymous": false,
      "inputs": [
        {
          "indexed": true,
          "internalType": "address",
          "name": "from",
          "type": "address"
        },
        {
          "indexed": true,
          "internalType": "address",
          "name": "to",
          "type": "address"
        },
        {
          "indexed": true,
          "internalType": "uint256",
          "name": "tokenId",
          "type": "uint256"
        }
      ],
      "name": "Transfer",
      "type": "event"
    },
    {
      "inputs": [
        {
          "internalType": "uint256",
          "name": "",
          "type": "uint256"
        }
      ],
      "name": "TownhallMiner",
      "outputs": [
        {
          "internalType": "uint256",
          "name": "",
          "type": "uint256"
        }
      ],
      "stateMutability": "view",
      "type": "function",
      "constant": true
    },
    {
      "inputs": [
        {
          "internalType": "address",
          "name": "to",
          "type": "address"
        },
        {
          "internalType": "uint256",
          "name": "tokenId",
          "type": "uint256"
        }
      ],
      "name": "approve",
      "outputs": [],
      "stateMutability": "nonpayable",
      "type": "function"
    },
    {
      "inputs": [
        {
          "internalType": "address",
          "name": "owner",
          "type": "address"
        }
      ],
      "name": "balanceOf",
      "outputs": [
        {
          "internalType": "uint256",
          "name": "",
          "type": "uint256"
        }
      ],
      "stateMutability": "view",
      "type": "function",
      "constant": true
    },
    {
      "inputs": [
        {
          "internalType": "uint256",
          "name": "tokenId",
          "type": "uint256"
        }
      ],
      "name": "getApproved",
      "outputs": [
        {
          "internalType": "address",
          "name": "",
          "type": "address"
        }
      ],
      "stateMutability": "view",
      "type": "function",
      "constant": true
    },
    {
      "inputs": [
        {
          "internalType": "address",
          "name": "owner",
          "type": "address"
        },
        {
          "internalType": "address",
          "name": "operator",
          "type": "address"
        }
      ],
      "name": "isApprovedForAll",
      "outputs": [
        {
          "internalType": "bool",
          "name": "",
          "type": "bool"
        }
      ],
      "stateMutability": "view",
      "type": "function",
      "constant": true
    },
    {
      "inputs": [
        {
          "internalType": "uint256",
          "name": "",
          "type": "uint256"
        }
      ],
      "name": "lastcollected",
      "outputs": [
        {
          "internalType": "uint256",
          "name": "",
          "type": "uint256"
        }
      ],
      "stateMutability": "view",
      "type": "function",
      "constant": true
    },
    {
      "inputs": [
        {
          "internalType": "uint256",
          "name": "",
          "type": "uint256"
        }
      ],
      "name": "lockedminers",
      "outputs": [
        {
          "internalType": "address",
          "name": "",
          "type": "address"
        }
      ],
      "stateMutability": "view",
      "type": "function",
      "constant": true
    },
    {
      "inputs": [],
      "name": "maxblock",
      "outputs": [
        {
          "internalType": "uint256",
          "name": "",
          "type": "uint256"
        }
      ],
      "stateMutability": "view",
      "type": "function",
      "constant": true
    },
    {
      "inputs": [
        {
          "internalType": "uint256",
          "name": "",
          "type": "uint256"
        }
      ],
      "name": "minerproducing",
      "outputs": [
        {
          "internalType": "bool",
          "name": "",
          "type": "bool"
        }
      ],
      "stateMutability": "view",
      "type": "function",
      "constant": true
    },
    {
      "inputs": [],
      "name": "name",
      "outputs": [
        {
          "internalType": "string",
          "name": "",
          "type": "string"
        }
      ],
      "stateMutability": "view",
      "type": "function",
      "constant": true
    },
    {
      "inputs": [],
      "name": "owner",
      "outputs": [
        {
          "internalType": "address",
          "name": "",
          "type": "address"
        }
      ],
      "stateMutability": "view",
      "type": "function",
      "constant": true
    },
    {
      "inputs": [
        {
          "internalType": "uint256",
          "name": "tokenId",
          "type": "uint256"
        }
      ],
      "name": "ownerOf",
      "outputs": [
        {
          "internalType": "address",
          "name": "",
          "type": "address"
        }
      ],
      "stateMutability": "view",
      "type": "function",
      "constant": true
    },
    {
      "inputs": [
        {
          "internalType": "address",
          "name": "from",
          "type": "address"
        },
        {
          "internalType": "address",
          "name": "to",
          "type": "address"
        },
        {
          "internalType": "uint256",
          "name": "tokenId",
          "type": "uint256"
        }
      ],
      "name": "safeTransferFrom",
      "outputs": [],
      "stateMutability": "nonpayable",
      "type": "function"
    },
    {
      "inputs": [
        {
          "internalType": "address",
          "name": "from",
          "type": "address"
        },
        {
          "internalType": "address",
          "name": "to",
          "type": "address"
        },
        {
          "internalType": "uint256",
          "name": "tokenId",
          "type": "uint256"
        },
        {
          "internalType": "bytes",
          "name": "_data",
          "type": "bytes"
        }
      ],
      "name": "safeTransferFrom",
      "outputs": [],
      "stateMutability": "nonpayable",
      "type": "function"
    },
    {
      "inputs": [
        {
          "internalType": "address",
          "name": "operator",
          "type": "address"
        },
        {
          "internalType": "bool",
          "name": "approved",
          "type": "bool"
        }
      ],
      "name": "setApprovalForAll",
      "outputs": [],
      "stateMutability": "nonpayable",
      "type": "function"
    },
    {
      "inputs": [
        {
          "internalType": "bytes4",
          "name": "interfaceId",
          "type": "bytes4"
        }
      ],
      "name": "supportsInterface",
      "outputs": [
        {
          "internalType": "bool",
          "name": "",
          "type": "bool"
        }
      ],
      "stateMutability": "view",
      "type": "function",
      "constant": true
    },
    {
      "inputs": [],
      "name": "symbol",
      "outputs": [
        {
          "internalType": "string",
          "name": "",
          "type": "string"
        }
      ],
      "stateMutability": "view",
      "type": "function",
      "constant": true
    },
    {
      "inputs": [
        {
          "internalType": "uint256",
          "name": "tokenId",
          "type": "uint256"
        }
      ],
      "name": "tokenURI",
      "outputs": [
        {
          "internalType": "string",
          "name": "",
          "type": "string"
        }
      ],
      "stateMutability": "view",
      "type": "function",
      "constant": true
    },
    {
      "inputs": [
        {
          "internalType": "uint256",
          "name": "",
          "type": "uint256"
        }
      ],
      "name": "townhallconnected",
      "outputs": [
        {
          "internalType": "bool",
          "name": "",
          "type": "bool"
        }
      ],
      "stateMutability": "view",
      "type": "function",
      "constant": true
    },
    {
      "inputs": [
        {
          "internalType": "address",
          "name": "from",
          "type": "address"
        },
        {
          "internalType": "address",
          "name": "to",
          "type": "address"
        },
        {
          "internalType": "uint256",
          "name": "tokenId",
          "type": "uint256"
        }
      ],
      "name": "transferFrom",
      "outputs": [],
      "stateMutability": "nonpayable",
      "type": "function"
    },
    {
      "inputs": [
        {
          "internalType": "address",
          "name": "starter",
          "type": "address"
        }
      ],
      "name": "mint",
      "outputs": [],
      "stateMutability": "nonpayable",
      "type": "function"
    },
    {
      "inputs": [
        {
          "internalType": "address",
          "name": "newowner",
          "type": "address"
        }
      ],
      "name": "changeowner",
      "outputs": [],
      "stateMutability": "nonpayable",
      "type": "function"
    },
    {
      "inputs": [
        {
          "internalType": "uint256",
          "name": "id",
          "type": "uint256"
        }
      ],
      "name": "collect",
      "outputs": [
        {
          "internalType": "uint256",
          "name": "",
          "type": "uint256"
        }
      ],
      "stateMutability": "nonpayable",
      "type": "function"
    },
    {
      "inputs": [
        {
          "internalType": "uint256",
          "name": "minerid",
          "type": "uint256"
        },
        {
          "internalType": "uint256",
          "name": "townhallid",
          "type": "uint256"
        },
        {
          "internalType": "uint256",
          "name": "amount",
          "type": "uint256"
        }
      ],
      "name": "updatelock",
      "outputs": [],
      "stateMutability": "nonpayable",
      "type": "function"
    }
  ],
  "bytecode": "0x60806040526040518060400160405280600381526020017f616263000000000000000000000000000000000000000000000000000000000081525060089080519060200190620000519291906200014d565b506104b0600f553480156200006557600080fd5b506040518060400160405280600581526020017f4d696e65720000000000000000000000000000000000000000000000000000008152506040518060400160405280600381526020017f4d4e5200000000000000000000000000000000000000000000000000000000008152508160009080519060200190620000ea9291906200014d565b508060019080519060200190620001039291906200014d565b50505032600960006101000a81548173ffffffffffffffffffffffffffffffffffffffff021916908373ffffffffffffffffffffffffffffffffffffffff16021790555062000262565b8280546200015b906200022c565b90600052602060002090601f0160209004810192826200017f5760008555620001cb565b82601f106200019a57805160ff1916838001178555620001cb565b82800160010185558215620001cb579182015b82811115620001ca578251825591602001919060010190620001ad565b5b509050620001da9190620001de565b5090565b5b80821115620001f9576000816000905550600101620001df565b5090565b7f4e487b7100000000000000000000000000000000000000000000000000000000600052602260045260246000fd5b600060028204905060018216806200024557607f821691505b602082108114156200025c576200025b620001fd565b5b50919050565b61398380620002726000396000f3fe608060405234801561001057600080fd5b50600436106101585760003560e01c80638da5cb5b116100c3578063ce3f865f1161007c578063ce3f865f146103e7578063d65430bd14610417578063dc869c7914610447578063dfaaa2d514610477578063e985e9c514610495578063fff5d2d4146104c557610158565b80638da5cb5b1461032757806395d89b4114610345578063a22cb46514610363578063b88d4fde1461037f578063c774f6191461039b578063c87b56dd146103b757610158565b806342842e0e1161011557806342842e0e146102435780634a5629631461025f5780636352211e1461028f578063662e4ee4146102bf5780636a627842146102db57806370a08231146102f757610158565b806301ffc9a71461015d57806306fdde031461018d578063081812fc146101ab578063095ea7b3146101db57806323b872dd146101f75780633250a50014610213575b600080fd5b61017760048036038101906101729190612531565b6104f5565b6040516101849190612579565b60405180910390f35b6101956105d7565b6040516101a2919061262d565b60405180910390f35b6101c560048036038101906101c09190612685565b610669565b6040516101d291906126f3565b60405180910390f35b6101f560048036038101906101f0919061273a565b6106ee565b005b610211600480360381019061020c919061277a565b610806565b005b61022d60048036038101906102289190612685565b610866565b60405161023a91906127dc565b60405180910390f35b61025d6004803603810190610258919061277a565b61087e565b005b61027960048036038101906102749190612685565b61089e565b6040516102869190612579565b60405180910390f35b6102a960048036038101906102a49190612685565b6108be565b6040516102b691906126f3565b60405180910390f35b6102d960048036038101906102d491906127f7565b610970565b005b6102f560048036038101906102f091906127f7565b610a0e565b005b610311600480360381019061030c91906127f7565b610bde565b60405161031e91906127dc565b60405180910390f35b61032f610c96565b60405161033c91906126f3565b60405180910390f35b61034d610cbc565b60405161035a919061262d565b60405180910390f35b61037d60048036038101906103789190612850565b610d4e565b005b610399600480360381019061039491906129c5565b610d64565b005b6103b560048036038101906103b09190612a48565b610dc6565b005b6103d160048036038101906103cc9190612685565b610f5b565b6040516103de919061262d565b60405180910390f35b61040160048036038101906103fc9190612685565b6110ad565b60405161040e91906127dc565b60405180910390f35b610431600480360381019061042c9190612685565b611262565b60405161043e91906127dc565b60405180910390f35b610461600480360381019061045c9190612685565b61127a565b60405161046e9190612579565b60405180910390f35b61047f61129a565b60405161048c91906127dc565b60405180910390f35b6104af60048036038101906104aa9190612a9b565b6112a0565b6040516104bc9190612579565b60405180910390f35b6104df60048036038101906104da9190612685565b611334565b6040516104ec91906126f3565b60405180910390f35b60007f80ac58cd000000000000000000000000000000000000000000000000000000007bffffffffffffffffffffffffffffffffffffffffffffffffffffffff1916827bffffffffffffffffffffffffffffffffffffffffffffffffffffffff191614806105c057507f5b5e139f000000000000000000000000000000000000000000000000000000007bffffffffffffffffffffffffffffffffffffffffffffffffffffffff1916827bffffffffffffffffffffffffffffffffffffffffffffffffffffffff1916145b806105d057506105cf82611367565b5b9050919050565b6060600080546105e690612b0a565b80601f016020809104026020016040519081016040528092919081815260200182805461061290612b0a565b801561065f5780601f106106345761010080835404028352916020019161065f565b820191906000526020600020905b81548152906001019060200180831161064257829003601f168201915b5050505050905090565b6000610674826113d1565b6106b3576040517f08c379a00000000000000000000000000000000000000000000000000000000081526004016106aa90612bae565b60405180910390fd5b6004600083815260200190815260200160002060009054906101000a900473ffffffffffffffffffffffffffffffffffffffff169050919050565b60006106f9826108be565b90508073ffffffffffffffffffffffffffffffffffffffff168373ffffffffffffffffffffffffffffffffffffffff16141561076a576040517f08c379a000000000000000000000000000000000000000000000000000000000815260040161076190612c40565b60405180910390fd5b8073ffffffffffffffffffffffffffffffffffffffff1661078961143d565b73ffffffffffffffffffffffffffffffffffffffff1614806107b857506107b7816107b261143d565b6112a0565b5b6107f7576040517f08c379a00000000000000000000000000000000000000000000000000000000081526004016107ee90612cd2565b60405180910390fd5b6108018383611445565b505050565b61081761081161143d565b826114fe565b610856576040517f08c379a000000000000000000000000000000000000000000000000000000000815260040161084d90612d64565b60405180910390fd5b6108618383836115dc565b505050565b600c6020528060005260406000206000915090505481565b61089983838360405180602001604052806000815250610d64565b505050565b600b6020528060005260406000206000915054906101000a900460ff1681565b6000806002600084815260200190815260200160002060009054906101000a900473ffffffffffffffffffffffffffffffffffffffff169050600073ffffffffffffffffffffffffffffffffffffffff168173ffffffffffffffffffffffffffffffffffffffff161415610967576040517f08c379a000000000000000000000000000000000000000000000000000000000815260040161095e90612df6565b60405180910390fd5b80915050919050565b600960009054906101000a900473ffffffffffffffffffffffffffffffffffffffff1673ffffffffffffffffffffffffffffffffffffffff163373ffffffffffffffffffffffffffffffffffffffff16146109ca57600080fd5b80600960006101000a81548173ffffffffffffffffffffffffffffffffffffffff021916908373ffffffffffffffffffffffffffffffffffffffff16021790555050565b600960009054906101000a900473ffffffffffffffffffffffffffffffffffffffff1673ffffffffffffffffffffffffffffffffffffffff163373ffffffffffffffffffffffffffffffffffffffff1614610a6857600080fd5b610a726007611843565b60013073ffffffffffffffffffffffffffffffffffffffff166370a08231836040518263ffffffff1660e01b8152600401610aad91906126f3565b602060405180830381865afa158015610aca573d6000803e3d6000fd5b505050506040513d601f19601f82011682018060405250810190610aee9190612e2b565b10610b2e576040517f08c379a0000000000000000000000000000000000000000000000000000000008152600401610b2590612ea4565b60405180910390fd5b6000610b3a6007611859565b9050610b468282611867565b610bda8160088054610b5790612b0a565b80601f0160208091040260200160405190810160405280929190818152602001828054610b8390612b0a565b8015610bd05780601f10610ba557610100808354040283529160200191610bd0565b820191906000526020600020905b815481529060010190602001808311610bb357829003601f168201915b5050505050611a41565b5050565b60008073ffffffffffffffffffffffffffffffffffffffff168273ffffffffffffffffffffffffffffffffffffffff161415610c4f576040517f08c379a0000000000000000000000000000000000000000000000000000000008152600401610c4690612f36565b60405180910390fd5b600360008373ffffffffffffffffffffffffffffffffffffffff1673ffffffffffffffffffffffffffffffffffffffff168152602001908152602001600020549050919050565b600960009054906101000a900473ffffffffffffffffffffffffffffffffffffffff1681565b606060018054610ccb90612b0a565b80601f0160208091040260200160405190810160405280929190818152602001828054610cf790612b0a565b8015610d445780601f10610d1957610100808354040283529160200191610d44565b820191906000526020600020905b815481529060010190602001808311610d2757829003601f168201915b5050505050905090565b610d60610d5961143d565b8383611ab5565b5050565b610d75610d6f61143d565b836114fe565b610db4576040517f08c379a0000000000000000000000000000000000000000000000000000000008152600401610dab90612d64565b60405180910390fd5b610dc084848484611c22565b50505050565b600960009054906101000a900473ffffffffffffffffffffffffffffffffffffffff1673ffffffffffffffffffffffffffffffffffffffff163373ffffffffffffffffffffffffffffffffffffffff1614610e2057600080fd5b600081118015610e635750610e34836108be565b73ffffffffffffffffffffffffffffffffffffffff163273ffffffffffffffffffffffffffffffffffffffff16145b8015610e93575060001515600e600084815260200190815260200160002060009054906101000a900460ff161515145b15610ea757610ea28383611c7e565b610f56565b600081148015610edb575060011515600e600084815260200190815260200160002060009054906101000a900460ff161515145b8015610f4557503273ffffffffffffffffffffffffffffffffffffffff16600a600085815260200190815260200160002060009054906101000a900473ffffffffffffffffffffffffffffffffffffffff1673ffffffffffffffffffffffffffffffffffffffff16145b15610f5557610f548383611e9e565b5b5b505050565b6060610f66826113d1565b610fa5576040517f08c379a0000000000000000000000000000000000000000000000000000000008152600401610f9c90612fc8565b60405180910390fd5b6000600660008481526020019081526020016000208054610fc590612b0a565b80601f0160208091040260200160405190810160405280929190818152602001828054610ff190612b0a565b801561103e5780601f106110135761010080835404028352916020019161103e565b820191906000526020600020905b81548152906001019060200180831161102157829003601f168201915b50505050509050600061104f61204e565b90506000815114156110655781925050506110a8565b60008251111561109a578082604051602001611082929190613024565b604051602081830303815290604052925050506110a8565b6110a384612065565b925050505b919050565b6000600960009054906101000a900473ffffffffffffffffffffffffffffffffffffffff1673ffffffffffffffffffffffffffffffffffffffff163373ffffffffffffffffffffffffffffffffffffffff161461110957600080fd5b60011515600b600084815260200190815260200160002060009054906101000a900460ff16151514611170576040517f08c379a000000000000000000000000000000000000000000000000000000000815260040161116790613094565b60405180910390fd5b3273ffffffffffffffffffffffffffffffffffffffff16600a600084815260200190815260200160002060009054906101000a900473ffffffffffffffffffffffffffffffffffffffff1673ffffffffffffffffffffffffffffffffffffffff1614611211576040517f08c379a000000000000000000000000000000000000000000000000000000000815260040161120890613100565b60405180910390fd5b6000600c600084815260200190815260200160002054905043600c600085815260200190815260200160002081905550600f548143611250919061314f565b61125a91906131b2565b915050919050565b600d6020528060005260406000206000915090505481565b600e6020528060005260406000206000915054906101000a900460ff1681565b600f5481565b6000600560008473ffffffffffffffffffffffffffffffffffffffff1673ffffffffffffffffffffffffffffffffffffffff16815260200190815260200160002060008373ffffffffffffffffffffffffffffffffffffffff1673ffffffffffffffffffffffffffffffffffffffff16815260200190815260200160002060009054906101000a900460ff16905092915050565b600a6020528060005260406000206000915054906101000a900473ffffffffffffffffffffffffffffffffffffffff1681565b60007f01ffc9a7000000000000000000000000000000000000000000000000000000007bffffffffffffffffffffffffffffffffffffffffffffffffffffffff1916827bffffffffffffffffffffffffffffffffffffffffffffffffffffffff1916149050919050565b60008073ffffffffffffffffffffffffffffffffffffffff166002600084815260200190815260200160002060009054906101000a900473ffffffffffffffffffffffffffffffffffffffff1673ffffffffffffffffffffffffffffffffffffffff1614159050919050565b600033905090565b816004600083815260200190815260200160002060006101000a81548173ffffffffffffffffffffffffffffffffffffffff021916908373ffffffffffffffffffffffffffffffffffffffff160217905550808273ffffffffffffffffffffffffffffffffffffffff166114b8836108be565b73ffffffffffffffffffffffffffffffffffffffff167f8c5be1e5ebec7d5bd14f71427d1e84f3dd0314c0f7b2291e5b200ac8c7c3b92560405160405180910390a45050565b6000611509826113d1565b611548576040517f08c379a000000000000000000000000000000000000000000000000000000000815260040161153f90613255565b60405180910390fd5b6000611553836108be565b90508073ffffffffffffffffffffffffffffffffffffffff168473ffffffffffffffffffffffffffffffffffffffff1614806115c257508373ffffffffffffffffffffffffffffffffffffffff166115aa84610669565b73ffffffffffffffffffffffffffffffffffffffff16145b806115d357506115d281856112a0565b5b91505092915050565b8273ffffffffffffffffffffffffffffffffffffffff166115fc826108be565b73ffffffffffffffffffffffffffffffffffffffff1614611652576040517f08c379a0000000000000000000000000000000000000000000000000000000008152600401611649906132e7565b60405180910390fd5b600073ffffffffffffffffffffffffffffffffffffffff168273ffffffffffffffffffffffffffffffffffffffff1614156116c2576040517f08c379a00000000000000000000000000000000000000000000000000000000081526004016116b990613379565b60405180910390fd5b6116cd83838361210c565b6116d8600082611445565b6001600360008573ffffffffffffffffffffffffffffffffffffffff1673ffffffffffffffffffffffffffffffffffffffff1681526020019081526020016000206000828254611728919061314f565b925050819055506001600360008473ffffffffffffffffffffffffffffffffffffffff1673ffffffffffffffffffffffffffffffffffffffff168152602001908152602001600020600082825461177f9190613399565b92505081905550816002600083815260200190815260200160002060006101000a81548173ffffffffffffffffffffffffffffffffffffffff021916908373ffffffffffffffffffffffffffffffffffffffff160217905550808273ffffffffffffffffffffffffffffffffffffffff168473ffffffffffffffffffffffffffffffffffffffff167fddf252ad1be2c89b69c2b068fc378daa952ba7f163c4a11628f55a4df523b3ef60405160405180910390a461183e838383612111565b505050565b6001816000016000828254019250508190555050565b600081600001549050919050565b600073ffffffffffffffffffffffffffffffffffffffff168273ffffffffffffffffffffffffffffffffffffffff1614156118d7576040517f08c379a00000000000000000000000000000000000000000000000000000000081526004016118ce9061343b565b60405180910390fd5b6118e0816113d1565b15611920576040517f08c379a0000000000000000000000000000000000000000000000000000000008152600401611917906134a7565b60405180910390fd5b61192c6000838361210c565b6001600360008473ffffffffffffffffffffffffffffffffffffffff1673ffffffffffffffffffffffffffffffffffffffff168152602001908152602001600020600082825461197c9190613399565b92505081905550816002600083815260200190815260200160002060006101000a81548173ffffffffffffffffffffffffffffffffffffffff021916908373ffffffffffffffffffffffffffffffffffffffff160217905550808273ffffffffffffffffffffffffffffffffffffffff16600073ffffffffffffffffffffffffffffffffffffffff167fddf252ad1be2c89b69c2b068fc378daa952ba7f163c4a11628f55a4df523b3ef60405160405180910390a4611a3d60008383612111565b5050565b611a4a826113d1565b611a89576040517f08c379a0000000000000000000000000000000000000000000000000000000008152600401611a8090613539565b60405180910390fd5b80600660008481526020019081526020016000209080519060200190611ab0929190612422565b505050565b8173ffffffffffffffffffffffffffffffffffffffff168373ffffffffffffffffffffffffffffffffffffffff161415611b24576040517f08c379a0000000000000000000000000000000000000000000000000000000008152600401611b1b906135a5565b60405180910390fd5b80600560008573ffffffffffffffffffffffffffffffffffffffff1673ffffffffffffffffffffffffffffffffffffffff16815260200190815260200160002060008473ffffffffffffffffffffffffffffffffffffffff1673ffffffffffffffffffffffffffffffffffffffff16815260200190815260200160002060006101000a81548160ff0219169083151502179055508173ffffffffffffffffffffffffffffffffffffffff168373ffffffffffffffffffffffffffffffffffffffff167f17307eab39ab6107e8899845ad3d59bd9653f200f220920489ca2b5937696c3183604051611c159190612579565b60405180910390a3505050565b611c2d8484846115dc565b611c3984848484612116565b611c78576040517f08c379a0000000000000000000000000000000000000000000000000000000008152600401611c6f90613637565b60405180910390fd5b50505050565b600960009054906101000a900473ffffffffffffffffffffffffffffffffffffffff1673ffffffffffffffffffffffffffffffffffffffff163373ffffffffffffffffffffffffffffffffffffffff1614611cd857600080fd5b611ce1826108be565b73ffffffffffffffffffffffffffffffffffffffff163273ffffffffffffffffffffffffffffffffffffffff1614611d4e576040517f08c379a0000000000000000000000000000000000000000000000000000000008152600401611d45906136a3565b60405180910390fd5b60001515600e600083815260200190815260200160002060009054906101000a900460ff16151514611db5576040517f08c379a0000000000000000000000000000000000000000000000000000000008152600401611dac9061370f565b60405180910390fd5b611dc03230846115dc565b43600c60008481526020019081526020016000208190555080600d6000848152602001908152602001600020819055506001600e600083815260200190815260200160002060006101000a81548160ff02191690831515021790555032600a600084815260200190815260200160002060006101000a81548173ffffffffffffffffffffffffffffffffffffffff021916908373ffffffffffffffffffffffffffffffffffffffff1602179055506001600b600084815260200190815260200160002060006101000a81548160ff0219169083151502179055505050565b600960009054906101000a900473ffffffffffffffffffffffffffffffffffffffff1673ffffffffffffffffffffffffffffffffffffffff163373ffffffffffffffffffffffffffffffffffffffff1614611ef857600080fd5b3273ffffffffffffffffffffffffffffffffffffffff16600a600084815260200190815260200160002060009054906101000a900473ffffffffffffffffffffffffffffffffffffffff1673ffffffffffffffffffffffffffffffffffffffff1614611f6357600080fd5b60011515600e600083815260200190815260200160002060009054906101000a900460ff16151514611f9457600080fd5b6000600e600083815260200190815260200160002060006101000a81548160ff0219169083151502179055506000600a600084815260200190815260200160002060006101000a81548173ffffffffffffffffffffffffffffffffffffffff021916908373ffffffffffffffffffffffffffffffffffffffff16021790555061201e3032846115dc565b6000600b600084815260200190815260200160002060006101000a81548160ff0219169083151502179055505050565b606060405180602001604052806000815250905090565b6060612070826113d1565b6120af576040517f08c379a00000000000000000000000000000000000000000000000000000000081526004016120a6906137a1565b60405180910390fd5b60006120b961204e565b905060008151116120d95760405180602001604052806000815250612104565b806120e38461229e565b6040516020016120f4929190613024565b6040516020818303038152906040525b915050919050565b505050565b505050565b60006121378473ffffffffffffffffffffffffffffffffffffffff166123ff565b15612291578373ffffffffffffffffffffffffffffffffffffffff1663150b7a0261216061143d565b8786866040518563ffffffff1660e01b81526004016121829493929190613816565b6020604051808303816000875af19250505080156121be57506040513d601f19601f820116820180604052508101906121bb9190613877565b60015b612241573d80600081146121ee576040519150601f19603f3d011682016040523d82523d6000602084013e6121f3565b606091505b50600081511415612239576040517f08c379a000000000000000000000000000000000000000000000000000000000815260040161223090613637565b60405180910390fd5b805181602001fd5b63150b7a0260e01b7bffffffffffffffffffffffffffffffffffffffffffffffffffffffff1916817bffffffffffffffffffffffffffffffffffffffffffffffffffffffff191614915050612296565b600190505b949350505050565b606060008214156122e6576040518060400160405280600181526020017f300000000000000000000000000000000000000000000000000000000000000081525090506123fa565b600082905060005b60008214612318578080612301906138a4565b915050600a8261231191906138ed565b91506122ee565b60008167ffffffffffffffff8111156123345761233361289a565b5b6040519080825280601f01601f1916602001820160405280156123665781602001600182028036833780820191505090505b5090505b600085146123f35760018261237f919061314f565b9150600a8561238e91906131b2565b603061239a9190613399565b60f81b8183815181106123b0576123af61391e565b5b60200101907effffffffffffffffffffffffffffffffffffffffffffffffffffffffffffff1916908160001a905350600a856123ec91906138ed565b945061236a565b8093505050505b919050565b6000808273ffffffffffffffffffffffffffffffffffffffff163b119050919050565b82805461242e90612b0a565b90600052602060002090601f0160209004810192826124505760008555612497565b82601f1061246957805160ff1916838001178555612497565b82800160010185558215612497579182015b8281111561249657825182559160200191906001019061247b565b5b5090506124a491906124a8565b5090565b5b808211156124c15760008160009055506001016124a9565b5090565b6000604051905090565b600080fd5b600080fd5b60007fffffffff0000000000000000000000000000000000000000000000000000000082169050919050565b61250e816124d9565b811461251957600080fd5b50565b60008135905061252b81612505565b92915050565b600060208284031215612547576125466124cf565b5b60006125558482850161251c565b91505092915050565b60008115159050919050565b6125738161255e565b82525050565b600060208201905061258e600083018461256a565b92915050565b600081519050919050565b600082825260208201905092915050565b60005b838110156125ce5780820151818401526020810190506125b3565b838111156125dd576000848401525b50505050565b6000601f19601f8301169050919050565b60006125ff82612594565b612609818561259f565b93506126198185602086016125b0565b612622816125e3565b840191505092915050565b6000602082019050818103600083015261264781846125f4565b905092915050565b6000819050919050565b6126628161264f565b811461266d57600080fd5b50565b60008135905061267f81612659565b92915050565b60006020828403121561269b5761269a6124cf565b5b60006126a984828501612670565b91505092915050565b600073ffffffffffffffffffffffffffffffffffffffff82169050919050565b60006126dd826126b2565b9050919050565b6126ed816126d2565b82525050565b600060208201905061270860008301846126e4565b92915050565b612717816126d2565b811461272257600080fd5b50565b6000813590506127348161270e565b92915050565b60008060408385031215612751576127506124cf565b5b600061275f85828601612725565b925050602061277085828601612670565b9150509250929050565b600080600060608486031215612793576127926124cf565b5b60006127a186828701612725565b93505060206127b286828701612725565b92505060406127c386828701612670565b9150509250925092565b6127d68161264f565b82525050565b60006020820190506127f160008301846127cd565b92915050565b60006020828403121561280d5761280c6124cf565b5b600061281b84828501612725565b91505092915050565b61282d8161255e565b811461283857600080fd5b50565b60008135905061284a81612824565b92915050565b60008060408385031215612867576128666124cf565b5b600061287585828601612725565b92505060206128868582860161283b565b9150509250929050565b600080fd5b600080fd5b7f4e487b7100000000000000000000000000000000000000000000000000000000600052604160045260246000fd5b6128d2826125e3565b810181811067ffffffffffffffff821117156128f1576128f061289a565b5b80604052505050565b60006129046124c5565b905061291082826128c9565b919050565b600067ffffffffffffffff8211156129305761292f61289a565b5b612939826125e3565b9050602081019050919050565b82818337600083830152505050565b600061296861296384612915565b6128fa565b90508281526020810184848401111561298457612983612895565b5b61298f848285612946565b509392505050565b600082601f8301126129ac576129ab612890565b5b81356129bc848260208601612955565b91505092915050565b600080600080608085870312156129df576129de6124cf565b5b60006129ed87828801612725565b94505060206129fe87828801612725565b9350506040612a0f87828801612670565b925050606085013567ffffffffffffffff811115612a3057612a2f6124d4565b5b612a3c87828801612997565b91505092959194509250565b600080600060608486031215612a6157612a606124cf565b5b6000612a6f86828701612670565b9350506020612a8086828701612670565b9250506040612a9186828701612670565b9150509250925092565b60008060408385031215612ab257612ab16124cf565b5b6000612ac085828601612725565b9250506020612ad185828601612725565b9150509250929050565b7f4e487b7100000000000000000000000000000000000000000000000000000000600052602260045260246000fd5b60006002820490506001821680612b2257607f821691505b60208210811415612b3657612b35612adb565b5b50919050565b7f4552433732313a20617070726f76656420717565727920666f72206e6f6e657860008201527f697374656e7420746f6b656e0000000000000000000000000000000000000000602082015250565b6000612b98602c8361259f565b9150612ba382612b3c565b604082019050919050565b60006020820190508181036000830152612bc781612b8b565b9050919050565b7f4552433732313a20617070726f76616c20746f2063757272656e74206f776e6560008201527f7200000000000000000000000000000000000000000000000000000000000000602082015250565b6000612c2a60218361259f565b9150612c3582612bce565b604082019050919050565b60006020820190508181036000830152612c5981612c1d565b9050919050565b7f4552433732313a20617070726f76652063616c6c6572206973206e6f74206f7760008201527f6e6572206e6f7220617070726f76656420666f7220616c6c0000000000000000602082015250565b6000612cbc60388361259f565b9150612cc782612c60565b604082019050919050565b60006020820190508181036000830152612ceb81612caf565b9050919050565b7f4552433732313a207472616e736665722063616c6c6572206973206e6f74206f60008201527f776e6572206e6f7220617070726f766564000000000000000000000000000000602082015250565b6000612d4e60318361259f565b9150612d5982612cf2565b604082019050919050565b60006020820190508181036000830152612d7d81612d41565b9050919050565b7f4552433732313a206f776e657220717565727920666f72206e6f6e657869737460008201527f656e7420746f6b656e0000000000000000000000000000000000000000000000602082015250565b6000612de060298361259f565b9150612deb82612d84565b604082019050919050565b60006020820190508181036000830152612e0f81612dd3565b9050919050565b600081519050612e2581612659565b92915050565b600060208284031215612e4157612e406124cf565b5b6000612e4f84828501612e16565b91505092915050565b7f4e6f206d6f7265206d696e657273000000000000000000000000000000000000600082015250565b6000612e8e600e8361259f565b9150612e9982612e58565b602082019050919050565b60006020820190508181036000830152612ebd81612e81565b9050919050565b7f4552433732313a2062616c616e636520717565727920666f7220746865207a6560008201527f726f206164647265737300000000000000000000000000000000000000000000602082015250565b6000612f20602a8361259f565b9150612f2b82612ec4565b604082019050919050565b60006020820190508181036000830152612f4f81612f13565b9050919050565b7f45524337323155524953746f726167653a2055524920717565727920666f722060008201527f6e6f6e6578697374656e7420746f6b656e000000000000000000000000000000602082015250565b6000612fb260318361259f565b9150612fbd82612f56565b604082019050919050565b60006020820190508181036000830152612fe181612fa5565b9050919050565b600081905092915050565b6000612ffe82612594565b6130088185612fe8565b93506130188185602086016125b0565b80840191505092915050565b60006130308285612ff3565b915061303c8284612ff3565b91508190509392505050565b7f746865206d696e6572206973206e6f742070726f647563696e67000000000000600082015250565b600061307e601a8361259f565b915061308982613048565b602082019050919050565b600060208201905081810360008301526130ad81613071565b9050919050565b7f546865206d696e6572206973206e6f7420796f75720000000000000000000000600082015250565b60006130ea60158361259f565b91506130f5826130b4565b602082019050919050565b60006020820190508181036000830152613119816130dd565b9050919050565b7f4e487b7100000000000000000000000000000000000000000000000000000000600052601160045260246000fd5b600061315a8261264f565b91506131658361264f565b92508282101561317857613177613120565b5b828203905092915050565b7f4e487b7100000000000000000000000000000000000000000000000000000000600052601260045260246000fd5b60006131bd8261264f565b91506131c88361264f565b9250826131d8576131d7613183565b5b828206905092915050565b7f4552433732313a206f70657261746f7220717565727920666f72206e6f6e657860008201527f697374656e7420746f6b656e0000000000000000000000000000000000000000602082015250565b600061323f602c8361259f565b915061324a826131e3565b604082019050919050565b6000602082019050818103600083015261326e81613232565b9050919050565b7f4552433732313a207472616e736665722066726f6d20696e636f72726563742060008201527f6f776e6572000000000000000000000000000000000000000000000000000000602082015250565b60006132d160258361259f565b91506132dc82613275565b604082019050919050565b60006020820190508181036000830152613300816132c4565b9050919050565b7f4552433732313a207472616e7366657220746f20746865207a65726f2061646460008201527f7265737300000000000000000000000000000000000000000000000000000000602082015250565b600061336360248361259f565b915061336e82613307565b604082019050919050565b6000602082019050818103600083015261339281613356565b9050919050565b60006133a48261264f565b91506133af8361264f565b9250827fffffffffffffffffffffffffffffffffffffffffffffffffffffffffffffffff038211156133e4576133e3613120565b5b828201905092915050565b7f4552433732313a206d696e7420746f20746865207a65726f2061646472657373600082015250565b600061342560208361259f565b9150613430826133ef565b602082019050919050565b6000602082019050818103600083015261345481613418565b9050919050565b7f4552433732313a20746f6b656e20616c7265616479206d696e74656400000000600082015250565b6000613491601c8361259f565b915061349c8261345b565b602082019050919050565b600060208201905081810360008301526134c081613484565b9050919050565b7f45524337323155524953746f726167653a2055524920736574206f66206e6f6e60008201527f6578697374656e7420746f6b656e000000000000000000000000000000000000602082015250565b6000613523602e8361259f565b915061352e826134c7565b604082019050919050565b6000602082019050818103600083015261355281613516565b9050919050565b7f4552433732313a20617070726f766520746f2063616c6c657200000000000000600082015250565b600061358f60198361259f565b915061359a82613559565b602082019050919050565b600060208201905081810360008301526135be81613582565b9050919050565b7f4552433732313a207472616e7366657220746f206e6f6e20455243373231526560008201527f63656976657220696d706c656d656e7465720000000000000000000000000000602082015250565b600061362160328361259f565b915061362c826135c5565b604082019050919050565b6000602082019050818103600083015261365081613614565b9050919050565b7f596f7520617265206e6f7420746865206f776e65720000000000000000000000600082015250565b600061368d60158361259f565b915061369882613657565b602082019050919050565b600060208201905081810360008301526136bc81613680565b9050919050565b7f546f776e68616c6c20697320616c726561647920636f6e6e6563746564000000600082015250565b60006136f9601d8361259f565b9150613704826136c3565b602082019050919050565b60006020820190508181036000830152613728816136ec565b9050919050565b7f4552433732314d657461646174613a2055524920717565727920666f72206e6f60008201527f6e6578697374656e7420746f6b656e0000000000000000000000000000000000602082015250565b600061378b602f8361259f565b91506137968261372f565b604082019050919050565b600060208201905081810360008301526137ba8161377e565b9050919050565b600081519050919050565b600082825260208201905092915050565b60006137e8826137c1565b6137f281856137cc565b93506138028185602086016125b0565b61380b816125e3565b840191505092915050565b600060808201905061382b60008301876126e4565b61383860208301866126e4565b61384560408301856127cd565b818103606083015261385781846137dd565b905095945050505050565b60008151905061387181612505565b92915050565b60006020828403121561388d5761388c6124cf565b5b600061389b84828501613862565b91505092915050565b60006138af8261264f565b91507fffffffffffffffffffffffffffffffffffffffffffffffffffffffffffffffff8214156138e2576138e1613120565b5b600182019050919050565b60006138f88261264f565b91506139038361264f565b92508261391357613912613183565b5b828204905092915050565b7f4e487b7100000000000000000000000000000000000000000000000000000000600052603260045260246000fdfea26469706673582212203bc449f9480499446f9a0add12432bca8027d4e7e973a5e7f215df81451c1e6064736f6c634300080c0033",
  "immutableReferences": {},
  "source": "pragma solidity ^0.8.0;\n\nimport \"@openzeppelin/contracts/token/ERC721/extensions/ERC721URIStorage.sol\";\n\nimport \"@openzeppelin/contracts/utils/Counters.sol\";\n\ncontract Miner is ERC721URIStorage {\n    using Counters for Counters.Counter;\n    Counters.Counter private _tokenIds;\n    string tokenuri = \"abc\";\n    address public owner;\n    mapping(uint256=>address) public lockedminers;\n    mapping(uint256=>bool) public minerproducing;\n    mapping(uint256=>uint256) public lastcollected;\n    mapping(uint256=>uint256) public TownhallMiner;\n    mapping(uint256=>bool) public townhallconnected;\n    uint256 public maxblock = 1200;\n    event Amm(uint256 amount);\n    constructor() ERC721(\"Miner\", \"MNR\") public {\n        owner = tx.origin;\n    }\n    modifier onlyOwner(){\n            require(msg.sender == owner);\n            _;\n    }\n\n    function mint(address starter) onlyOwner external {\n         _tokenIds.increment();\n        require(this.balanceOf(starter)<1,\"No more miners\");\n        uint256 newItemId = _tokenIds.current();\n        _mint(starter, newItemId);\n        _setTokenURI(newItemId, tokenuri);\n\n    }\n\n     function changeowner(address newowner) onlyOwner public{\n        owner = newowner;\n    }\n\n    function lock(uint256 minerid,uint256 townhallid) onlyOwner internal{\n        require(tx.origin == ownerOf(minerid),\"You are not the owner\");\n        require(townhallconnected[townhallid] == false,\"Townhall is already connected\");\n        _transfer(tx.origin,address(this),minerid);\n        lastcollected[minerid] = block.number;\n        TownhallMiner[minerid] = townhallid;\n        townhallconnected[townhallid] = true;\n        lockedminers[minerid] = tx.origin;\n        minerproducing[minerid] = true;\n    }\n\n    function unlock(uint256 minerid,uint256 townhallid) onlyOwner internal{\n        require(lockedminers[minerid] == tx.origin);\n        require(townhallconnected[townhallid] == true);\n        townhallconnected[townhallid] = false;\n        lockedminers[minerid]= address(0);\n        _transfer(address(this),tx.origin,minerid);\n        minerproducing[minerid] = false;\n        \n\n    }\n\n    function collect(uint256 id) onlyOwner public returns(uint256){\n        require(minerproducing[id] == true,\"the miner is not producing\");\n        require(lockedminers[id] == tx.origin,\"The miner is not your\");\n        uint256 current = lastcollected[id];\n        lastcollected[id] = block.number;\n     \n        return (block.number -current) % maxblock;\n\n    }\n\n    function updatelock(uint256 minerid,uint256 townhallid,uint256 amount) onlyOwner external{\n        if(amount>0 && tx.origin == ownerOf(minerid) && townhallconnected[townhallid] == false){\n            lock(minerid,townhallid);\n\n            \n        }\n        else if(amount == 0 && townhallconnected[townhallid] == true && lockedminers[minerid] == tx.origin ){\n            unlock(minerid, townhallid);\n        }\n    }\n}\n",
  "sourcePath": "/home/kali/Documents/RTS_Contract/contracts/Miner.sol",
  "compiler": {
    "name": "solc",
    "version": "0.8.12+commit.f00d7308.Emscripten.clang"
  },
  "schemaVersion": "3.4.5",
  "updatedAt": "2022-04-21T04:16:28.067Z",
  "networkType": "ethereum",
  "devdoc": {
    "kind": "dev",
    "methods": {
      "approve(address,uint256)": {
        "details": "See {IERC721-approve}."
      },
      "balanceOf(address)": {
        "details": "See {IERC721-balanceOf}."
      },
      "getApproved(uint256)": {
        "details": "See {IERC721-getApproved}."
      },
      "isApprovedForAll(address,address)": {
        "details": "See {IERC721-isApprovedForAll}."
      },
      "name()": {
        "details": "See {IERC721Metadata-name}."
      },
      "ownerOf(uint256)": {
        "details": "See {IERC721-ownerOf}."
      },
      "safeTransferFrom(address,address,uint256)": {
        "details": "See {IERC721-safeTransferFrom}."
      },
      "safeTransferFrom(address,address,uint256,bytes)": {
        "details": "See {IERC721-safeTransferFrom}."
      },
      "setApprovalForAll(address,bool)": {
        "details": "See {IERC721-setApprovalForAll}."
      },
      "supportsInterface(bytes4)": {
        "details": "See {IERC165-supportsInterface}."
      },
      "symbol()": {
        "details": "See {IERC721Metadata-symbol}."
      },
      "tokenURI(uint256)": {
        "details": "See {IERC721Metadata-tokenURI}."
      },
      "transferFrom(address,address,uint256)": {
        "details": "See {IERC721-transferFrom}."
      }
    },
    "version": 1
  },
  "userdoc": {
    "kind": "user",
    "methods": {},
    "version": 1
  }
}